{
  "_format": "hh-sol-artifact-1",
  "contractName": "PokechainNFT",
  "sourceName": "contracts/PokechainNFT.sol",
  "abi": [
    {
      "inputs": [],
      "stateMutability": "nonpayable",
      "type": "constructor"
    },
    {
      "inputs": [],
      "name": "ApprovalCallerNotOwnerNorApproved",
      "type": "error"
    },
    {
      "inputs": [],
      "name": "ApprovalQueryForNonexistentToken",
      "type": "error"
    },
    {
      "inputs": [],
      "name": "ApprovalToCurrentOwner",
      "type": "error"
    },
    {
      "inputs": [],
      "name": "ApproveToCaller",
      "type": "error"
    },
    {
      "inputs": [],
      "name": "BalanceQueryForZeroAddress",
      "type": "error"
    },
    {
      "inputs": [],
      "name": "MintToZeroAddress",
      "type": "error"
    },
    {
      "inputs": [],
      "name": "MintZeroQuantity",
      "type": "error"
    },
    {
      "inputs": [],
      "name": "OwnerQueryForNonexistentToken",
      "type": "error"
    },
    {
      "inputs": [],
      "name": "TransferCallerNotOwnerNorApproved",
      "type": "error"
    },
    {
      "inputs": [],
      "name": "TransferFromIncorrectOwner",
      "type": "error"
    },
    {
      "inputs": [],
      "name": "TransferToNonERC721ReceiverImplementer",
      "type": "error"
    },
    {
      "inputs": [],
      "name": "TransferToZeroAddress",
      "type": "error"
    },
    {
      "inputs": [],
      "name": "URIQueryForNonexistentToken",
      "type": "error"
    },
    {
      "anonymous": false,
      "inputs": [
        {
          "indexed": true,
          "internalType": "address",
          "name": "owner",
          "type": "address"
        },
        {
          "indexed": true,
          "internalType": "address",
          "name": "approved",
          "type": "address"
        },
        {
          "indexed": true,
          "internalType": "uint256",
          "name": "tokenId",
          "type": "uint256"
        }
      ],
      "name": "Approval",
      "type": "event"
    },
    {
      "anonymous": false,
      "inputs": [
        {
          "indexed": true,
          "internalType": "address",
          "name": "owner",
          "type": "address"
        },
        {
          "indexed": true,
          "internalType": "address",
          "name": "operator",
          "type": "address"
        },
        {
          "indexed": false,
          "internalType": "bool",
          "name": "approved",
          "type": "bool"
        }
      ],
      "name": "ApprovalForAll",
      "type": "event"
    },
    {
      "anonymous": false,
      "inputs": [
        {
          "indexed": false,
          "internalType": "string",
          "name": "newBaseURI",
          "type": "string"
        }
      ],
      "name": "BaseURIUpdated",
      "type": "event"
    },
    {
      "anonymous": false,
      "inputs": [
        {
          "indexed": true,
          "internalType": "address",
          "name": "previousOwner",
          "type": "address"
        },
        {
          "indexed": true,
          "internalType": "address",
          "name": "newOwner",
          "type": "address"
        }
      ],
      "name": "OwnershipTransferred",
      "type": "event"
    },
    {
      "anonymous": false,
      "inputs": [
        {
          "indexed": false,
          "internalType": "bool",
          "name": "isActive",
          "type": "bool"
        }
      ],
      "name": "SaleToggled",
      "type": "event"
    },
    {
      "anonymous": false,
      "inputs": [
        {
          "indexed": true,
          "internalType": "address",
          "name": "from",
          "type": "address"
        },
        {
          "indexed": true,
          "internalType": "address",
          "name": "to",
          "type": "address"
        },
        {
          "indexed": true,
          "internalType": "uint256",
          "name": "tokenId",
          "type": "uint256"
        }
      ],
      "name": "Transfer",
      "type": "event"
    },
    {
      "anonymous": false,
      "inputs": [
        {
          "indexed": true,
          "internalType": "address",
          "name": "to",
          "type": "address"
        },
        {
          "indexed": false,
          "internalType": "uint256",
          "name": "amount",
          "type": "uint256"
        }
      ],
      "name": "Withdrawn",
      "type": "event"
    },
    {
      "inputs": [],
      "name": "MAX_PER_WALLET",
      "outputs": [
        {
          "internalType": "uint256",
          "name": "",
          "type": "uint256"
        }
      ],
      "stateMutability": "view",
      "type": "function"
    },
    {
      "inputs": [],
      "name": "MAX_SUPPLY",
      "outputs": [
        {
          "internalType": "uint256",
          "name": "",
          "type": "uint256"
        }
      ],
      "stateMutability": "view",
      "type": "function"
    },
    {
      "inputs": [],
      "name": "MINT_PRICE",
      "outputs": [
        {
          "internalType": "uint256",
          "name": "",
          "type": "uint256"
        }
      ],
      "stateMutability": "view",
      "type": "function"
    },
    {
      "inputs": [],
      "name": "TOTAL_POKEMON",
      "outputs": [
        {
          "internalType": "uint256",
          "name": "",
          "type": "uint256"
        }
      ],
      "stateMutability": "view",
      "type": "function"
    },
    {
      "inputs": [
        {
          "internalType": "address",
          "name": "to",
          "type": "address"
        },
        {
          "internalType": "uint256",
          "name": "tokenId",
          "type": "uint256"
        }
      ],
      "name": "approve",
      "outputs": [],
      "stateMutability": "nonpayable",
      "type": "function"
    },
    {
      "inputs": [
        {
          "internalType": "address",
          "name": "owner",
          "type": "address"
        }
      ],
      "name": "balanceOf",
      "outputs": [
        {
          "internalType": "uint256",
          "name": "",
          "type": "uint256"
        }
      ],
      "stateMutability": "view",
      "type": "function"
    },
    {
      "inputs": [],
      "name": "baseExtension",
      "outputs": [
        {
          "internalType": "string",
          "name": "",
          "type": "string"
        }
      ],
      "stateMutability": "view",
      "type": "function"
    },
    {
      "inputs": [
        {
          "internalType": "uint256",
          "name": "tokenId",
          "type": "uint256"
        }
      ],
      "name": "getApproved",
      "outputs": [
        {
          "internalType": "address",
          "name": "",
          "type": "address"
        }
      ],
      "stateMutability": "view",
      "type": "function"
    },
    {
      "inputs": [
        {
          "internalType": "uint256",
          "name": "tokenId",
          "type": "uint256"
        }
      ],
      "name": "getPokemonId",
      "outputs": [
        {
          "internalType": "uint256",
          "name": "",
          "type": "uint256"
        }
      ],
      "stateMutability": "view",
      "type": "function"
    },
    {
      "inputs": [
        {
          "internalType": "address",
          "name": "owner",
          "type": "address"
        },
        {
          "internalType": "address",
          "name": "operator",
          "type": "address"
        }
      ],
      "name": "isApprovedForAll",
      "outputs": [
        {
          "internalType": "bool",
          "name": "",
          "type": "bool"
        }
      ],
      "stateMutability": "view",
      "type": "function"
    },
    {
      "inputs": [],
      "name": "isSaleActive",
      "outputs": [
        {
          "internalType": "bool",
          "name": "",
          "type": "bool"
        }
      ],
      "stateMutability": "view",
      "type": "function"
    },
    {
      "inputs": [
        {
          "internalType": "uint256",
          "name": "quantity",
          "type": "uint256"
        }
      ],
      "name": "mint",
      "outputs": [],
      "stateMutability": "payable",
      "type": "function"
    },
    {
      "inputs": [],
      "name": "name",
      "outputs": [
        {
          "internalType": "string",
          "name": "",
          "type": "string"
        }
      ],
      "stateMutability": "view",
      "type": "function"
    },
    {
      "inputs": [],
      "name": "owner",
      "outputs": [
        {
          "internalType": "address",
          "name": "",
          "type": "address"
        }
      ],
      "stateMutability": "view",
      "type": "function"
    },
    {
      "inputs": [
        {
          "internalType": "uint256",
          "name": "tokenId",
          "type": "uint256"
        }
      ],
      "name": "ownerOf",
      "outputs": [
        {
          "internalType": "address",
          "name": "",
          "type": "address"
        }
      ],
      "stateMutability": "view",
      "type": "function"
    },
    {
      "inputs": [],
      "name": "remainingSupply",
      "outputs": [
        {
          "internalType": "uint256",
          "name": "",
          "type": "uint256"
        }
      ],
      "stateMutability": "view",
      "type": "function"
    },
    {
      "inputs": [],
      "name": "renounceOwnership",
      "outputs": [],
      "stateMutability": "nonpayable",
      "type": "function"
    },
    {
      "inputs": [
        {
          "internalType": "address",
          "name": "from",
          "type": "address"
        },
        {
          "internalType": "address",
          "name": "to",
          "type": "address"
        },
        {
          "internalType": "uint256",
          "name": "tokenId",
          "type": "uint256"
        }
      ],
      "name": "safeTransferFrom",
      "outputs": [],
      "stateMutability": "nonpayable",
      "type": "function"
    },
    {
      "inputs": [
        {
          "internalType": "address",
          "name": "from",
          "type": "address"
        },
        {
          "internalType": "address",
          "name": "to",
          "type": "address"
        },
        {
          "internalType": "uint256",
          "name": "tokenId",
          "type": "uint256"
        },
        {
          "internalType": "bytes",
          "name": "_data",
          "type": "bytes"
        }
      ],
      "name": "safeTransferFrom",
      "outputs": [],
      "stateMutability": "nonpayable",
      "type": "function"
    },
    {
      "inputs": [],
      "name": "saleActive",
      "outputs": [
        {
          "internalType": "bool",
          "name": "",
          "type": "bool"
        }
      ],
      "stateMutability": "view",
      "type": "function"
    },
    {
      "inputs": [
        {
          "internalType": "address",
          "name": "operator",
          "type": "address"
        },
        {
          "internalType": "bool",
          "name": "approved",
          "type": "bool"
        }
      ],
      "name": "setApprovalForAll",
      "outputs": [],
      "stateMutability": "nonpayable",
      "type": "function"
    },
    {
      "inputs": [
        {
          "internalType": "string",
          "name": "_newExtension",
          "type": "string"
        }
      ],
      "name": "setBaseExtension",
      "outputs": [],
      "stateMutability": "nonpayable",
      "type": "function"
    },
    {
      "inputs": [
        {
          "internalType": "string",
          "name": "_newBaseURI",
          "type": "string"
        }
      ],
      "name": "setBaseURI",
      "outputs": [],
      "stateMutability": "nonpayable",
      "type": "function"
    },
    {
      "inputs": [
        {
          "internalType": "bytes4",
          "name": "interfaceId",
          "type": "bytes4"
        }
      ],
      "name": "supportsInterface",
      "outputs": [
        {
          "internalType": "bool",
          "name": "",
          "type": "bool"
        }
      ],
      "stateMutability": "view",
      "type": "function"
    },
    {
      "inputs": [],
      "name": "symbol",
      "outputs": [
        {
          "internalType": "string",
          "name": "",
          "type": "string"
        }
      ],
      "stateMutability": "view",
      "type": "function"
    },
    {
      "inputs": [],
      "name": "toggleSale",
      "outputs": [],
      "stateMutability": "nonpayable",
      "type": "function"
    },
    {
      "inputs": [
        {
          "internalType": "uint256",
          "name": "tokenId",
          "type": "uint256"
        }
      ],
      "name": "tokenURI",
      "outputs": [
        {
          "internalType": "string",
          "name": "",
          "type": "string"
        }
      ],
      "stateMutability": "view",
      "type": "function"
    },
    {
      "inputs": [],
      "name": "totalSupply",
      "outputs": [
        {
          "internalType": "uint256",
          "name": "",
          "type": "uint256"
        }
      ],
      "stateMutability": "view",
      "type": "function"
    },
    {
      "inputs": [
        {
          "internalType": "address",
          "name": "from",
          "type": "address"
        },
        {
          "internalType": "address",
          "name": "to",
          "type": "address"
        },
        {
          "internalType": "uint256",
          "name": "tokenId",
          "type": "uint256"
        }
      ],
      "name": "transferFrom",
      "outputs": [],
      "stateMutability": "nonpayable",
      "type": "function"
    },
    {
      "inputs": [
        {
          "internalType": "address",
          "name": "newOwner",
          "type": "address"
        }
      ],
      "name": "transferOwnership",
      "outputs": [],
      "stateMutability": "nonpayable",
      "type": "function"
    },
    {
      "inputs": [
        {
          "internalType": "address",
          "name": "wallet",
          "type": "address"
        }
      ],
      "name": "walletMinted",
      "outputs": [
        {
          "internalType": "uint256",
          "name": "",
          "type": "uint256"
        }
      ],
      "stateMutability": "view",
      "type": "function"
    },
    {
      "inputs": [],
      "name": "withdraw",
      "outputs": [],
      "stateMutability": "nonpayable",
      "type": "function"
    }
  ],
  "bytecode": "0x61010060405260526080818152906200201160a03980516200002a91600a9160209091019062000158565b5060408051808201909152600580825264173539b7b760d91b60209092019182526200005991600b9162000158565b50600c805460ff191690553480156200007157600080fd5b50604080518082018252601481527f506f6b65636861696e20436f6c6c656374696f6e000000000000000000000000602080830191825283518085019094526004845263504f4b4560e01b908401528151919291620000d39160029162000158565b508051620000e990600390602084019062000158565b50506000805550620000fb3362000106565b60016009556200023a565b600880546001600160a01b038381166001600160a01b0319831681179093556040519116919082907f8be0079c531659141344cd1fd0a4f28419497f9722a3daafe3b4186f6b6457e090600090a35050565b8280546200016690620001fe565b90600052602060002090601f0160209004810192826200018a5760008555620001d5565b82601f10620001a557805160ff1916838001178555620001d5565b82800160010185558215620001d5579182015b82811115620001d5578251825591602001919060010190620001b8565b50620001e3929150620001e7565b5090565b5b80821115620001e35760008155600101620001e8565b600181811c908216806200021357607f821691505b6020821081036200023457634e487b7160e01b600052602260045260246000fd5b50919050565b611dc7806200024a6000396000f3fe6080604052600436106101e35760003560e01c8063715018a611610102578063c002d23d11610095578063da0239a611610064578063da0239a61461050c578063da3ef23f14610521578063e985e9c514610541578063f2fde38b1461058a57600080fd5b8063c002d23d146104a2578063c6682862146104b7578063c87b56dd146104cc578063d3738fc8146104ec57600080fd5b80639a3d0998116100d15780639a3d0998146102f5578063a0712d681461044f578063a22cb46514610462578063b88d4fde1461048257600080fd5b8063715018a6146103f25780637d8966e4146104075780638da5cb5b1461041c57806395d89b411461043a57600080fd5b80633ccfd60b1161017a578063564566a811610149578063564566a8146103805780636352211e1461039857806368428a1b146103b857806370a08231146103d257600080fd5b80633ccfd60b1461030b57806342842e0e1461032057806354ae524f1461034057806355f804b31461036057600080fd5b80630f2cdd6c116101b65780630f2cdd6c1461029957806318160ddd146102bc57806323b872dd146102d557806332cb6b0c146102f557600080fd5b806301ffc9a7146101e857806306fdde031461021d578063081812fc1461023f578063095ea7b314610277575b600080fd5b3480156101f457600080fd5b50610208610203366004611836565b6105aa565b60405190151581526020015b60405180910390f35b34801561022957600080fd5b506102326105fc565b60405161021491906118ab565b34801561024b57600080fd5b5061025f61025a3660046118be565b61068e565b6040516001600160a01b039091168152602001610214565b34801561028357600080fd5b506102976102923660046118f3565b6106d2565b005b3480156102a557600080fd5b506102ae603281565b604051908152602001610214565b3480156102c857600080fd5b50600154600054036102ae565b3480156102e157600080fd5b506102976102f036600461191d565b6107a4565b34801561030157600080fd5b506102ae61040181565b34801561031757600080fd5b506102976107b4565b34801561032c57600080fd5b5061029761033b36600461191d565b610936565b34801561034c57600080fd5b506102ae61035b3660046118be565b610951565b34801561036c57600080fd5b5061029761037b3660046119e5565b6109a8565b34801561038c57600080fd5b50600c5460ff16610208565b3480156103a457600080fd5b5061025f6103b33660046118be565b610a20565b3480156103c457600080fd5b50600c546102089060ff1681565b3480156103de57600080fd5b506102ae6103ed366004611a2e565b610a2b565b3480156103fe57600080fd5b50610297610a7a565b34801561041357600080fd5b50610297610aae565b34801561042857600080fd5b506008546001600160a01b031661025f565b34801561044657600080fd5b50610232610b25565b61029761045d3660046118be565b610b34565b34801561046e57600080fd5b5061029761047d366004611a49565b610e02565b34801561048e57600080fd5b5061029761049d366004611a85565b610e97565b3480156104ae57600080fd5b506102ae600081565b3480156104c357600080fd5b50610232610ee1565b3480156104d857600080fd5b506102326104e73660046118be565b610f6f565b3480156104f857600080fd5b506102ae610507366004611a2e565b61104b565b34801561051857600080fd5b506102ae611076565b34801561052d57600080fd5b5061029761053c3660046119e5565b611096565b34801561054d57600080fd5b5061020861055c366004611b01565b6001600160a01b03918216600090815260076020908152604080832093909416825291909152205460ff1690565b34801561059657600080fd5b506102976105a5366004611a2e565b6110d7565b60006301ffc9a760e01b6001600160e01b0319831614806105db57506380ac58cd60e01b6001600160e01b03198316145b806105f65750635b5e139f60e01b6001600160e01b03198316145b92915050565b60606002805461060b90611b34565b80601f016020809104026020016040519081016040528092919081815260200182805461063790611b34565b80156106845780601f1061065957610100808354040283529160200191610684565b820191906000526020600020905b81548152906001019060200180831161066757829003601f168201915b5050505050905090565b60006106998261116f565b6106b6576040516333d1c03960e21b815260040160405180910390fd5b506000908152600660205260409020546001600160a01b031690565b60006106dd82611196565b9050806001600160a01b0316836001600160a01b0316036107115760405163250fdee360e21b815260040160405180910390fd5b336001600160a01b038216146107485761072b813361055c565b610748576040516367d9dca160e11b815260040160405180910390fd5b60008281526006602052604080822080546001600160a01b0319166001600160a01b0387811691821790925591518593918516917f8c5be1e5ebec7d5bd14f71427d1e84f3dd0314c0f7b2291e5b200ac8c7c3b92591a4505050565b6107af838383611204565b505050565b6008546001600160a01b031633146107e75760405162461bcd60e51b81526004016107de90611b6e565b60405180910390fd5b6107ef6113ab565b47806108345760405162461bcd60e51b81526020600482015260146024820152734e6f2066756e647320746f20776974686472617760601b60448201526064016107de565b60006108486008546001600160a01b031690565b6001600160a01b03168260405160006040518083038185875af1925050503d8060008114610892576040519150601f19603f3d011682016040523d82523d6000602084013e610897565b606091505b50509050806108da5760405162461bcd60e51b815260206004820152600f60248201526e15da5d1a191c985dc819985a5b1959608a1b60448201526064016107de565b6008546001600160a01b03166001600160a01b03167f7084f5476618d8e60b11ef0d7d3f06914655adb8793e28ff7f018d4c76d505d58360405161092091815260200190565b60405180910390a250506109346001600955565b565b6107af83838360405180602001604052806000815250610e97565b600061095c8261116f565b61099f5760405162461bcd60e51b8152602060048201526014602482015273151bdad95b88191bd95cc81b9bdd08195e1a5cdd60621b60448201526064016107de565b6105f682611404565b6008546001600160a01b031633146109d25760405162461bcd60e51b81526004016107de90611b6e565b80516109e590600a906020840190611787565b507f6741b2fc379fad678116fe3d4d4b9a1a184ab53ba36b86ad0fa66340b1ab41ad81604051610a1591906118ab565b60405180910390a150565b60006105f682611196565b60006001600160a01b038216610a54576040516323d3ad8160e21b815260040160405180910390fd5b506001600160a01b031660009081526005602052604090205467ffffffffffffffff1690565b6008546001600160a01b03163314610aa45760405162461bcd60e51b81526004016107de90611b6e565b6109346000611459565b6008546001600160a01b03163314610ad85760405162461bcd60e51b81526004016107de90611b6e565b600c805460ff8082161560ff1990921682179092556040519116151581527f37ae8f893f8baa4aef207505c0e4d730119d73dc1363bbee6fda5f5d52c3cf179060200160405180910390a1565b60606003805461060b90611b34565b600c5460ff16610b7b5760405162461bcd60e51b815260206004820152601260248201527153616c65206973206e6f742061637469766560701b60448201526064016107de565b323314610bca5760405162461bcd60e51b815260206004820152601a60248201527f43616c6c657220697320616e6f7468657220636f6e747261637400000000000060448201526064016107de565b60008111610c1a5760405162461bcd60e51b815260206004820152601f60248201527f5175616e74697479206d7573742062652067726561746572207468616e20300060448201526064016107de565b61040181610c2b6001546000540390565b610c359190611bb9565b1115610c785760405162461bcd60e51b815260206004820152601260248201527145786365656473206d617820737570706c7960701b60448201526064016107de565b336000908152600560205260409081902054603291610ca39184911c67ffffffffffffffff16611bb9565b1115610cf15760405162461bcd60e51b815260206004820152601a60248201527f457863656564732077616c6c6574206c696d6974206f6620353000000000000060448201526064016107de565b610cfc816000611bd1565b341015610d425760405162461bcd60e51b8152602060048201526014602482015273125b9cdd59999a58da595b9d081c185e5b595b9d60621b60448201526064016107de565b610d4c33826114ab565b610d57816000611bd1565b341115610dff576000610d6a8282611bd1565b610d749034611bf0565b604051909150600090339083908381818185875af1925050503d8060008114610db9576040519150601f19603f3d011682016040523d82523d6000602084013e610dbe565b606091505b50509050806107af5760405162461bcd60e51b815260206004820152600d60248201526c1499599d5b990819985a5b1959609a1b60448201526064016107de565b50565b336001600160a01b03831603610e2b5760405163b06307db60e01b815260040160405180910390fd5b3360008181526007602090815260408083206001600160a01b03871680855290835292819020805460ff191686151590811790915590519081529192917f17307eab39ab6107e8899845ad3d59bd9653f200f220920489ca2b5937696c31910160405180910390a35050565b610ea2848484611204565b6001600160a01b0383163b15610edb57610ebe8484848461158c565b610edb576040516368d2bf6b60e11b815260040160405180910390fd5b50505050565b600b8054610eee90611b34565b80601f0160208091040260200160405190810160405280929190818152602001828054610f1a90611b34565b8015610f675780601f10610f3c57610100808354040283529160200191610f67565b820191906000526020600020905b815481529060010190602001808311610f4a57829003601f168201915b505050505081565b6060610f7a8261116f565b610fde5760405162461bcd60e51b815260206004820152602f60248201527f4552433732314d657461646174613a2055524920717565727920666f72206e6f60448201526e3732bc34b9ba32b73a103a37b5b2b760891b60648201526084016107de565b6000610fe983611404565b90506000610ff5611677565b905060008151116110155760405180602001604052806000815250611043565b8061101f83611686565b600b60405160200161103393929190611c07565b6040516020818303038152906040525b949350505050565b6001600160a01b0381166000908152600560205260408082205467ffffffffffffffff911c166105f6565b60006110856001546000540390565b61109190610401611bf0565b905090565b6008546001600160a01b031633146110c05760405162461bcd60e51b81526004016107de90611b6e565b80516110d390600b906020840190611787565b5050565b6008546001600160a01b031633146111015760405162461bcd60e51b81526004016107de90611b6e565b6001600160a01b0381166111665760405162461bcd60e51b815260206004820152602660248201527f4f776e61626c653a206e6577206f776e657220697320746865207a65726f206160448201526564647265737360d01b60648201526084016107de565b610dff81611459565b60008054821080156105f6575050600090815260046020526040902054600160e01b161590565b6000816000548110156111eb5760008181526004602052604081205490600160e01b821690036111e9575b806000036111e25750600019016000818152600460205260409020546111c1565b9392505050565b505b604051636f96cda160e11b815260040160405180910390fd5b600061120f82611196565b9050836001600160a01b0316816001600160a01b0316146112425760405162a1148160e81b815260040160405180910390fd5b6000336001600160a01b03861614806112605750611260853361055c565b8061127b5750336112708461068e565b6001600160a01b0316145b90508061129b57604051632ce44b5f60e11b815260040160405180910390fd5b6001600160a01b0384166112c257604051633a954ecd60e21b815260040160405180910390fd5b600083815260066020908152604080832080546001600160a01b03191690556001600160a01b038881168452600583528184208054600019019055871683528083208054600101905585835260049091528120600160e11b4260a01b8717811790915583169003611363576001830160008181526004602052604081205490036113615760005481146113615760008181526004602052604090208390555b505b82846001600160a01b0316866001600160a01b03167fddf252ad1be2c89b69c2b068fc378daa952ba7f163c4a11628f55a4df523b3ef60405160405180910390a45050505050565b6002600954036113fd5760405162461bcd60e51b815260206004820152601f60248201527f5265656e7472616e637947756172643a207265656e7472616e742063616c6c0060448201526064016107de565b6002600955565b604051682827a5a2a1a420a4a760b91b602082015260298101829052600090819060490160408051601f198184030181529190528051602090910120905061144e61040182611ce0565b6111e2906001611bb9565b600880546001600160a01b038381166001600160a01b0319831681179093556040519116919082907f8be0079c531659141344cd1fd0a4f28419497f9722a3daafe3b4186f6b6457e090600090a35050565b6000546001600160a01b0383166114d457604051622e076360e81b815260040160405180910390fd5b816000036114f55760405163b562e8dd60e01b815260040160405180910390fd5b6001600160a01b03831660009081526005602090815260408083208054680100000000000000018702019055838352600490915290204260a01b84176001841460e11b179055808083015b6040516001830192906001600160a01b038716906000907fddf252ad1be2c89b69c2b068fc378daa952ba7f163c4a11628f55a4df523b3ef908290a48082106115405750600055505050565b604051630a85bd0160e11b81526000906001600160a01b0385169063150b7a02906115c1903390899088908890600401611cf4565b6020604051808303816000875af19250505080156115fc575060408051601f3d908101601f191682019092526115f991810190611d31565b60015b61165a573d80801561162a576040519150601f19603f3d011682016040523d82523d6000602084013e61162f565b606091505b508051600003611652576040516368d2bf6b60e11b815260040160405180910390fd5b805181602001fd5b6001600160e01b031916630a85bd0160e11b149050949350505050565b6060600a805461060b90611b34565b6060816000036116ad5750506040805180820190915260018152600360fc1b602082015290565b8160005b81156116d757806116c181611d4e565b91506116d09050600a83611d67565b91506116b1565b60008167ffffffffffffffff8111156116f2576116f2611959565b6040519080825280601f01601f19166020018201604052801561171c576020820181803683370190505b5090505b841561104357611731600183611bf0565b915061173e600a86611ce0565b611749906030611bb9565b60f81b81838151811061175e5761175e611d7b565b60200101906001600160f81b031916908160001a905350611780600a86611d67565b9450611720565b82805461179390611b34565b90600052602060002090601f0160209004810192826117b557600085556117fb565b82601f106117ce57805160ff19168380011785556117fb565b828001600101855582156117fb579182015b828111156117fb5782518255916020019190600101906117e0565b5061180792915061180b565b5090565b5b80821115611807576000815560010161180c565b6001600160e01b031981168114610dff57600080fd5b60006020828403121561184857600080fd5b81356111e281611820565b60005b8381101561186e578181015183820152602001611856565b83811115610edb5750506000910152565b60008151808452611897816020860160208601611853565b601f01601f19169290920160200192915050565b6020815260006111e2602083018461187f565b6000602082840312156118d057600080fd5b5035919050565b80356001600160a01b03811681146118ee57600080fd5b919050565b6000806040838503121561190657600080fd5b61190f836118d7565b946020939093013593505050565b60008060006060848603121561193257600080fd5b61193b846118d7565b9250611949602085016118d7565b9150604084013590509250925092565b634e487b7160e01b600052604160045260246000fd5b600067ffffffffffffffff8084111561198a5761198a611959565b604051601f8501601f19908116603f011681019082821181831017156119b2576119b2611959565b816040528093508581528686860111156119cb57600080fd5b858560208301376000602087830101525050509392505050565b6000602082840312156119f757600080fd5b813567ffffffffffffffff811115611a0e57600080fd5b8201601f81018413611a1f57600080fd5b6110438482356020840161196f565b600060208284031215611a4057600080fd5b6111e2826118d7565b60008060408385031215611a5c57600080fd5b611a65836118d7565b915060208301358015158114611a7a57600080fd5b809150509250929050565b60008060008060808587031215611a9b57600080fd5b611aa4856118d7565b9350611ab2602086016118d7565b925060408501359150606085013567ffffffffffffffff811115611ad557600080fd5b8501601f81018713611ae657600080fd5b611af58782356020840161196f565b91505092959194509250565b60008060408385031215611b1457600080fd5b611b1d836118d7565b9150611b2b602084016118d7565b90509250929050565b600181811c90821680611b4857607f821691505b602082108103611b6857634e487b7160e01b600052602260045260246000fd5b50919050565b6020808252818101527f4f776e61626c653a2063616c6c6572206973206e6f7420746865206f776e6572604082015260600190565b634e487b7160e01b600052601160045260246000fd5b60008219821115611bcc57611bcc611ba3565b500190565b6000816000190483118215151615611beb57611beb611ba3565b500290565b600082821015611c0257611c02611ba3565b500390565b600084516020611c1a8285838a01611853565b855191840191611c2d8184848a01611853565b8554920191600090600181811c9080831680611c4a57607f831692505b8583108103611c6757634e487b7160e01b85526022600452602485fd5b808015611c7b5760018114611c8c57611cb9565b60ff19851688528388019550611cb9565b60008b81526020902060005b85811015611cb15781548a820152908401908801611c98565b505083880195505b50939b9a5050505050505050505050565b634e487b7160e01b600052601260045260246000fd5b600082611cef57611cef611cca565b500690565b6001600160a01b0385811682528416602082015260408101839052608060608201819052600090611d279083018461187f565b9695505050505050565b600060208284031215611d4357600080fd5b81516111e281611820565b600060018201611d6057611d60611ba3565b5060010190565b600082611d7657611d76611cca565b500490565b634e487b7160e01b600052603260045260246000fdfea264697066735822122031af63d48ac632e7becfc981275552fe789d5510534df4ff36d8ef14d430e86064736f6c634300080e003368747470733a2f2f7733732e6c696e6b2f697066732f62616679626569676969357772687668767262786d7634326e7163727237776d626f6774673667646a32727762693561777236797866346a6e33692f",
  "linkReferences": {},
  "deployedLinkReferences": {}
}