{
  "_format": "hh-sol-artifact-1",
  "contractName": "PokechainNFT",
  "sourceName": "contracts/PokechainNFT.sol",
  "abi": [
    {
      "inputs": [],
      "stateMutability": "nonpayable",
      "type": "constructor"
    },
    {
      "inputs": [],
      "name": "ApprovalCallerNotOwnerNorApproved",
      "type": "error"
    },
    {
      "inputs": [],
      "name": "ApprovalQueryForNonexistentToken",
      "type": "error"
    },
    {
      "inputs": [],
      "name": "ApprovalToCurrentOwner",
      "type": "error"
    },
    {
      "inputs": [],
      "name": "ApproveToCaller",
      "type": "error"
    },
    {
      "inputs": [],
      "name": "BalanceQueryForZeroAddress",
      "type": "error"
    },
    {
      "inputs": [],
      "name": "MintToZeroAddress",
      "type": "error"
    },
    {
      "inputs": [],
      "name": "MintZeroQuantity",
      "type": "error"
    },
    {
      "inputs": [],
      "name": "OwnerQueryForNonexistentToken",
      "type": "error"
    },
    {
      "inputs": [],
      "name": "TransferCallerNotOwnerNorApproved",
      "type": "error"
    },
    {
      "inputs": [],
      "name": "TransferFromIncorrectOwner",
      "type": "error"
    },
    {
      "inputs": [],
      "name": "TransferToNonERC721ReceiverImplementer",
      "type": "error"
    },
    {
      "inputs": [],
      "name": "TransferToZeroAddress",
      "type": "error"
    },
    {
      "inputs": [],
      "name": "URIQueryForNonexistentToken",
      "type": "error"
    },
    {
      "anonymous": false,
      "inputs": [
        {
          "indexed": true,
          "internalType": "address",
          "name": "owner",
          "type": "address"
        },
        {
          "indexed": true,
          "internalType": "address",
          "name": "approved",
          "type": "address"
        },
        {
          "indexed": true,
          "internalType": "uint256",
          "name": "tokenId",
          "type": "uint256"
        }
      ],
      "name": "Approval",
      "type": "event"
    },
    {
      "anonymous": false,
      "inputs": [
        {
          "indexed": true,
          "internalType": "address",
          "name": "owner",
          "type": "address"
        },
        {
          "indexed": true,
          "internalType": "address",
          "name": "operator",
          "type": "address"
        },
        {
          "indexed": false,
          "internalType": "bool",
          "name": "approved",
          "type": "bool"
        }
      ],
      "name": "ApprovalForAll",
      "type": "event"
    },
    {
      "anonymous": false,
      "inputs": [
        {
          "indexed": false,
          "internalType": "string",
          "name": "newBaseURI",
          "type": "string"
        }
      ],
      "name": "BaseURIUpdated",
      "type": "event"
    },
    {
      "anonymous": false,
      "inputs": [
        {
          "indexed": true,
          "internalType": "address",
          "name": "to",
          "type": "address"
        },
        {
          "indexed": true,
          "internalType": "uint256",
          "name": "tokenId",
          "type": "uint256"
        },
        {
          "indexed": false,
          "internalType": "uint256",
          "name": "pokemonId",
          "type": "uint256"
        }
      ],
      "name": "Minted",
      "type": "event"
    },
    {
      "anonymous": false,
      "inputs": [
        {
          "indexed": true,
          "internalType": "address",
          "name": "previousOwner",
          "type": "address"
        },
        {
          "indexed": true,
          "internalType": "address",
          "name": "newOwner",
          "type": "address"
        }
      ],
      "name": "OwnershipTransferred",
      "type": "event"
    },
    {
      "anonymous": false,
      "inputs": [
        {
          "indexed": false,
          "internalType": "bool",
          "name": "isActive",
          "type": "bool"
        }
      ],
      "name": "SaleToggled",
      "type": "event"
    },
    {
      "anonymous": false,
      "inputs": [
        {
          "indexed": true,
          "internalType": "address",
          "name": "from",
          "type": "address"
        },
        {
          "indexed": true,
          "internalType": "address",
          "name": "to",
          "type": "address"
        },
        {
          "indexed": true,
          "internalType": "uint256",
          "name": "tokenId",
          "type": "uint256"
        }
      ],
      "name": "Transfer",
      "type": "event"
    },
    {
      "anonymous": false,
      "inputs": [
        {
          "indexed": true,
          "internalType": "address",
          "name": "to",
          "type": "address"
        },
        {
          "indexed": false,
          "internalType": "uint256",
          "name": "amount",
          "type": "uint256"
        }
      ],
      "name": "Withdrawn",
      "type": "event"
    },
    {
      "inputs": [],
      "name": "MAX_PER_WALLET",
      "outputs": [
        {
          "internalType": "uint256",
          "name": "",
          "type": "uint256"
        }
      ],
      "stateMutability": "view",
      "type": "function"
    },
    {
      "inputs": [],
      "name": "MAX_SUPPLY",
      "outputs": [
        {
          "internalType": "uint256",
          "name": "",
          "type": "uint256"
        }
      ],
      "stateMutability": "view",
      "type": "function"
    },
    {
      "inputs": [],
      "name": "MINT_PRICE",
      "outputs": [
        {
          "internalType": "uint256",
          "name": "",
          "type": "uint256"
        }
      ],
      "stateMutability": "view",
      "type": "function"
    },
    {
      "inputs": [],
      "name": "TOTAL_POKEMON",
      "outputs": [
        {
          "internalType": "uint256",
          "name": "",
          "type": "uint256"
        }
      ],
      "stateMutability": "view",
      "type": "function"
    },
    {
      "inputs": [
        {
          "internalType": "address",
          "name": "to",
          "type": "address"
        },
        {
          "internalType": "uint256",
          "name": "tokenId",
          "type": "uint256"
        }
      ],
      "name": "approve",
      "outputs": [],
      "stateMutability": "nonpayable",
      "type": "function"
    },
    {
      "inputs": [
        {
          "internalType": "address",
          "name": "owner",
          "type": "address"
        }
      ],
      "name": "balanceOf",
      "outputs": [
        {
          "internalType": "uint256",
          "name": "",
          "type": "uint256"
        }
      ],
      "stateMutability": "view",
      "type": "function"
    },
    {
      "inputs": [],
      "name": "baseExtension",
      "outputs": [
        {
          "internalType": "string",
          "name": "",
          "type": "string"
        }
      ],
      "stateMutability": "view",
      "type": "function"
    },
    {
      "inputs": [
        {
          "internalType": "uint256",
          "name": "tokenId",
          "type": "uint256"
        }
      ],
      "name": "getApproved",
      "outputs": [
        {
          "internalType": "address",
          "name": "",
          "type": "address"
        }
      ],
      "stateMutability": "view",
      "type": "function"
    },
    {
      "inputs": [
        {
          "internalType": "uint256",
          "name": "tokenId",
          "type": "uint256"
        }
      ],
      "name": "getPokemonId",
      "outputs": [
        {
          "internalType": "uint256",
          "name": "",
          "type": "uint256"
        }
      ],
      "stateMutability": "view",
      "type": "function"
    },
    {
      "inputs": [
        {
          "internalType": "address",
          "name": "owner",
          "type": "address"
        },
        {
          "internalType": "address",
          "name": "operator",
          "type": "address"
        }
      ],
      "name": "isApprovedForAll",
      "outputs": [
        {
          "internalType": "bool",
          "name": "",
          "type": "bool"
        }
      ],
      "stateMutability": "view",
      "type": "function"
    },
    {
      "inputs": [],
      "name": "isSaleActive",
      "outputs": [
        {
          "internalType": "bool",
          "name": "",
          "type": "bool"
        }
      ],
      "stateMutability": "view",
      "type": "function"
    },
    {
      "inputs": [
        {
          "internalType": "uint256",
          "name": "quantity",
          "type": "uint256"
        }
      ],
      "name": "mint",
      "outputs": [],
      "stateMutability": "payable",
      "type": "function"
    },
    {
      "inputs": [],
      "name": "name",
      "outputs": [
        {
          "internalType": "string",
          "name": "",
          "type": "string"
        }
      ],
      "stateMutability": "view",
      "type": "function"
    },
    {
      "inputs": [],
      "name": "owner",
      "outputs": [
        {
          "internalType": "address",
          "name": "",
          "type": "address"
        }
      ],
      "stateMutability": "view",
      "type": "function"
    },
    {
      "inputs": [
        {
          "internalType": "uint256",
          "name": "tokenId",
          "type": "uint256"
        }
      ],
      "name": "ownerOf",
      "outputs": [
        {
          "internalType": "address",
          "name": "",
          "type": "address"
        }
      ],
      "stateMutability": "view",
      "type": "function"
    },
    {
      "inputs": [],
      "name": "remainingSupply",
      "outputs": [
        {
          "internalType": "uint256",
          "name": "",
          "type": "uint256"
        }
      ],
      "stateMutability": "view",
      "type": "function"
    },
    {
      "inputs": [],
      "name": "renounceOwnership",
      "outputs": [],
      "stateMutability": "nonpayable",
      "type": "function"
    },
    {
      "inputs": [
        {
          "internalType": "address",
          "name": "from",
          "type": "address"
        },
        {
          "internalType": "address",
          "name": "to",
          "type": "address"
        },
        {
          "internalType": "uint256",
          "name": "tokenId",
          "type": "uint256"
        }
      ],
      "name": "safeTransferFrom",
      "outputs": [],
      "stateMutability": "nonpayable",
      "type": "function"
    },
    {
      "inputs": [
        {
          "internalType": "address",
          "name": "from",
          "type": "address"
        },
        {
          "internalType": "address",
          "name": "to",
          "type": "address"
        },
        {
          "internalType": "uint256",
          "name": "tokenId",
          "type": "uint256"
        },
        {
          "internalType": "bytes",
          "name": "_data",
          "type": "bytes"
        }
      ],
      "name": "safeTransferFrom",
      "outputs": [],
      "stateMutability": "nonpayable",
      "type": "function"
    },
    {
      "inputs": [],
      "name": "saleActive",
      "outputs": [
        {
          "internalType": "bool",
          "name": "",
          "type": "bool"
        }
      ],
      "stateMutability": "view",
      "type": "function"
    },
    {
      "inputs": [
        {
          "internalType": "address",
          "name": "operator",
          "type": "address"
        },
        {
          "internalType": "bool",
          "name": "approved",
          "type": "bool"
        }
      ],
      "name": "setApprovalForAll",
      "outputs": [],
      "stateMutability": "nonpayable",
      "type": "function"
    },
    {
      "inputs": [
        {
          "internalType": "string",
          "name": "_newExtension",
          "type": "string"
        }
      ],
      "name": "setBaseExtension",
      "outputs": [],
      "stateMutability": "nonpayable",
      "type": "function"
    },
    {
      "inputs": [
        {
          "internalType": "string",
          "name": "_newBaseURI",
          "type": "string"
        }
      ],
      "name": "setBaseURI",
      "outputs": [],
      "stateMutability": "nonpayable",
      "type": "function"
    },
    {
      "inputs": [
        {
          "internalType": "bytes4",
          "name": "interfaceId",
          "type": "bytes4"
        }
      ],
      "name": "supportsInterface",
      "outputs": [
        {
          "internalType": "bool",
          "name": "",
          "type": "bool"
        }
      ],
      "stateMutability": "view",
      "type": "function"
    },
    {
      "inputs": [],
      "name": "symbol",
      "outputs": [
        {
          "internalType": "string",
          "name": "",
          "type": "string"
        }
      ],
      "stateMutability": "view",
      "type": "function"
    },
    {
      "inputs": [],
      "name": "toggleSale",
      "outputs": [],
      "stateMutability": "nonpayable",
      "type": "function"
    },
    {
      "inputs": [
        {
          "internalType": "uint256",
          "name": "",
          "type": "uint256"
        }
      ],
      "name": "tokenToPokemonId",
      "outputs": [
        {
          "internalType": "uint256",
          "name": "",
          "type": "uint256"
        }
      ],
      "stateMutability": "view",
      "type": "function"
    },
    {
      "inputs": [
        {
          "internalType": "uint256",
          "name": "tokenId",
          "type": "uint256"
        }
      ],
      "name": "tokenURI",
      "outputs": [
        {
          "internalType": "string",
          "name": "",
          "type": "string"
        }
      ],
      "stateMutability": "view",
      "type": "function"
    },
    {
      "inputs": [],
      "name": "totalSupply",
      "outputs": [
        {
          "internalType": "uint256",
          "name": "",
          "type": "uint256"
        }
      ],
      "stateMutability": "view",
      "type": "function"
    },
    {
      "inputs": [
        {
          "internalType": "address",
          "name": "from",
          "type": "address"
        },
        {
          "internalType": "address",
          "name": "to",
          "type": "address"
        },
        {
          "internalType": "uint256",
          "name": "tokenId",
          "type": "uint256"
        }
      ],
      "name": "transferFrom",
      "outputs": [],
      "stateMutability": "nonpayable",
      "type": "function"
    },
    {
      "inputs": [
        {
          "internalType": "address",
          "name": "newOwner",
          "type": "address"
        }
      ],
      "name": "transferOwnership",
      "outputs": [],
      "stateMutability": "nonpayable",
      "type": "function"
    },
    {
      "inputs": [
        {
          "internalType": "address",
          "name": "wallet",
          "type": "address"
        }
      ],
      "name": "walletMinted",
      "outputs": [
        {
          "internalType": "uint256",
          "name": "",
          "type": "uint256"
        }
      ],
      "stateMutability": "view",
      "type": "function"
    },
    {
      "inputs": [],
      "name": "withdraw",
      "outputs": [],
      "stateMutability": "nonpayable",
      "type": "function"
    }
  ],
  "bytecode": "0x61010060405260536080818152906200215360a03980516200002a91600a9160209091019062000158565b5060408051808201909152600580825264173539b7b760d91b60209092019182526200005991600b9162000158565b50600c805460ff191690553480156200007157600080fd5b50604080518082018252601481527f506f6b65636861696e20436f6c6c656374696f6e000000000000000000000000602080830191825283518085019094526004845263504f4b4560e01b908401528151919291620000d39160029162000158565b508051620000e990600390602084019062000158565b50506000805550620000fb3362000106565b60016009556200023a565b600880546001600160a01b038381166001600160a01b0319831681179093556040519116919082907f8be0079c531659141344cd1fd0a4f28419497f9722a3daafe3b4186f6b6457e090600090a35050565b8280546200016690620001fe565b90600052602060002090601f0160209004810192826200018a5760008555620001d5565b82601f10620001a557805160ff1916838001178555620001d5565b82800160010185558215620001d5579182015b82811115620001d5578251825591602001919060010190620001b8565b50620001e3929150620001e7565b5090565b5b80821115620001e35760008155600101620001e8565b600181811c908216806200021357607f821691505b6020821081036200023457634e487b7160e01b600052602260045260246000fd5b50919050565b611f09806200024a6000396000f3fe6080604052600436106101ee5760003560e01c806370a082311161010d578063b88d4fde116100a0578063d3738fc81161006f578063d3738fc81461052a578063da0239a61461054a578063da3ef23f1461055f578063e985e9c51461057f578063f2fde38b146105c857600080fd5b8063b88d4fde146104ba578063c002d23d146104da578063c6682862146104f5578063c87b56dd1461050a57600080fd5b806395d89b41116100dc57806395d89b41146104725780639a3d09981461032d578063a0712d6814610487578063a22cb4651461049a57600080fd5b806370a082311461040a578063715018a61461042a5780637d8966e41461043f5780638da5cb5b1461045457600080fd5b806332cb6b0c1161018557806355f804b31161015457806355f804b314610398578063564566a8146103b85780636352211e146103d057806368428a1b146103f057600080fd5b806332cb6b0c1461032d5780633ccfd60b1461034357806342842e0e1461035857806354ae524f1461037857600080fd5b80630f2cdd6c116101c15780630f2cdd6c146102a457806318160ddd146102c757806323b872dd146102e05780633150a1a91461030057600080fd5b806301ffc9a7146101f357806306fdde0314610228578063081812fc1461024a578063095ea7b314610282575b600080fd5b3480156101ff57600080fd5b5061021361020e366004611978565b6105e8565b60405190151581526020015b60405180910390f35b34801561023457600080fd5b5061023d61063a565b60405161021f91906119ed565b34801561025657600080fd5b5061026a610265366004611a00565b6106cc565b6040516001600160a01b03909116815260200161021f565b34801561028e57600080fd5b506102a261029d366004611a35565b610710565b005b3480156102b057600080fd5b506102b9603281565b60405190815260200161021f565b3480156102d357600080fd5b50600154600054036102b9565b3480156102ec57600080fd5b506102a26102fb366004611a5f565b6107e2565b34801561030c57600080fd5b506102b961031b366004611a00565b600d6020526000908152604090205481565b34801561033957600080fd5b506102b961040181565b34801561034f57600080fd5b506102a26107f2565b34801561036457600080fd5b506102a2610373366004611a5f565b610974565b34801561038457600080fd5b506102b9610393366004611a00565b61098f565b3480156103a457600080fd5b506102a26103b3366004611b27565b6109f0565b3480156103c457600080fd5b50600c5460ff16610213565b3480156103dc57600080fd5b5061026a6103eb366004611a00565b610a68565b3480156103fc57600080fd5b50600c546102139060ff1681565b34801561041657600080fd5b506102b9610425366004611b70565b610a73565b34801561043657600080fd5b506102a2610ac2565b34801561044b57600080fd5b506102a2610af6565b34801561046057600080fd5b506008546001600160a01b031661026a565b34801561047e57600080fd5b5061023d610b6d565b6102a2610495366004611a00565b610b7c565b3480156104a657600080fd5b506102a26104b5366004611b8b565b610ef0565b3480156104c657600080fd5b506102a26104d5366004611bc7565b610f85565b3480156104e657600080fd5b506102b9662386f26fc1000081565b34801561050157600080fd5b5061023d610fc9565b34801561051657600080fd5b5061023d610525366004611a00565b611057565b34801561053657600080fd5b506102b9610545366004611b70565b611134565b34801561055657600080fd5b506102b961115f565b34801561056b57600080fd5b506102a261057a366004611b27565b61117f565b34801561058b57600080fd5b5061021361059a366004611c43565b6001600160a01b03918216600090815260076020908152604080832093909416825291909152205460ff1690565b3480156105d457600080fd5b506102a26105e3366004611b70565b6111bc565b60006301ffc9a760e01b6001600160e01b03198316148061061957506380ac58cd60e01b6001600160e01b03198316145b806106345750635b5e139f60e01b6001600160e01b03198316145b92915050565b60606002805461064990611c76565b80601f016020809104026020016040519081016040528092919081815260200182805461067590611c76565b80156106c25780601f10610697576101008083540402835291602001916106c2565b820191906000526020600020905b8154815290600101906020018083116106a557829003601f168201915b5050505050905090565b60006106d782611257565b6106f4576040516333d1c03960e21b815260040160405180910390fd5b506000908152600660205260409020546001600160a01b031690565b600061071b8261127e565b9050806001600160a01b0316836001600160a01b03160361074f5760405163250fdee360e21b815260040160405180910390fd5b336001600160a01b0382161461078657610769813361059a565b610786576040516367d9dca160e11b815260040160405180910390fd5b60008281526006602052604080822080546001600160a01b0319166001600160a01b0387811691821790925591518593918516917f8c5be1e5ebec7d5bd14f71427d1e84f3dd0314c0f7b2291e5b200ac8c7c3b92591a4505050565b6107ed8383836112ec565b505050565b6008546001600160a01b031633146108255760405162461bcd60e51b815260040161081c90611cb0565b60405180910390fd5b61082d6114ad565b47806108725760405162461bcd60e51b81526020600482015260146024820152734e6f2066756e647320746f20776974686472617760601b604482015260640161081c565b60006108866008546001600160a01b031690565b6001600160a01b03168260405160006040518083038185875af1925050503d80600081146108d0576040519150601f19603f3d011682016040523d82523d6000602084013e6108d5565b606091505b50509050806109185760405162461bcd60e51b815260206004820152600f60248201526e15da5d1a191c985dc819985a5b1959608a1b604482015260640161081c565b6008546001600160a01b03166001600160a01b03167f7084f5476618d8e60b11ef0d7d3f06914655adb8793e28ff7f018d4c76d505d58360405161095e91815260200190565b60405180910390a250506109726001600955565b565b6107ed83838360405180602001604052806000815250610f85565b600061099a82611257565b6109dd5760405162461bcd60e51b8152602060048201526014602482015273151bdad95b88191bd95cc81b9bdd08195e1a5cdd60621b604482015260640161081c565b506000908152600d602052604090205490565b6008546001600160a01b03163314610a1a5760405162461bcd60e51b815260040161081c90611cb0565b8051610a2d90600a9060208401906118c9565b507f6741b2fc379fad678116fe3d4d4b9a1a184ab53ba36b86ad0fa66340b1ab41ad81604051610a5d91906119ed565b60405180910390a150565b60006106348261127e565b60006001600160a01b038216610a9c576040516323d3ad8160e21b815260040160405180910390fd5b506001600160a01b031660009081526005602052604090205467ffffffffffffffff1690565b6008546001600160a01b03163314610aec5760405162461bcd60e51b815260040161081c90611cb0565b6109726000611506565b6008546001600160a01b03163314610b205760405162461bcd60e51b815260040161081c90611cb0565b600c805460ff8082161560ff1990921682179092556040519116151581527f37ae8f893f8baa4aef207505c0e4d730119d73dc1363bbee6fda5f5d52c3cf179060200160405180910390a1565b60606003805461064990611c76565b600c5460ff16610bc35760405162461bcd60e51b815260206004820152601260248201527153616c65206973206e6f742061637469766560701b604482015260640161081c565b323314610c125760405162461bcd60e51b815260206004820152601a60248201527f43616c6c657220697320616e6f7468657220636f6e7472616374000000000000604482015260640161081c565b60008111610c625760405162461bcd60e51b815260206004820152601f60248201527f5175616e74697479206d7573742062652067726561746572207468616e203000604482015260640161081c565b61040181610c736001546000540390565b610c7d9190611cfb565b1115610cc05760405162461bcd60e51b815260206004820152601260248201527145786365656473206d617820737570706c7960701b604482015260640161081c565b336000908152600560205260409081902054603291610ceb9184911c67ffffffffffffffff16611cfb565b1115610d395760405162461bcd60e51b815260206004820152601a60248201527f457863656564732077616c6c6574206c696d6974206f66203530000000000000604482015260640161081c565b610d4a81662386f26fc10000611d13565b341015610d905760405162461bcd60e51b8152602060048201526014602482015273125b9cdd59999a58da595b9d081c185e5b595b9d60621b604482015260640161081c565b600054610d9d3383611558565b60005b82811015610e28576000610db48284611cfb565b90506000610dc18261164f565b6000838152600d60205260409081902082905551909150829033907f25b428dfde728ccfaddad7e29e4ac23c24ed7fd1a6e3e3f91894a9a073f5dfff90610e0b9085815260200190565b60405180910390a350508080610e2090611d32565b915050610da0565b50610e3a82662386f26fc10000611d13565b341115610eec576000610e5483662386f26fc10000611d13565b610e5e9034611d4b565b604051909150600090339083908381818185875af1925050503d8060008114610ea3576040519150601f19603f3d011682016040523d82523d6000602084013e610ea8565b606091505b5050905080610ee95760405162461bcd60e51b815260206004820152600d60248201526c1499599d5b990819985a5b1959609a1b604482015260640161081c565b50505b5050565b336001600160a01b03831603610f195760405163b06307db60e01b815260040160405180910390fd5b3360008181526007602090815260408083206001600160a01b03871680855290835292819020805460ff191686151590811790915590519081529192917f17307eab39ab6107e8899845ad3d59bd9653f200f220920489ca2b5937696c31910160405180910390a35050565b610f908484846112ec565b6001600160a01b0383163b15610ee957610fac848484846116ce565b610ee9576040516368d2bf6b60e11b815260040160405180910390fd5b600b8054610fd690611c76565b80601f016020809104026020016040519081016040528092919081815260200182805461100290611c76565b801561104f5780601f106110245761010080835404028352916020019161104f565b820191906000526020600020905b81548152906001019060200180831161103257829003601f168201915b505050505081565b606061106282611257565b6110c65760405162461bcd60e51b815260206004820152602f60248201527f4552433732314d657461646174613a2055524920717565727920666f72206e6f60448201526e3732bc34b9ba32b73a103a37b5b2b760891b606482015260840161081c565b6000828152600d6020526040812054906110de6117b9565b905060008151116110fe576040518060200160405280600081525061112c565b80611108836117c8565b600b60405160200161111c93929190611d62565b6040516020818303038152906040525b949350505050565b6001600160a01b0381166000908152600560205260408082205467ffffffffffffffff911c16610634565b600061116e6001546000540390565b61117a90610401611d4b565b905090565b6008546001600160a01b031633146111a95760405162461bcd60e51b815260040161081c90611cb0565b8051610eec90600b9060208401906118c9565b6008546001600160a01b031633146111e65760405162461bcd60e51b815260040161081c90611cb0565b6001600160a01b03811661124b5760405162461bcd60e51b815260206004820152602660248201527f4f776e61626c653a206e6577206f776e657220697320746865207a65726f206160448201526564647265737360d01b606482015260840161081c565b61125481611506565b50565b6000805482108015610634575050600090815260046020526040902054600160e01b161590565b6000816000548110156112d35760008181526004602052604081205490600160e01b821690036112d1575b806000036112ca5750600019016000818152600460205260409020546112a9565b9392505050565b505b604051636f96cda160e11b815260040160405180910390fd5b60006112f78261127e565b9050836001600160a01b0316816001600160a01b03161461132a5760405162a1148160e81b815260040160405180910390fd5b6000336001600160a01b03861614806113485750611348853361059a565b80611363575033611358846106cc565b6001600160a01b0316145b90508061138357604051632ce44b5f60e11b815260040160405180910390fd5b6001600160a01b0384166113aa57604051633a954ecd60e21b815260040160405180910390fd5b6113b78585856001610ee9565b600083815260066020908152604080832080546001600160a01b03191690556001600160a01b038881168452600583528184208054600019019055871683528083208054600101905585835260049091528120600160e11b4260a01b8717811790915583169003611458576001830160008181526004602052604081205490036114565760005481146114565760008181526004602052604090208390555b505b82846001600160a01b0316866001600160a01b03167fddf252ad1be2c89b69c2b068fc378daa952ba7f163c4a11628f55a4df523b3ef60405160405180910390a46114a68585856001610ee9565b5050505050565b6002600954036114ff5760405162461bcd60e51b815260206004820152601f60248201527f5265656e7472616e637947756172643a207265656e7472616e742063616c6c00604482015260640161081c565b6002600955565b600880546001600160a01b038381166001600160a01b0319831681179093556040519116919082907f8be0079c531659141344cd1fd0a4f28419497f9722a3daafe3b4186f6b6457e090600090a35050565b6000546001600160a01b03831661158157604051622e076360e81b815260040160405180910390fd5b816000036115a25760405163b562e8dd60e01b815260040160405180910390fd5b6115af6000848385610ee9565b6001600160a01b03831660009081526005602090815260408083208054680100000000000000018702019055838352600490915290204260a01b84176001841460e11b179055808083015b6040516001830192906001600160a01b038716906000907fddf252ad1be2c89b69c2b068fc378daa952ba7f163c4a11628f55a4df523b3ef908290a48082106115fa575060009081556107ed90848385610ee9565b600080424433856116636001546000540390565b6040805160208101969096528501939093526bffffffffffffffffffffffff19606092831b16918401919091526074830152609482015260b40160408051601f19818403018152919052805160209091012090506116c361040182611e3b565b6112ca906001611cfb565b604051630a85bd0160e11b81526000906001600160a01b0385169063150b7a0290611703903390899088908890600401611e4f565b6020604051808303816000875af192505050801561173e575060408051601f3d908101601f1916820190925261173b91810190611e8c565b60015b61179c573d80801561176c576040519150601f19603f3d011682016040523d82523d6000602084013e611771565b606091505b508051600003611794576040516368d2bf6b60e11b815260040160405180910390fd5b805181602001fd5b6001600160e01b031916630a85bd0160e11b149050949350505050565b6060600a805461064990611c76565b6060816000036117ef5750506040805180820190915260018152600360fc1b602082015290565b8160005b8115611819578061180381611d32565b91506118129050600a83611ea9565b91506117f3565b60008167ffffffffffffffff81111561183457611834611a9b565b6040519080825280601f01601f19166020018201604052801561185e576020820181803683370190505b5090505b841561112c57611873600183611d4b565b9150611880600a86611e3b565b61188b906030611cfb565b60f81b8183815181106118a0576118a0611ebd565b60200101906001600160f81b031916908160001a9053506118c2600a86611ea9565b9450611862565b8280546118d590611c76565b90600052602060002090601f0160209004810192826118f7576000855561193d565b82601f1061191057805160ff191683800117855561193d565b8280016001018555821561193d579182015b8281111561193d578251825591602001919060010190611922565b5061194992915061194d565b5090565b5b80821115611949576000815560010161194e565b6001600160e01b03198116811461125457600080fd5b60006020828403121561198a57600080fd5b81356112ca81611962565b60005b838110156119b0578181015183820152602001611998565b83811115610ee95750506000910152565b600081518084526119d9816020860160208601611995565b601f01601f19169290920160200192915050565b6020815260006112ca60208301846119c1565b600060208284031215611a1257600080fd5b5035919050565b80356001600160a01b0381168114611a3057600080fd5b919050565b60008060408385031215611a4857600080fd5b611a5183611a19565b946020939093013593505050565b600080600060608486031215611a7457600080fd5b611a7d84611a19565b9250611a8b60208501611a19565b9150604084013590509250925092565b634e487b7160e01b600052604160045260246000fd5b600067ffffffffffffffff80841115611acc57611acc611a9b565b604051601f8501601f19908116603f01168101908282118183101715611af457611af4611a9b565b81604052809350858152868686011115611b0d57600080fd5b858560208301376000602087830101525050509392505050565b600060208284031215611b3957600080fd5b813567ffffffffffffffff811115611b5057600080fd5b8201601f81018413611b6157600080fd5b61112c84823560208401611ab1565b600060208284031215611b8257600080fd5b6112ca82611a19565b60008060408385031215611b9e57600080fd5b611ba783611a19565b915060208301358015158114611bbc57600080fd5b809150509250929050565b60008060008060808587031215611bdd57600080fd5b611be685611a19565b9350611bf460208601611a19565b925060408501359150606085013567ffffffffffffffff811115611c1757600080fd5b8501601f81018713611c2857600080fd5b611c3787823560208401611ab1565b91505092959194509250565b60008060408385031215611c5657600080fd5b611c5f83611a19565b9150611c6d60208401611a19565b90509250929050565b600181811c90821680611c8a57607f821691505b602082108103611caa57634e487b7160e01b600052602260045260246000fd5b50919050565b6020808252818101527f4f776e61626c653a2063616c6c6572206973206e6f7420746865206f776e6572604082015260600190565b634e487b7160e01b600052601160045260246000fd5b60008219821115611d0e57611d0e611ce5565b500190565b6000816000190483118215151615611d2d57611d2d611ce5565b500290565b600060018201611d4457611d44611ce5565b5060010190565b600082821015611d5d57611d5d611ce5565b500390565b600084516020611d758285838a01611995565b855191840191611d888184848a01611995565b8554920191600090600181811c9080831680611da557607f831692505b8583108103611dc257634e487b7160e01b85526022600452602485fd5b808015611dd65760018114611de757611e14565b60ff19851688528388019550611e14565b60008b81526020902060005b85811015611e0c5781548a820152908401908801611df3565b505083880195505b50939b9a5050505050505050505050565b634e487b7160e01b600052601260045260246000fd5b600082611e4a57611e4a611e25565b500690565b6001600160a01b0385811682528416602082015260408101839052608060608201819052600090611e82908301846119c1565b9695505050505050565b600060208284031215611e9e57600080fd5b81516112ca81611962565b600082611eb857611eb8611e25565b500490565b634e487b7160e01b600052603260045260246000fdfea26469706673582212200daaa3c3a9bd6052be56867c53483782b18e1e43a18c8f3282a021ad07d39e9564736f6c634300080e003368747470733a2f2f62616679626569656e7a6a79616c6d3261786a6b33677837356d6372626a6a6a7632656a336a3567756f616564646a69666772796865757435376d2e697066732e647765622e6c696e6b2f",
  "linkReferences": {},
  "deployedLinkReferences": {}
}