{
  "_format": "hh-sol-artifact-1",
  "contractName": "PokechainNFT",
  "sourceName": "contracts/PokechainNFT.sol",
  "abi": [
    {
      "inputs": [],
      "stateMutability": "nonpayable",
      "type": "constructor"
    },
    {
      "inputs": [],
      "name": "ApprovalCallerNotOwnerNorApproved",
      "type": "error"
    },
    {
      "inputs": [],
      "name": "ApprovalQueryForNonexistentToken",
      "type": "error"
    },
    {
      "inputs": [],
      "name": "ApprovalToCurrentOwner",
      "type": "error"
    },
    {
      "inputs": [],
      "name": "ApproveToCaller",
      "type": "error"
    },
    {
      "inputs": [],
      "name": "BalanceQueryForZeroAddress",
      "type": "error"
    },
    {
      "inputs": [],
      "name": "MintToZeroAddress",
      "type": "error"
    },
    {
      "inputs": [],
      "name": "MintZeroQuantity",
      "type": "error"
    },
    {
      "inputs": [],
      "name": "OwnerQueryForNonexistentToken",
      "type": "error"
    },
    {
      "inputs": [],
      "name": "TransferCallerNotOwnerNorApproved",
      "type": "error"
    },
    {
      "inputs": [],
      "name": "TransferFromIncorrectOwner",
      "type": "error"
    },
    {
      "inputs": [],
      "name": "TransferToNonERC721ReceiverImplementer",
      "type": "error"
    },
    {
      "inputs": [],
      "name": "TransferToZeroAddress",
      "type": "error"
    },
    {
      "inputs": [],
      "name": "URIQueryForNonexistentToken",
      "type": "error"
    },
    {
      "anonymous": false,
      "inputs": [
        {
          "indexed": true,
          "internalType": "address",
          "name": "owner",
          "type": "address"
        },
        {
          "indexed": true,
          "internalType": "address",
          "name": "approved",
          "type": "address"
        },
        {
          "indexed": true,
          "internalType": "uint256",
          "name": "tokenId",
          "type": "uint256"
        }
      ],
      "name": "Approval",
      "type": "event"
    },
    {
      "anonymous": false,
      "inputs": [
        {
          "indexed": true,
          "internalType": "address",
          "name": "owner",
          "type": "address"
        },
        {
          "indexed": true,
          "internalType": "address",
          "name": "operator",
          "type": "address"
        },
        {
          "indexed": false,
          "internalType": "bool",
          "name": "approved",
          "type": "bool"
        }
      ],
      "name": "ApprovalForAll",
      "type": "event"
    },
    {
      "anonymous": false,
      "inputs": [
        {
          "indexed": false,
          "internalType": "string",
          "name": "newBaseURI",
          "type": "string"
        }
      ],
      "name": "BaseURIUpdated",
      "type": "event"
    },
    {
      "anonymous": false,
      "inputs": [
        {
          "indexed": true,
          "internalType": "address",
          "name": "to",
          "type": "address"
        },
        {
          "indexed": true,
          "internalType": "uint256",
          "name": "tokenId",
          "type": "uint256"
        },
        {
          "indexed": false,
          "internalType": "uint256",
          "name": "pokemonId",
          "type": "uint256"
        }
      ],
      "name": "Minted",
      "type": "event"
    },
    {
      "anonymous": false,
      "inputs": [
        {
          "indexed": true,
          "internalType": "address",
          "name": "previousOwner",
          "type": "address"
        },
        {
          "indexed": true,
          "internalType": "address",
          "name": "newOwner",
          "type": "address"
        }
      ],
      "name": "OwnershipTransferred",
      "type": "event"
    },
    {
      "anonymous": false,
      "inputs": [
        {
          "indexed": false,
          "internalType": "bool",
          "name": "isActive",
          "type": "bool"
        }
      ],
      "name": "SaleToggled",
      "type": "event"
    },
    {
      "anonymous": false,
      "inputs": [
        {
          "indexed": true,
          "internalType": "address",
          "name": "from",
          "type": "address"
        },
        {
          "indexed": true,
          "internalType": "address",
          "name": "to",
          "type": "address"
        },
        {
          "indexed": true,
          "internalType": "uint256",
          "name": "tokenId",
          "type": "uint256"
        }
      ],
      "name": "Transfer",
      "type": "event"
    },
    {
      "anonymous": false,
      "inputs": [
        {
          "indexed": true,
          "internalType": "address",
          "name": "to",
          "type": "address"
        },
        {
          "indexed": false,
          "internalType": "uint256",
          "name": "amount",
          "type": "uint256"
        }
      ],
      "name": "Withdrawn",
      "type": "event"
    },
    {
      "inputs": [],
      "name": "MAX_PER_WALLET",
      "outputs": [
        {
          "internalType": "uint256",
          "name": "",
          "type": "uint256"
        }
      ],
      "stateMutability": "view",
      "type": "function"
    },
    {
      "inputs": [],
      "name": "MAX_SUPPLY",
      "outputs": [
        {
          "internalType": "uint256",
          "name": "",
          "type": "uint256"
        }
      ],
      "stateMutability": "view",
      "type": "function"
    },
    {
      "inputs": [],
      "name": "MINT_PRICE",
      "outputs": [
        {
          "internalType": "uint256",
          "name": "",
          "type": "uint256"
        }
      ],
      "stateMutability": "view",
      "type": "function"
    },
    {
      "inputs": [],
      "name": "TOTAL_POKEMON",
      "outputs": [
        {
          "internalType": "uint256",
          "name": "",
          "type": "uint256"
        }
      ],
      "stateMutability": "view",
      "type": "function"
    },
    {
      "inputs": [
        {
          "internalType": "address",
          "name": "to",
          "type": "address"
        },
        {
          "internalType": "uint256",
          "name": "tokenId",
          "type": "uint256"
        }
      ],
      "name": "approve",
      "outputs": [],
      "stateMutability": "nonpayable",
      "type": "function"
    },
    {
      "inputs": [
        {
          "internalType": "address",
          "name": "owner",
          "type": "address"
        }
      ],
      "name": "balanceOf",
      "outputs": [
        {
          "internalType": "uint256",
          "name": "",
          "type": "uint256"
        }
      ],
      "stateMutability": "view",
      "type": "function"
    },
    {
      "inputs": [],
      "name": "baseExtension",
      "outputs": [
        {
          "internalType": "string",
          "name": "",
          "type": "string"
        }
      ],
      "stateMutability": "view",
      "type": "function"
    },
    {
      "inputs": [
        {
          "internalType": "uint256",
          "name": "tokenId",
          "type": "uint256"
        }
      ],
      "name": "getApproved",
      "outputs": [
        {
          "internalType": "address",
          "name": "",
          "type": "address"
        }
      ],
      "stateMutability": "view",
      "type": "function"
    },
    {
      "inputs": [
        {
          "internalType": "uint256",
          "name": "tokenId",
          "type": "uint256"
        }
      ],
      "name": "getPokemonId",
      "outputs": [
        {
          "internalType": "uint256",
          "name": "",
          "type": "uint256"
        }
      ],
      "stateMutability": "view",
      "type": "function"
    },
    {
      "inputs": [
        {
          "internalType": "address",
          "name": "owner",
          "type": "address"
        },
        {
          "internalType": "address",
          "name": "operator",
          "type": "address"
        }
      ],
      "name": "isApprovedForAll",
      "outputs": [
        {
          "internalType": "bool",
          "name": "",
          "type": "bool"
        }
      ],
      "stateMutability": "view",
      "type": "function"
    },
    {
      "inputs": [],
      "name": "isSaleActive",
      "outputs": [
        {
          "internalType": "bool",
          "name": "",
          "type": "bool"
        }
      ],
      "stateMutability": "view",
      "type": "function"
    },
    {
      "inputs": [
        {
          "internalType": "uint256",
          "name": "quantity",
          "type": "uint256"
        }
      ],
      "name": "mint",
      "outputs": [],
      "stateMutability": "payable",
      "type": "function"
    },
    {
      "inputs": [],
      "name": "name",
      "outputs": [
        {
          "internalType": "string",
          "name": "",
          "type": "string"
        }
      ],
      "stateMutability": "view",
      "type": "function"
    },
    {
      "inputs": [],
      "name": "owner",
      "outputs": [
        {
          "internalType": "address",
          "name": "",
          "type": "address"
        }
      ],
      "stateMutability": "view",
      "type": "function"
    },
    {
      "inputs": [
        {
          "internalType": "uint256",
          "name": "tokenId",
          "type": "uint256"
        }
      ],
      "name": "ownerOf",
      "outputs": [
        {
          "internalType": "address",
          "name": "",
          "type": "address"
        }
      ],
      "stateMutability": "view",
      "type": "function"
    },
    {
      "inputs": [],
      "name": "remainingSupply",
      "outputs": [
        {
          "internalType": "uint256",
          "name": "",
          "type": "uint256"
        }
      ],
      "stateMutability": "view",
      "type": "function"
    },
    {
      "inputs": [],
      "name": "renounceOwnership",
      "outputs": [],
      "stateMutability": "nonpayable",
      "type": "function"
    },
    {
      "inputs": [
        {
          "internalType": "address",
          "name": "from",
          "type": "address"
        },
        {
          "internalType": "address",
          "name": "to",
          "type": "address"
        },
        {
          "internalType": "uint256",
          "name": "tokenId",
          "type": "uint256"
        }
      ],
      "name": "safeTransferFrom",
      "outputs": [],
      "stateMutability": "nonpayable",
      "type": "function"
    },
    {
      "inputs": [
        {
          "internalType": "address",
          "name": "from",
          "type": "address"
        },
        {
          "internalType": "address",
          "name": "to",
          "type": "address"
        },
        {
          "internalType": "uint256",
          "name": "tokenId",
          "type": "uint256"
        },
        {
          "internalType": "bytes",
          "name": "_data",
          "type": "bytes"
        }
      ],
      "name": "safeTransferFrom",
      "outputs": [],
      "stateMutability": "nonpayable",
      "type": "function"
    },
    {
      "inputs": [],
      "name": "saleActive",
      "outputs": [
        {
          "internalType": "bool",
          "name": "",
          "type": "bool"
        }
      ],
      "stateMutability": "view",
      "type": "function"
    },
    {
      "inputs": [
        {
          "internalType": "address",
          "name": "operator",
          "type": "address"
        },
        {
          "internalType": "bool",
          "name": "approved",
          "type": "bool"
        }
      ],
      "name": "setApprovalForAll",
      "outputs": [],
      "stateMutability": "nonpayable",
      "type": "function"
    },
    {
      "inputs": [
        {
          "internalType": "string",
          "name": "_newExtension",
          "type": "string"
        }
      ],
      "name": "setBaseExtension",
      "outputs": [],
      "stateMutability": "nonpayable",
      "type": "function"
    },
    {
      "inputs": [
        {
          "internalType": "string",
          "name": "_newBaseURI",
          "type": "string"
        }
      ],
      "name": "setBaseURI",
      "outputs": [],
      "stateMutability": "nonpayable",
      "type": "function"
    },
    {
      "inputs": [
        {
          "internalType": "bytes4",
          "name": "interfaceId",
          "type": "bytes4"
        }
      ],
      "name": "supportsInterface",
      "outputs": [
        {
          "internalType": "bool",
          "name": "",
          "type": "bool"
        }
      ],
      "stateMutability": "view",
      "type": "function"
    },
    {
      "inputs": [],
      "name": "symbol",
      "outputs": [
        {
          "internalType": "string",
          "name": "",
          "type": "string"
        }
      ],
      "stateMutability": "view",
      "type": "function"
    },
    {
      "inputs": [],
      "name": "toggleSale",
      "outputs": [],
      "stateMutability": "nonpayable",
      "type": "function"
    },
    {
      "inputs": [
        {
          "internalType": "uint256",
          "name": "",
          "type": "uint256"
        }
      ],
      "name": "tokenToPokemonId",
      "outputs": [
        {
          "internalType": "uint256",
          "name": "",
          "type": "uint256"
        }
      ],
      "stateMutability": "view",
      "type": "function"
    },
    {
      "inputs": [
        {
          "internalType": "uint256",
          "name": "tokenId",
          "type": "uint256"
        }
      ],
      "name": "tokenURI",
      "outputs": [
        {
          "internalType": "string",
          "name": "",
          "type": "string"
        }
      ],
      "stateMutability": "view",
      "type": "function"
    },
    {
      "inputs": [],
      "name": "totalSupply",
      "outputs": [
        {
          "internalType": "uint256",
          "name": "",
          "type": "uint256"
        }
      ],
      "stateMutability": "view",
      "type": "function"
    },
    {
      "inputs": [
        {
          "internalType": "address",
          "name": "from",
          "type": "address"
        },
        {
          "internalType": "address",
          "name": "to",
          "type": "address"
        },
        {
          "internalType": "uint256",
          "name": "tokenId",
          "type": "uint256"
        }
      ],
      "name": "transferFrom",
      "outputs": [],
      "stateMutability": "nonpayable",
      "type": "function"
    },
    {
      "inputs": [
        {
          "internalType": "address",
          "name": "newOwner",
          "type": "address"
        }
      ],
      "name": "transferOwnership",
      "outputs": [],
      "stateMutability": "nonpayable",
      "type": "function"
    },
    {
      "inputs": [
        {
          "internalType": "address",
          "name": "wallet",
          "type": "address"
        }
      ],
      "name": "walletMinted",
      "outputs": [
        {
          "internalType": "uint256",
          "name": "",
          "type": "uint256"
        }
      ],
      "stateMutability": "view",
      "type": "function"
    },
    {
      "inputs": [],
      "name": "withdraw",
      "outputs": [],
      "stateMutability": "nonpayable",
      "type": "function"
    }
  ],
  "bytecode": "0x61010060405260536080818152906120f860a039600a9061002090826101d2565b50604080518082019091526005815264173539b7b760d91b6020820152600b9061004a90826101d2565b50600c805460ff19169055348015610060575f5ffd5b506040518060400160405280601481526020017f506f6b65636861696e20436f6c6c656374696f6e00000000000000000000000081525060405180604001604052806004815260200163504f4b4560e01b81525081600290816100c391906101d2565b5060036100d082826101d2565b50505f8055506100df336100e9565b600160095561028c565b600880546001600160a01b038381166001600160a01b0319831681179093556040519116919082907f8be0079c531659141344cd1fd0a4f28419497f9722a3daafe3b4186f6b6457e0905f90a35050565b634e487b7160e01b5f52604160045260245ffd5b600181811c9082168061016257607f821691505b60208210810361018057634e487b7160e01b5f52602260045260245ffd5b50919050565b601f8211156101cd57805f5260205f20601f840160051c810160208510156101ab5750805b601f840160051c820191505b818110156101ca575f81556001016101b7565b50505b505050565b81516001600160401b038111156101eb576101eb61013a565b6101ff816101f9845461014e565b84610186565b6020601f821160018114610231575f831561021a5750848201515b5f19600385901b1c1916600184901b1784556101ca565b5f84815260208120601f198516915b828110156102605787850151825560209485019460019092019101610240565b508482101561027d57868401515f19600387901b60f8161c191681555b50505050600190811b01905550565b611e5f806102995f395ff3fe6080604052600436106101e6575f3560e01c806370a0823111610108578063b88d4fde1161009d578063d3738fc81161006d578063d3738fc814610505578063da0239a614610524578063da3ef23f14610538578063e985e9c514610557578063f2fde38b14610576575f5ffd5b8063b88d4fde14610499578063c002d23d146104b8578063c6682862146104d2578063c87b56dd146104e6575f5ffd5b806395d89b41116100d857806395d89b41146104535780639a3d09981461031a578063a0712d6814610467578063a22cb4651461047a575f5ffd5b806370a08231146103ef578063715018a61461040e5780637d8966e4146104225780638da5cb5b14610436575f5ffd5b806332cb6b0c1161017e57806355f804b31161014e57806355f804b314610381578063564566a8146103a05780636352211e146103b757806368428a1b146103d6575f5ffd5b806332cb6b0c1461031a5780633ccfd60b1461032f57806342842e0e1461034357806354ae524f14610362575f5ffd5b80630f2cdd6c116101b95780630f2cdd6c1461029757806318160ddd146102b957806323b872dd146102d05780633150a1a9146102ef575f5ffd5b806301ffc9a7146101ea57806306fdde031461021e578063081812fc1461023f578063095ea7b314610276575b5f5ffd5b3480156101f5575f5ffd5b50610209610204366004611858565b610595565b60405190151581526020015b60405180910390f35b348015610229575f5ffd5b506102326105e6565b60405161021591906118a1565b34801561024a575f5ffd5b5061025e6102593660046118b3565b610676565b6040516001600160a01b039091168152602001610215565b348015610281575f5ffd5b506102956102903660046118e5565b6106b8565b005b3480156102a2575f5ffd5b506102ab603281565b604051908152602001610215565b3480156102c4575f5ffd5b506001545f54036102ab565b3480156102db575f5ffd5b506102956102ea36600461190d565b610788565b3480156102fa575f5ffd5b506102ab6103093660046118b3565b600d6020525f908152604090205481565b348015610325575f5ffd5b506102ab61040181565b34801561033a575f5ffd5b50610295610798565b34801561034e575f5ffd5b5061029561035d36600461190d565b610916565b34801561036d575f5ffd5b506102ab61037c3660046118b3565b610930565b34801561038c575f5ffd5b5061029561039b3660046119d2565b61098f565b3480156103ab575f5ffd5b50600c5460ff16610209565b3480156103c2575f5ffd5b5061025e6103d13660046118b3565b610a00565b3480156103e1575f5ffd5b50600c546102099060ff1681565b3480156103fa575f5ffd5b506102ab610409366004611a17565b610a0a565b348015610419575f5ffd5b50610295610a57565b34801561042d575f5ffd5b50610295610a8a565b348015610441575f5ffd5b506008546001600160a01b031661025e565b34801561045e575f5ffd5b50610232610b01565b6102956104753660046118b3565b610b10565b348015610485575f5ffd5b50610295610494366004611a30565b610e6d565b3480156104a4575f5ffd5b506102956104b3366004611a69565b610f01565b3480156104c3575f5ffd5b506102ab662386f26fc1000081565b3480156104dd575f5ffd5b50610232610f45565b3480156104f1575f5ffd5b506102326105003660046118b3565b610fd1565b348015610510575f5ffd5b506102ab61051f366004611a17565b6110ab565b34801561052f575f5ffd5b506102ab6110d5565b348015610543575f5ffd5b506102956105523660046119d2565b6110f3565b348015610562575f5ffd5b50610209610571366004611ae0565b611129565b348015610581575f5ffd5b50610295610590366004611a17565b611156565b5f6301ffc9a760e01b6001600160e01b0319831614806105c557506380ac58cd60e01b6001600160e01b03198316145b806105e05750635b5e139f60e01b6001600160e01b03198316145b92915050565b6060600280546105f590611b11565b80601f016020809104026020016040519081016040528092919081815260200182805461062190611b11565b801561066c5780601f106106435761010080835404028352916020019161066c565b820191905f5260205f20905b81548152906001019060200180831161064f57829003601f168201915b5050505050905090565b5f610680826111f1565b61069d576040516333d1c03960e21b815260040160405180910390fd5b505f908152600660205260409020546001600160a01b031690565b5f6106c282611216565b9050806001600160a01b0316836001600160a01b0316036106f65760405163250fdee360e21b815260040160405180910390fd5b336001600160a01b0382161461072d576107108133611129565b61072d576040516367d9dca160e11b815260040160405180910390fd5b5f8281526006602052604080822080546001600160a01b0319166001600160a01b0387811691821790925591518593918516917f8c5be1e5ebec7d5bd14f71427d1e84f3dd0314c0f7b2291e5b200ac8c7c3b92591a4505050565b61079383838361127e565b505050565b6008546001600160a01b031633146107cb5760405162461bcd60e51b81526004016107c290611b49565b60405180910390fd5b6107d3611438565b47806108185760405162461bcd60e51b81526020600482015260146024820152734e6f2066756e647320746f20776974686472617760601b60448201526064016107c2565b5f61082b6008546001600160a01b031690565b6001600160a01b0316826040515f6040518083038185875af1925050503d805f8114610872576040519150601f19603f3d011682016040523d82523d5f602084013e610877565b606091505b50509050806108ba5760405162461bcd60e51b815260206004820152600f60248201526e15da5d1a191c985dc819985a5b1959608a1b60448201526064016107c2565b6008546001600160a01b03166001600160a01b03167f7084f5476618d8e60b11ef0d7d3f06914655adb8793e28ff7f018d4c76d505d58360405161090091815260200190565b60405180910390a250506109146001600955565b565b61079383838360405180602001604052805f815250610f01565b5f61093a826111f1565b61097d5760405162461bcd60e51b8152602060048201526014602482015273151bdad95b88191bd95cc81b9bdd08195e1a5cdd60621b60448201526064016107c2565b505f908152600d602052604090205490565b6008546001600160a01b031633146109b95760405162461bcd60e51b81526004016107c290611b49565b600a6109c58282611bc2565b507f6741b2fc379fad678116fe3d4d4b9a1a184ab53ba36b86ad0fa66340b1ab41ad816040516109f591906118a1565b60405180910390a150565b5f6105e082611216565b5f6001600160a01b038216610a32576040516323d3ad8160e21b815260040160405180910390fd5b506001600160a01b03165f9081526005602052604090205467ffffffffffffffff1690565b6008546001600160a01b03163314610a815760405162461bcd60e51b81526004016107c290611b49565b6109145f611491565b6008546001600160a01b03163314610ab45760405162461bcd60e51b81526004016107c290611b49565b600c805460ff8082161560ff1990921682179092556040519116151581527f37ae8f893f8baa4aef207505c0e4d730119d73dc1363bbee6fda5f5d52c3cf179060200160405180910390a1565b6060600380546105f590611b11565b600c5460ff16610b575760405162461bcd60e51b815260206004820152601260248201527153616c65206973206e6f742061637469766560701b60448201526064016107c2565b323314610ba65760405162461bcd60e51b815260206004820152601a60248201527f43616c6c657220697320616e6f7468657220636f6e747261637400000000000060448201526064016107c2565b5f8111610bf55760405162461bcd60e51b815260206004820152601f60248201527f5175616e74697479206d7573742062652067726561746572207468616e20300060448201526064016107c2565b61040181610c056001545f540390565b610c0f9190611c91565b1115610c525760405162461bcd60e51b815260206004820152601260248201527145786365656473206d617820737570706c7960701b60448201526064016107c2565b335f908152600560205260409081902054603291610c7c9184911c67ffffffffffffffff16611c91565b1115610cca5760405162461bcd60e51b815260206004820152601a60248201527f457863656564732077616c6c6574206c696d6974206f6620353000000000000060448201526064016107c2565b610cdb81662386f26fc10000611ca4565b341015610d215760405162461bcd60e51b8152602060048201526014602482015273125b9cdd59999a58da595b9d081c185e5b595b9d60621b60448201526064016107c2565b5f54610d2d33836114e2565b5f5b82811015610da9575f610d428284611c91565b90505f610d4e826115d3565b5f838152600d60205260409081902082905551909150829033907f25b428dfde728ccfaddad7e29e4ac23c24ed7fd1a6e3e3f91894a9a073f5dfff90610d979085815260200190565b60405180910390a35050600101610d2f565b50610dbb82662386f26fc10000611ca4565b341115610e69575f610dd483662386f26fc10000611ca4565b610dde9034611cbb565b6040519091505f90339083908381818185875af1925050503d805f8114610e20576040519150601f19603f3d011682016040523d82523d5f602084013e610e25565b606091505b5050905080610e665760405162461bcd60e51b815260206004820152600d60248201526c1499599d5b990819985a5b1959609a1b60448201526064016107c2565b50505b5050565b336001600160a01b03831603610e965760405163b06307db60e01b815260040160405180910390fd5b335f8181526007602090815260408083206001600160a01b03871680855290835292819020805460ff191686151590811790915590519081529192917f17307eab39ab6107e8899845ad3d59bd9653f200f220920489ca2b5937696c31910160405180910390a35050565b610f0c84848461127e565b6001600160a01b0383163b15610e6657610f2884848484611650565b610e66576040516368d2bf6b60e11b815260040160405180910390fd5b600b8054610f5290611b11565b80601f0160208091040260200160405190810160405280929190818152602001828054610f7e90611b11565b8015610fc95780601f10610fa057610100808354040283529160200191610fc9565b820191905f5260205f20905b815481529060010190602001808311610fac57829003601f168201915b505050505081565b6060610fdc826111f1565b6110405760405162461bcd60e51b815260206004820152602f60248201527f4552433732314d657461646174613a2055524920717565727920666f72206e6f60448201526e3732bc34b9ba32b73a103a37b5b2b760891b60648201526084016107c2565b5f828152600d602052604081205490611057611737565b90505f8151116110755760405180602001604052805f8152506110a3565b8061107f83611746565b600b60405160200161109393929190611ce5565b6040516020818303038152906040525b949350505050565b6001600160a01b0381165f908152600560205260408082205467ffffffffffffffff911c166105e0565b5f6110e26001545f540390565b6110ee90610401611cbb565b905090565b6008546001600160a01b0316331461111d5760405162461bcd60e51b81526004016107c290611b49565b600b610e698282611bc2565b6001600160a01b039182165f90815260076020908152604080832093909416825291909152205460ff1690565b6008546001600160a01b031633146111805760405162461bcd60e51b81526004016107c290611b49565b6001600160a01b0381166111e55760405162461bcd60e51b815260206004820152602660248201527f4f776e61626c653a206e6577206f776e657220697320746865207a65726f206160448201526564647265737360d01b60648201526084016107c2565b6111ee81611491565b50565b5f5f54821080156105e05750505f90815260046020526040902054600160e01b161590565b5f815f54811015611265575f8181526004602052604081205490600160e01b82169003611263575b805f0361125c57505f19015f8181526004602052604090205461123e565b9392505050565b505b604051636f96cda160e11b815260040160405180910390fd5b5f61128882611216565b9050836001600160a01b0316816001600160a01b0316146112bb5760405162a1148160e81b815260040160405180910390fd5b5f336001600160a01b03861614806112d857506112d88533611129565b806112f35750336112e884610676565b6001600160a01b0316145b90508061131357604051632ce44b5f60e11b815260040160405180910390fd5b6001600160a01b03841661133a57604051633a954ecd60e21b815260040160405180910390fd5b6113478585856001610e66565b5f83815260066020908152604080832080546001600160a01b03191690556001600160a01b0388811684526005835281842080545f19019055871683528083208054600101905585835260049091528120600160e11b4260a01b87178117909155831690036113e357600183015f8181526004602052604081205490036113e1575f5481146113e1575f8181526004602052604090208390555b505b82846001600160a01b0316866001600160a01b03167fddf252ad1be2c89b69c2b068fc378daa952ba7f163c4a11628f55a4df523b3ef60405160405180910390a46114318585856001610e66565b5050505050565b60026009540361148a5760405162461bcd60e51b815260206004820152601f60248201527f5265656e7472616e637947756172643a207265656e7472616e742063616c6c0060448201526064016107c2565b6002600955565b600880546001600160a01b038381166001600160a01b0319831681179093556040519116919082907f8be0079c531659141344cd1fd0a4f28419497f9722a3daafe3b4186f6b6457e0905f90a35050565b5f546001600160a01b03831661150a57604051622e076360e81b815260040160405180910390fd5b815f0361152a5760405163b562e8dd60e01b815260040160405180910390fd5b6115365f848385610e66565b6001600160a01b0383165f9081526005602090815260408083208054680100000000000000018702019055838352600490915290204260a01b84176001841460e11b179055808083015b6040516001830192906001600160a01b038716905f907fddf252ad1be2c89b69c2b068fc378daa952ba7f163c4a11628f55a4df523b3ef908290a480821061158057505f90815561079390848385610e66565b5f5f424433856115e56001545f540390565b6040805160208101969096528501939093526bffffffffffffffffffffffff19606092831b16918401919091526074830152609482015260b40160408051601f198184030181529190528051602090910120905061164561040182611d80565b61125c906001611c91565b604051630a85bd0160e11b81525f906001600160a01b0385169063150b7a0290611684903390899088908890600401611d93565b6020604051808303815f875af19250505080156116be575060408051601f3d908101601f191682019092526116bb91810190611dcf565b60015b61171a573d8080156116eb576040519150601f19603f3d011682016040523d82523d5f602084013e6116f0565b606091505b5080515f03611712576040516368d2bf6b60e11b815260040160405180910390fd5b805181602001fd5b6001600160e01b031916630a85bd0160e11b149050949350505050565b6060600a80546105f590611b11565b6060815f0361176c5750506040805180820190915260018152600360fc1b602082015290565b815f5b8115611795578061177f81611dea565b915061178e9050600a83611e02565b915061176f565b5f8167ffffffffffffffff8111156117af576117af611947565b6040519080825280601f01601f1916602001820160405280156117d9576020820181803683370190505b5090505b84156110a3576117ee600183611cbb565b91506117fb600a86611d80565b611806906030611c91565b60f81b81838151811061181b5761181b611e15565b60200101906001600160f81b03191690815f1a90535061183c600a86611e02565b94506117dd565b6001600160e01b0319811681146111ee575f5ffd5b5f60208284031215611868575f5ffd5b813561125c81611843565b5f81518084528060208401602086015e5f602082860101526020601f19601f83011685010191505092915050565b602081525f61125c6020830184611873565b5f602082840312156118c3575f5ffd5b5035919050565b80356001600160a01b03811681146118e0575f5ffd5b919050565b5f5f604083850312156118f6575f5ffd5b6118ff836118ca565b946020939093013593505050565b5f5f5f6060848603121561191f575f5ffd5b611928846118ca565b9250611936602085016118ca565b929592945050506040919091013590565b634e487b7160e01b5f52604160045260245ffd5b5f5f67ffffffffffffffff84111561197557611975611947565b50604051601f19601f85018116603f0116810181811067ffffffffffffffff821117156119a4576119a4611947565b6040528381529050808284018510156119bb575f5ffd5b838360208301375f60208583010152509392505050565b5f602082840312156119e2575f5ffd5b813567ffffffffffffffff8111156119f8575f5ffd5b8201601f81018413611a08575f5ffd5b6110a38482356020840161195b565b5f60208284031215611a27575f5ffd5b61125c826118ca565b5f5f60408385031215611a41575f5ffd5b611a4a836118ca565b915060208301358015158114611a5e575f5ffd5b809150509250929050565b5f5f5f5f60808587031215611a7c575f5ffd5b611a85856118ca565b9350611a93602086016118ca565b925060408501359150606085013567ffffffffffffffff811115611ab5575f5ffd5b8501601f81018713611ac5575f5ffd5b611ad48782356020840161195b565b91505092959194509250565b5f5f60408385031215611af1575f5ffd5b611afa836118ca565b9150611b08602084016118ca565b90509250929050565b600181811c90821680611b2557607f821691505b602082108103611b4357634e487b7160e01b5f52602260045260245ffd5b50919050565b6020808252818101527f4f776e61626c653a2063616c6c6572206973206e6f7420746865206f776e6572604082015260600190565b601f82111561079357805f5260205f20601f840160051c81016020851015611ba35750805b601f840160051c820191505b81811015611431575f8155600101611baf565b815167ffffffffffffffff811115611bdc57611bdc611947565b611bf081611bea8454611b11565b84611b7e565b6020601f821160018114611c22575f8315611c0b5750848201515b5f19600385901b1c1916600184901b178455611431565b5f84815260208120601f198516915b82811015611c515787850151825560209485019460019092019101611c31565b5084821015611c6e57868401515f19600387901b60f8161c191681555b50505050600190811b01905550565b634e487b7160e01b5f52601160045260245ffd5b808201808211156105e0576105e0611c7d565b80820281158282048414176105e0576105e0611c7d565b818103818111156105e0576105e0611c7d565b5f81518060208401855e5f93019283525090919050565b5f611cf9611cf38387611cce565b85611cce565b5f8454611d0581611b11565b600182168015611d1c5760018114611d3157611d5e565b60ff1983168552811515820285019350611d5e565b875f5260205f205f5b83811015611d5657815487820152600190910190602001611d3a565b505081850193505b509198975050505050505050565b634e487b7160e01b5f52601260045260245ffd5b5f82611d8e57611d8e611d6c565b500690565b6001600160a01b03858116825284166020820152604081018390526080606082018190525f90611dc590830184611873565b9695505050505050565b5f60208284031215611ddf575f5ffd5b815161125c81611843565b5f60018201611dfb57611dfb611c7d565b5060010190565b5f82611e1057611e10611d6c565b500490565b634e487b7160e01b5f52603260045260245ffdfea26469706673582212207c82e8629d58050e61d39ef7731fc6cf14e608f0d852cf10d2aba64ba600354564736f6c634300081c003368747470733a2f2f62616679626569656e7a6a79616c6d3261786a6b33677837356d6372626a6a6a7632656a336a3567756f616564646a69666772796865757435376d2e697066732e647765622e6c696e6b2f",
  "linkReferences": {},
  "deployedLinkReferences": {}
}