{
  "_format": "hh-sol-artifact-1",
  "contractName": "PokechainMarketplace",
  "sourceName": "contracts/PokechainMarketplace.sol",
  "abi": [
    {
      "inputs": [
        {
          "internalType": "address",
          "name": "_nftContract",
          "type": "address"
        }
      ],
      "stateMutability": "nonpayable",
      "type": "constructor"
    },
    {
      "anonymous": false,
      "inputs": [
        {
          "indexed": true,
          "internalType": "uint256",
          "name": "tokenId",
          "type": "uint256"
        }
      ],
      "name": "AuctionCancelled",
      "type": "event"
    },
    {
      "anonymous": false,
      "inputs": [
        {
          "indexed": true,
          "internalType": "uint256",
          "name": "tokenId",
          "type": "uint256"
        },
        {
          "indexed": true,
          "internalType": "address",
          "name": "seller",
          "type": "address"
        },
        {
          "indexed": false,
          "internalType": "uint256",
          "name": "startingPrice",
          "type": "uint256"
        },
        {
          "indexed": false,
          "internalType": "uint256",
          "name": "endTime",
          "type": "uint256"
        }
      ],
      "name": "AuctionCreated",
      "type": "event"
    },
    {
      "anonymous": false,
      "inputs": [
        {
          "indexed": true,
          "internalType": "uint256",
          "name": "tokenId",
          "type": "uint256"
        },
        {
          "indexed": false,
          "internalType": "address",
          "name": "winner",
          "type": "address"
        },
        {
          "indexed": false,
          "internalType": "uint256",
          "name": "amount",
          "type": "uint256"
        }
      ],
      "name": "AuctionEnded",
      "type": "event"
    },
    {
      "anonymous": false,
      "inputs": [
        {
          "indexed": true,
          "internalType": "uint256",
          "name": "tokenId",
          "type": "uint256"
        },
        {
          "indexed": true,
          "internalType": "address",
          "name": "bidder",
          "type": "address"
        },
        {
          "indexed": false,
          "internalType": "uint256",
          "name": "amount",
          "type": "uint256"
        }
      ],
      "name": "BidPlaced",
      "type": "event"
    },
    {
      "anonymous": false,
      "inputs": [
        {
          "indexed": true,
          "internalType": "address",
          "name": "user",
          "type": "address"
        },
        {
          "indexed": false,
          "internalType": "uint256",
          "name": "amount",
          "type": "uint256"
        }
      ],
      "name": "FundsWithdrawn",
      "type": "event"
    },
    {
      "anonymous": false,
      "inputs": [
        {
          "indexed": true,
          "internalType": "uint256",
          "name": "tokenId",
          "type": "uint256"
        },
        {
          "indexed": true,
          "internalType": "address",
          "name": "seller",
          "type": "address"
        },
        {
          "indexed": false,
          "internalType": "uint256",
          "name": "price",
          "type": "uint256"
        }
      ],
      "name": "ItemListed",
      "type": "event"
    },
    {
      "anonymous": false,
      "inputs": [
        {
          "indexed": true,
          "internalType": "uint256",
          "name": "tokenId",
          "type": "uint256"
        },
        {
          "indexed": true,
          "internalType": "address",
          "name": "seller",
          "type": "address"
        },
        {
          "indexed": true,
          "internalType": "address",
          "name": "buyer",
          "type": "address"
        },
        {
          "indexed": false,
          "internalType": "uint256",
          "name": "price",
          "type": "uint256"
        }
      ],
      "name": "ItemSold",
      "type": "event"
    },
    {
      "anonymous": false,
      "inputs": [
        {
          "indexed": true,
          "internalType": "uint256",
          "name": "tokenId",
          "type": "uint256"
        }
      ],
      "name": "ListingCancelled",
      "type": "event"
    },
    {
      "anonymous": false,
      "inputs": [
        {
          "indexed": true,
          "internalType": "uint256",
          "name": "tokenId",
          "type": "uint256"
        },
        {
          "indexed": false,
          "internalType": "uint256",
          "name": "newPrice",
          "type": "uint256"
        }
      ],
      "name": "ListingUpdated",
      "type": "event"
    },
    {
      "anonymous": false,
      "inputs": [
        {
          "indexed": false,
          "internalType": "bool",
          "name": "isPaused",
          "type": "bool"
        }
      ],
      "name": "MarketplacePaused",
      "type": "event"
    },
    {
      "anonymous": false,
      "inputs": [
        {
          "indexed": true,
          "internalType": "address",
          "name": "previousOwner",
          "type": "address"
        },
        {
          "indexed": true,
          "internalType": "address",
          "name": "newOwner",
          "type": "address"
        }
      ],
      "name": "OwnershipTransferred",
      "type": "event"
    },
    {
      "anonymous": false,
      "inputs": [
        {
          "indexed": false,
          "internalType": "uint256",
          "name": "newFeeBps",
          "type": "uint256"
        }
      ],
      "name": "PlatformFeeUpdated",
      "type": "event"
    },
    {
      "inputs": [],
      "name": "MAX_FEE_BPS",
      "outputs": [
        {
          "internalType": "uint256",
          "name": "",
          "type": "uint256"
        }
      ],
      "stateMutability": "view",
      "type": "function"
    },
    {
      "inputs": [],
      "name": "accumulatedFees",
      "outputs": [
        {
          "internalType": "uint256",
          "name": "",
          "type": "uint256"
        }
      ],
      "stateMutability": "view",
      "type": "function"
    },
    {
      "inputs": [
        {
          "internalType": "uint256",
          "name": "",
          "type": "uint256"
        }
      ],
      "name": "auctions",
      "outputs": [
        {
          "internalType": "address",
          "name": "seller",
          "type": "address"
        },
        {
          "internalType": "uint256",
          "name": "startingPrice",
          "type": "uint256"
        },
        {
          "internalType": "uint256",
          "name": "highestBid",
          "type": "uint256"
        },
        {
          "internalType": "address",
          "name": "highestBidder",
          "type": "address"
        },
        {
          "internalType": "uint256",
          "name": "endTime",
          "type": "uint256"
        },
        {
          "internalType": "bool",
          "name": "active",
          "type": "bool"
        },
        {
          "internalType": "bool",
          "name": "settled",
          "type": "bool"
        }
      ],
      "stateMutability": "view",
      "type": "function"
    },
    {
      "inputs": [
        {
          "internalType": "uint256",
          "name": "tokenId",
          "type": "uint256"
        }
      ],
      "name": "buyItem",
      "outputs": [],
      "stateMutability": "payable",
      "type": "function"
    },
    {
      "inputs": [
        {
          "internalType": "uint256",
          "name": "tokenId",
          "type": "uint256"
        }
      ],
      "name": "cancelAuction",
      "outputs": [],
      "stateMutability": "nonpayable",
      "type": "function"
    },
    {
      "inputs": [
        {
          "internalType": "uint256",
          "name": "tokenId",
          "type": "uint256"
        }
      ],
      "name": "cancelListing",
      "outputs": [],
      "stateMutability": "nonpayable",
      "type": "function"
    },
    {
      "inputs": [
        {
          "internalType": "uint256",
          "name": "tokenId",
          "type": "uint256"
        },
        {
          "internalType": "uint256",
          "name": "startingPrice",
          "type": "uint256"
        },
        {
          "internalType": "uint256",
          "name": "duration",
          "type": "uint256"
        }
      ],
      "name": "createAuction",
      "outputs": [],
      "stateMutability": "nonpayable",
      "type": "function"
    },
    {
      "inputs": [
        {
          "internalType": "uint256",
          "name": "tokenId",
          "type": "uint256"
        }
      ],
      "name": "endAuction",
      "outputs": [],
      "stateMutability": "nonpayable",
      "type": "function"
    },
    {
      "inputs": [
        {
          "internalType": "uint256",
          "name": "tokenId",
          "type": "uint256"
        }
      ],
      "name": "getAuction",
      "outputs": [
        {
          "components": [
            {
              "internalType": "address",
              "name": "seller",
              "type": "address"
            },
            {
              "internalType": "uint256",
              "name": "startingPrice",
              "type": "uint256"
            },
            {
              "internalType": "uint256",
              "name": "highestBid",
              "type": "uint256"
            },
            {
              "internalType": "address",
              "name": "highestBidder",
              "type": "address"
            },
            {
              "internalType": "uint256",
              "name": "endTime",
              "type": "uint256"
            },
            {
              "internalType": "bool",
              "name": "active",
              "type": "bool"
            },
            {
              "internalType": "bool",
              "name": "settled",
              "type": "bool"
            }
          ],
          "internalType": "struct PokechainMarketplace.Auction",
          "name": "",
          "type": "tuple"
        }
      ],
      "stateMutability": "view",
      "type": "function"
    },
    {
      "inputs": [
        {
          "internalType": "uint256",
          "name": "tokenId",
          "type": "uint256"
        }
      ],
      "name": "getListing",
      "outputs": [
        {
          "components": [
            {
              "internalType": "address",
              "name": "seller",
              "type": "address"
            },
            {
              "internalType": "uint256",
              "name": "price",
              "type": "uint256"
            },
            {
              "internalType": "bool",
              "name": "active",
              "type": "bool"
            }
          ],
          "internalType": "struct PokechainMarketplace.Listing",
          "name": "",
          "type": "tuple"
        }
      ],
      "stateMutability": "view",
      "type": "function"
    },
    {
      "inputs": [
        {
          "internalType": "address",
          "name": "user",
          "type": "address"
        }
      ],
      "name": "getPendingReturns",
      "outputs": [
        {
          "internalType": "uint256",
          "name": "",
          "type": "uint256"
        }
      ],
      "stateMutability": "view",
      "type": "function"
    },
    {
      "inputs": [
        {
          "internalType": "uint256",
          "name": "tokenId",
          "type": "uint256"
        }
      ],
      "name": "getTokenStatus",
      "outputs": [
        {
          "internalType": "enum PokechainMarketplace.TokenStatus",
          "name": "status",
          "type": "uint8"
        },
        {
          "internalType": "uint256",
          "name": "price",
          "type": "uint256"
        },
        {
          "internalType": "address",
          "name": "seller",
          "type": "address"
        },
        {
          "internalType": "uint256",
          "name": "endTime",
          "type": "uint256"
        }
      ],
      "stateMutability": "view",
      "type": "function"
    },
    {
      "inputs": [
        {
          "internalType": "uint256",
          "name": "tokenId",
          "type": "uint256"
        }
      ],
      "name": "isInAuction",
      "outputs": [
        {
          "internalType": "bool",
          "name": "",
          "type": "bool"
        }
      ],
      "stateMutability": "view",
      "type": "function"
    },
    {
      "inputs": [
        {
          "internalType": "uint256",
          "name": "tokenId",
          "type": "uint256"
        }
      ],
      "name": "isListed",
      "outputs": [
        {
          "internalType": "bool",
          "name": "",
          "type": "bool"
        }
      ],
      "stateMutability": "view",
      "type": "function"
    },
    {
      "inputs": [
        {
          "internalType": "uint256",
          "name": "tokenId",
          "type": "uint256"
        },
        {
          "internalType": "uint256",
          "name": "price",
          "type": "uint256"
        }
      ],
      "name": "listItem",
      "outputs": [],
      "stateMutability": "nonpayable",
      "type": "function"
    },
    {
      "inputs": [
        {
          "internalType": "uint256",
          "name": "",
          "type": "uint256"
        }
      ],
      "name": "listings",
      "outputs": [
        {
          "internalType": "address",
          "name": "seller",
          "type": "address"
        },
        {
          "internalType": "uint256",
          "name": "price",
          "type": "uint256"
        },
        {
          "internalType": "bool",
          "name": "active",
          "type": "bool"
        }
      ],
      "stateMutability": "view",
      "type": "function"
    },
    {
      "inputs": [],
      "name": "nftContract",
      "outputs": [
        {
          "internalType": "contract IERC721",
          "name": "",
          "type": "address"
        }
      ],
      "stateMutability": "view",
      "type": "function"
    },
    {
      "inputs": [],
      "name": "owner",
      "outputs": [
        {
          "internalType": "address",
          "name": "",
          "type": "address"
        }
      ],
      "stateMutability": "view",
      "type": "function"
    },
    {
      "inputs": [],
      "name": "paused",
      "outputs": [
        {
          "internalType": "bool",
          "name": "",
          "type": "bool"
        }
      ],
      "stateMutability": "view",
      "type": "function"
    },
    {
      "inputs": [
        {
          "internalType": "address",
          "name": "",
          "type": "address"
        }
      ],
      "name": "pendingReturns",
      "outputs": [
        {
          "internalType": "uint256",
          "name": "",
          "type": "uint256"
        }
      ],
      "stateMutability": "view",
      "type": "function"
    },
    {
      "inputs": [
        {
          "internalType": "uint256",
          "name": "tokenId",
          "type": "uint256"
        }
      ],
      "name": "placeBid",
      "outputs": [],
      "stateMutability": "payable",
      "type": "function"
    },
    {
      "inputs": [],
      "name": "platformFeeBps",
      "outputs": [
        {
          "internalType": "uint256",
          "name": "",
          "type": "uint256"
        }
      ],
      "stateMutability": "view",
      "type": "function"
    },
    {
      "inputs": [],
      "name": "renounceOwnership",
      "outputs": [],
      "stateMutability": "nonpayable",
      "type": "function"
    },
    {
      "inputs": [
        {
          "internalType": "uint256",
          "name": "newFeeBps",
          "type": "uint256"
        }
      ],
      "name": "setPlatformFee",
      "outputs": [],
      "stateMutability": "nonpayable",
      "type": "function"
    },
    {
      "inputs": [],
      "name": "togglePause",
      "outputs": [],
      "stateMutability": "nonpayable",
      "type": "function"
    },
    {
      "inputs": [
        {
          "internalType": "address",
          "name": "newOwner",
          "type": "address"
        }
      ],
      "name": "transferOwnership",
      "outputs": [],
      "stateMutability": "nonpayable",
      "type": "function"
    },
    {
      "inputs": [
        {
          "internalType": "uint256",
          "name": "tokenId",
          "type": "uint256"
        },
        {
          "internalType": "uint256",
          "name": "newPrice",
          "type": "uint256"
        }
      ],
      "name": "updateListing",
      "outputs": [],
      "stateMutability": "nonpayable",
      "type": "function"
    },
    {
      "inputs": [],
      "name": "withdraw",
      "outputs": [],
      "stateMutability": "nonpayable",
      "type": "function"
    },
    {
      "inputs": [],
      "name": "withdrawFees",
      "outputs": [],
      "stateMutability": "nonpayable",
      "type": "function"
    }
  ],
  "bytecode": "0x60a060405260fa6002556004805460ff191690553480156200002057600080fd5b506040516200288438038062002884833981016040819052620000439162000112565b60016000556200005333620000c0565b6001600160a01b038116620000ae5760405162461bcd60e51b815260206004820152601c60248201527f496e76616c6964204e465420636f6e7472616374206164647265737300000000604482015260640160405180910390fd5b6001600160a01b031660805262000144565b600180546001600160a01b038381166001600160a01b0319831681179093556040519116919082907f8be0079c531659141344cd1fd0a4f28419497f9722a3daafe3b4186f6b6457e090600090a35050565b6000602082840312156200012557600080fd5b81516001600160a01b03811681146200013d57600080fd5b9392505050565b6080516126ec620001986000396000818161071901528181610e7001528181610f4101528181610fd7015281816117c701528181611bd501528181611ca601528181611d3c01526120f401526126ec6000f3fe6080604052600436106101c25760003560e01c8063883efa67116100f7578063c4ae316811610095578063de74e57b11610064578063de74e57b1461073b578063e7fb74c7146107ab578063f2fde38b146107be578063fcce4883146107de57600080fd5b8063c4ae3168146106bc578063cda4beef146106d1578063d55be8c6146106f1578063d56d229d1461070757600080fd5b806396b5a755116100d157806396b5a755146106365780639979ef4514610656578063b9a2de3a14610669578063c3c5efaf1461068957600080fd5b8063883efa67146105b45780638da5cb5b146105d45780638f07c2b41461060657600080fd5b8063476343ee116101645780635c975abb1161013e5780635c975abb1461040e578063715018a61461043857806378bd79351461044d57806383ffda3b1461057e57600080fd5b8063476343ee14610335578063571a26a01461034a578063587f5ed7146103f857600080fd5b806322dcd13e116101a057806322dcd13e146102af57806326b387bb146102d3578063305a67a8146103005780633ccfd60b1461032057600080fd5b80630179ea88146101c7578063107a274a146101e957806312e8e2c31461028f575b600080fd5b3480156101d357600080fd5b506101e76101e236600461242e565b610811565b005b3480156101f557600080fd5b5061025d610204366004612450565b60408051606080820183526000808352602080840182905292840181905293845260058252928290208251938401835280546001600160a01b031684526001810154918401919091526002015460ff1615159082015290565b6040805182516001600160a01b0316815260208084015190820152918101511515908201526060015b60405180910390f35b34801561029b57600080fd5b506101e76102aa366004612450565b610906565b3480156102bb57600080fd5b506102c560025481565b604051908152602001610286565b3480156102df57600080fd5b506102c56102ee36600461247e565b60076020526000908152604090205481565b34801561030c57600080fd5b506101e761031b366004612450565b6109ac565b34801561032c57600080fd5b506101e7610a60565b34801561034157600080fd5b506101e7610b99565b34801561035657600080fd5b506103b3610365366004612450565b6006602052600090815260409020805460018201546002830154600384015460048501546005909501546001600160a01b039485169593949293919092169160ff8082169161010090041687565b604080516001600160a01b0398891681526020810197909752860194909452949091166060840152608083015291151560a082015290151560c082015260e001610286565b34801561040457600080fd5b506102c560035481565b34801561041a57600080fd5b506004546104289060ff1681565b6040519015158152602001610286565b34801561044457600080fd5b506101e7610cf2565b34801561045957600080fd5b5061051b610468366004612450565b6040805160e081018252600080825260208201819052918101829052606081018290526080810182905260a0810182905260c081019190915250600090815260066020908152604091829020825160e08101845281546001600160a01b03908116825260018301549382019390935260028201549381019390935260038101549091166060830152600481015460808301526005015460ff808216151560a084015261010090910416151560c082015290565b604051610286919081516001600160a01b0390811682526020808401519083015260408084015190830152606080840151909116908201526080808301519082015260a08281015115159082015260c09182015115159181019190915260e00190565b34801561058a57600080fd5b506102c561059936600461247e565b6001600160a01b031660009081526007602052604090205490565b3480156105c057600080fd5b506101e76105cf36600461242e565b610d26565b3480156105e057600080fd5b506001546001600160a01b03165b6040516001600160a01b039091168152602001610286565b34801561061257600080fd5b50610626610621366004612450565b61112b565b60405161028694939291906124a2565b34801561064257600080fd5b506101e7610651366004612450565b61126f565b6101e7610664366004612450565b61139a565b34801561067557600080fd5b506101e7610684366004612450565b611644565b34801561069557600080fd5b506104286106a4366004612450565b60009081526006602052604090206005015460ff1690565b3480156106c857600080fd5b506101e7611961565b3480156106dd57600080fd5b506101e76106ec3660046124e9565b6119d8565b3480156106fd57600080fd5b506102c56103e881565b34801561071357600080fd5b506105ee7f000000000000000000000000000000000000000000000000000000000000000081565b34801561074757600080fd5b50610784610756366004612450565b6005602052600090815260409020805460018201546002909201546001600160a01b03909116919060ff1683565b604080516001600160a01b0390941684526020840192909252151590820152606001610286565b6101e76107b9366004612450565b611f74565b3480156107ca57600080fd5b506101e76107d936600461247e565b6122eb565b3480156107ea57600080fd5b506104286107f9366004612450565b60009081526005602052604090206002015460ff1690565b6000828152600560205260409020600281015460ff1661084c5760405162461bcd60e51b815260040161084390612515565b60405180910390fd5b80546001600160a01b031633146108755760405162461bcd60e51b815260040161084390612539565b600082116108c55760405162461bcd60e51b815260206004820152601c60248201527f5072696365206d7573742062652067726561746572207468616e2030000000006044820152606401610843565b6001810182905560405182815283907f66bcde9f7aec9b81719a4fdec54cbafbf6c834d1f2f989d9cd2134dab8d0c0de9060200160405180910390a2505050565b6001546001600160a01b031633146109305760405162461bcd60e51b815260040161084390612561565b6103e88111156109715760405162461bcd60e51b815260206004820152600c60248201526b08ccaca40e8dede40d0d2ced60a31b6044820152606401610843565b60028190556040518181527f45610d581145924dd7090a5017e5f2b1d6f42213bb2e95707ff86846bbfcb1ca9060200160405180910390a150565b6000818152600560205260409020600281015460ff166109de5760405162461bcd60e51b815260040161084390612515565b80546001600160a01b03163314610a075760405162461bcd60e51b815260040161084390612539565b60008281526005602052604080822080546001600160a01b031916815560018101839055600201805460ff191690555183917f411aee90354c51b1b04cd563fcab2617142a9d50da19232d888547c8a1b7fd8a91a25050565b610a68612383565b3360009081526007602052604090205480610abc5760405162461bcd60e51b81526020600482015260146024820152734e6f2066756e647320746f20776974686472617760601b6044820152606401610843565b336000818152600760205260408082208290555190919083908381818185875af1925050503d8060008114610b0d576040519150601f19603f3d011682016040523d82523d6000602084013e610b12565b606091505b5050905080610b555760405162461bcd60e51b815260206004820152600f60248201526e15da5d1a191c985dc819985a5b1959608a1b6044820152606401610843565b60405182815233907feaff4b37086828766ad3268786972c0cd24259d4c87a80f9d3963a3c3d999b0d906020015b60405180910390a25050610b976001600055565b565b6001546001600160a01b03163314610bc35760405162461bcd60e51b815260040161084390612561565b610bcb612383565b60035480610c115760405162461bcd60e51b81526020600482015260136024820152724e6f206665657320746f20776974686472617760681b6044820152606401610843565b600060038190556001546040516001600160a01b039091169083908381818185875af1925050503d8060008114610c64576040519150601f19603f3d011682016040523d82523d6000602084013e610c69565b606091505b5050905080610cac5760405162461bcd60e51b815260206004820152600f60248201526e15da5d1a191c985dc819985a5b1959608a1b6044820152606401610843565b6001546001600160a01b03166001600160a01b03167feaff4b37086828766ad3268786972c0cd24259d4c87a80f9d3963a3c3d999b0d83604051610b8391815260200190565b6001546001600160a01b03163314610d1c5760405162461bcd60e51b815260040161084390612561565b610b9760006123dc565b60045460ff1615610d495760405162461bcd60e51b815260040161084390612596565b600082815260056020526040902060020154829060ff1615610da75760405162461bcd60e51b8152602060048201526017602482015276416c7265616479206c697374656420666f722073616c6560481b6044820152606401610843565b600083815260066020526040902060050154839060ff1615610e005760405162461bcd60e51b815260206004820152601260248201527120b63932b0b23c9034b71030bab1ba34b7b760711b6044820152606401610843565b60008311610e505760405162461bcd60e51b815260206004820152601c60248201527f5072696365206d7573742062652067726561746572207468616e2030000000006044820152606401610843565b6040516331a9108f60e11b81526004810185905233906001600160a01b037f00000000000000000000000000000000000000000000000000000000000000001690636352211e90602401602060405180830381865afa158015610eb7573d6000803e3d6000fd5b505050506040513d601f19601f82011682018060405250810190610edb91906125c5565b6001600160a01b031614610f215760405162461bcd60e51b815260206004820152600d60248201526c2737ba103a34329037bbb732b960991b6044820152606401610843565b60405163020604bf60e21b81526004810185905230906001600160a01b037f0000000000000000000000000000000000000000000000000000000000000000169063081812fc90602401602060405180830381865afa158015610f88573d6000803e3d6000fd5b505050506040513d601f19601f82011682018060405250810190610fac91906125c5565b6001600160a01b0316148061104a575060405163e985e9c560e01b81523360048201523060248201527f00000000000000000000000000000000000000000000000000000000000000006001600160a01b03169063e985e9c590604401602060405180830381865afa158015611026573d6000803e3d6000fd5b505050506040513d601f19601f8201168201806040525081019061104a91906125e2565b6110915760405162461bcd60e51b815260206004820152601860248201527713585c9ad95d1c1b1858d9481b9bdd08185c1c1c9bdd995960421b6044820152606401610843565b60408051606081018252338082526020808301878152600184860181815260008b815260058552879020955186546001600160a01b0319166001600160a01b03909116178655915190850155516002909301805460ff191693151593909317909255915185815286917fc93edc6ee14cd6c0c2842099adfa8953b237dbdad304ba28e96dce8a7f2a828c910160405180910390a350505050565b60008181526005602052604081206002015481908190819060ff161561119a575050506000828152600560209081526040808320815160608101835281546001600160a01b031680825260018084015495830186905260029093015460ff161515919093015293509091611268565b60008581526006602052604090206005015460ff161561125b576000858152600660209081526040808320815160e08101835281546001600160a01b039081168252600183015494820194909452600282015492810183905260038201549093166060840152600481015460808401526005015460ff808216151560a085015261010090910416151560c083015290919061123957816020015161123f565b81604001515b8251608090930151600297509095509193509091506112689050565b5060009250829150819050805b9193509193565b6000818152600660205260409020600581015460ff166112a15760405162461bcd60e51b815260040161084390612604565b80546001600160a01b031633146112ca5760405162461bcd60e51b815260040161084390612539565b60038101546001600160a01b0316156113255760405162461bcd60e51b815260206004820152601760248201527f43616e6e6f742063616e63656c207769746820626964730000000000000000006044820152606401610843565b60008281526006602052604080822080546001600160a01b031990811682556001820184905560028201849055600382018054909116905560048101839055600501805461ffff191690555183917f2809c7e17bf978fbc7194c0a694b638c4215e9140cacc6c38ca36010b45697df91a25050565b60045460ff16156113bd5760405162461bcd60e51b815260040161084390612596565b6113c5612383565b6000818152600660205260409020600581015460ff166113f75760405162461bcd60e51b815260040161084390612604565b6005810154610100900460ff161561144b5760405162461bcd60e51b8152602060048201526017602482015276105d58dd1a5bdb88185b1c9958591e481cd95d1d1b1959604a1b6044820152606401610843565b806004015442106114925760405162461bcd60e51b8152602060048201526011602482015270105d58dd1a5bdb881a185cc8195b991959607a1b6044820152606401610843565b80546001600160a01b031633036114df5760405162461bcd60e51b815260206004820152601160248201527014d95b1b195c8818d85b9b9bdd08189a59607a1b6044820152606401610843565b806002015460000361154457806001015434101561153f5760405162461bcd60e51b815260206004820152601860248201527f4269642062656c6f77207374617274696e6720707269636500000000000000006044820152606401610843565b611597565b806002015434116115975760405162461bcd60e51b815260206004820152601f60248201527f426964206d757374206578636565642063757272656e742068696768657374006044820152606401610843565b60038101546001600160a01b0316156115e157600281015460038201546001600160a01b0316600090815260076020526040812080549091906115db908490612646565b90915550505b34600282018190556003820180546001600160a01b031916339081179091556040519182529083907f0e54eff26401bf69b81b26f60bd85ef47f5d85275c1d268d84f68d6897431c479060200160405180910390a3506116416001600055565b50565b61164c612383565b6000818152600660205260409020600581015460ff1661167e5760405162461bcd60e51b815260040161084390612604565b6005810154610100900460ff16156116d25760405162461bcd60e51b8152602060048201526017602482015276105d58dd1a5bdb88185b1c9958591e481cd95d1d1b1959604a1b6044820152606401610843565b806004015442101561171e5760405162461bcd60e51b8152602060048201526015602482015274105d58dd1a5bdb881b9bdd081e595d08195b991959605a1b6044820152606401610843565b60058101805461ffff191661010017905560038101546001600160a01b03161561191a5760006127106002548360020154611759919061265e565b611763919061267d565b905080600360008282546117779190612646565b9091555050600282015460009061178f90839061269f565b835460038501546040516323b872dd60e01b81526001600160a01b0392831660048201529082166024820152604481018790529192507f000000000000000000000000000000000000000000000000000000000000000016906323b872dd90606401600060405180830381600087803b15801561180b57600080fd5b505af115801561181f573d6000803e3d6000fd5b50508454604051600093506001600160a01b03909116915083908381818185875af1925050503d8060008114611871576040519150601f19603f3d011682016040523d82523d6000602084013e611876565b606091505b50509050806118c25760405162461bcd60e51b815260206004820152601860248201527714185e5b595b9d081d1bc81cd95b1b195c8819985a5b195960421b6044820152606401610843565b60038401546002850154604080516001600160a01b039093168352602083019190915286917fd2aa34a4fdbbc6dff6a3e56f46e0f3ae2a31d7785ff3487aa5c95c642acea501910160405180910390a2505050611956565b604080516000808252602082015283917fd2aa34a4fdbbc6dff6a3e56f46e0f3ae2a31d7785ff3487aa5c95c642acea501910160405180910390a25b506116416001600055565b6001546001600160a01b0316331461198b5760405162461bcd60e51b815260040161084390612561565b6004805460ff8082161560ff1990921682179092556040519116151581527f2d8cb32b79ced32c38fb4a61d8482c40627602feb2cc34b50d9b55eea376d88c9060200160405180910390a1565b60045460ff16156119fb5760405162461bcd60e51b815260040161084390612596565b600083815260056020526040902060020154839060ff1615611a595760405162461bcd60e51b8152602060048201526017602482015276416c7265616479206c697374656420666f722073616c6560481b6044820152606401610843565b600084815260066020526040902060050154849060ff1615611ab25760405162461bcd60e51b815260206004820152601260248201527120b63932b0b23c9034b71030bab1ba34b7b760711b6044820152606401610843565b60008411611b105760405162461bcd60e51b815260206004820152602560248201527f5374617274696e67207072696365206d75737420626520677265617465722074604482015264068616e20360dc1b6064820152608401610843565b610e10831015611b625760405162461bcd60e51b815260206004820181905260248201527f4475726174696f6e206d757374206265206174206c65617374203120686f75726044820152606401610843565b62093a80831115611bb55760405162461bcd60e51b815260206004820152601f60248201527f4475726174696f6e206d757374206265206174206d6f737420372064617973006044820152606401610843565b6040516331a9108f60e11b81526004810186905233906001600160a01b037f00000000000000000000000000000000000000000000000000000000000000001690636352211e90602401602060405180830381865afa158015611c1c573d6000803e3d6000fd5b505050506040513d601f19601f82011682018060405250810190611c4091906125c5565b6001600160a01b031614611c865760405162461bcd60e51b815260206004820152600d60248201526c2737ba103a34329037bbb732b960991b6044820152606401610843565b60405163020604bf60e21b81526004810186905230906001600160a01b037f0000000000000000000000000000000000000000000000000000000000000000169063081812fc90602401602060405180830381865afa158015611ced573d6000803e3d6000fd5b505050506040513d601f19601f82011682018060405250810190611d1191906125c5565b6001600160a01b03161480611daf575060405163e985e9c560e01b81523360048201523060248201527f00000000000000000000000000000000000000000000000000000000000000006001600160a01b03169063e985e9c590604401602060405180830381865afa158015611d8b573d6000803e3d6000fd5b505050506040513d601f19601f82011682018060405250810190611daf91906125e2565b611df65760405162461bcd60e51b815260206004820152601860248201527713585c9ad95d1c1b1858d9481b9bdd08185c1c1c9bdd995960421b6044820152606401610843565b6000611e028442612646565b90506040518060e00160405280336001600160a01b031681526020018681526020016000815260200160006001600160a01b03168152602001828152602001600115158152602001600015158152506006600088815260200190815260200160002060008201518160000160006101000a8154816001600160a01b0302191690836001600160a01b03160217905550602082015181600101556040820151816002015560608201518160030160006101000a8154816001600160a01b0302191690836001600160a01b031602179055506080820151816004015560a08201518160050160006101000a81548160ff02191690831515021790555060c08201518160050160016101000a81548160ff021916908315150217905550905050336001600160a01b0316867fc9050d42180a61cb0d9ebb8ad118b62fe6eab12cf12ff752c4a0cc7da9ddf6278784604051611f64929190918252602082015260400190565b60405180910390a3505050505050565b60045460ff1615611f975760405162461bcd60e51b815260040161084390612596565b611f9f612383565b600081815260056020908152604091829020825160608101845281546001600160a01b031681526001820154928101929092526002015460ff16151591810182905290611ffe5760405162461bcd60e51b815260040161084390612515565b80602001513410156120495760405162461bcd60e51b8152602060048201526014602482015273125b9cdd59999a58da595b9d081c185e5b595b9d60621b6044820152606401610843565b6000828152600560209081526040822080546001600160a01b0319168155600181018390556002908101805460ff1916905554908301516127109161208d9161265e565b612097919061267d565b905080600360008282546120ab9190612646565b909155505060208201516000906120c390839061269f565b83516040516323b872dd60e01b81526001600160a01b039182166004820152336024820152604481018790529192507f000000000000000000000000000000000000000000000000000000000000000016906323b872dd90606401600060405180830381600087803b15801561213857600080fd5b505af115801561214c573d6000803e3d6000fd5b50505050600083600001516001600160a01b03168260405160006040518083038185875af1925050503d80600081146121a1576040519150601f19603f3d011682016040523d82523d6000602084013e6121a6565b606091505b50509050806121f25760405162461bcd60e51b815260206004820152601860248201527714185e5b595b9d081d1bc81cd95b1b195c8819985a5b195960421b6044820152606401610843565b83602001513411156122965760208401516000903390612212903461269f565b604051600081818185875af1925050503d806000811461224e576040519150601f19603f3d011682016040523d82523d6000602084013e612253565b606091505b50509050806122945760405162461bcd60e51b815260206004820152600d60248201526c1499599d5b990819985a5b1959609a1b6044820152606401610843565b505b835160208086015160405190815233926001600160a01b03169188917f04ddd54c6b746e69ba87f862311f7670bd1d7276846778ac81cd38747b27a746910160405180910390a4505050506116416001600055565b6001546001600160a01b031633146123155760405162461bcd60e51b815260040161084390612561565b6001600160a01b03811661237a5760405162461bcd60e51b815260206004820152602660248201527f4f776e61626c653a206e6577206f776e657220697320746865207a65726f206160448201526564647265737360d01b6064820152608401610843565b611641816123dc565b6002600054036123d55760405162461bcd60e51b815260206004820152601f60248201527f5265656e7472616e637947756172643a207265656e7472616e742063616c6c006044820152606401610843565b6002600055565b600180546001600160a01b038381166001600160a01b0319831681179093556040519116919082907f8be0079c531659141344cd1fd0a4f28419497f9722a3daafe3b4186f6b6457e090600090a35050565b6000806040838503121561244157600080fd5b50508035926020909101359150565b60006020828403121561246257600080fd5b5035919050565b6001600160a01b038116811461164157600080fd5b60006020828403121561249057600080fd5b813561249b81612469565b9392505050565b60808101600386106124c457634e487b7160e01b600052602160045260246000fd5b94815260208101939093526001600160a01b0391909116604083015260609091015290565b6000806000606084860312156124fe57600080fd5b505081359360208301359350604090920135919050565b6020808252600a9082015269139bdd081b1a5cdd195960b21b604082015260600190565b6020808252600e908201526d2737ba103a34329039b2b63632b960911b604082015260600190565b6020808252818101527f4f776e61626c653a2063616c6c6572206973206e6f7420746865206f776e6572604082015260600190565b60208082526015908201527413585c9ad95d1c1b1858d9481a5cc81c185d5cd959605a1b604082015260600190565b6000602082840312156125d757600080fd5b815161249b81612469565b6000602082840312156125f457600080fd5b8151801515811461249b57600080fd5b60208082526012908201527141756374696f6e206e6f742061637469766560701b604082015260600190565b634e487b7160e01b600052601160045260246000fd5b6000821982111561265957612659612630565b500190565b600081600019048311821515161561267857612678612630565b500290565b60008261269a57634e487b7160e01b600052601260045260246000fd5b500490565b6000828210156126b1576126b1612630565b50039056fea2646970667358221220644c669cb189426c7d1f271e1a0b041236b725ec75ea6e95f587d54b80681c5d64736f6c634300080e0033",
  "linkReferences": {},
  "deployedLinkReferences": {}
}