{
  "_format": "hh-sol-artifact-1",
  "contractName": "ProjectINO",
  "sourceName": "contracts/ProjectINO.sol",
  "abi": [
    {
      "inputs": [
        {
          "internalType": "address",
          "name": "_withdrawalAddress",
          "type": "address"
        },
        {
          "internalType": "string",
          "name": "_RBaseURI",
          "type": "string"
        },
        {
          "internalType": "string",
          "name": "_unRevealedUri",
          "type": "string"
        }
      ],
      "stateMutability": "nonpayable",
      "type": "constructor"
    },
    {
      "inputs": [],
      "name": "ApprovalCallerNotOwnerNorApproved",
      "type": "error"
    },
    {
      "inputs": [],
      "name": "ApprovalQueryForNonexistentToken",
      "type": "error"
    },
    {
      "inputs": [],
      "name": "ApprovalToCurrentOwner",
      "type": "error"
    },
    {
      "inputs": [],
      "name": "ApproveToCaller",
      "type": "error"
    },
    {
      "inputs": [],
      "name": "BalanceQueryForZeroAddress",
      "type": "error"
    },
    {
      "inputs": [],
      "name": "MintToZeroAddress",
      "type": "error"
    },
    {
      "inputs": [],
      "name": "MintZeroQuantity",
      "type": "error"
    },
    {
      "inputs": [],
      "name": "OwnerQueryForNonexistentToken",
      "type": "error"
    },
    {
      "inputs": [],
      "name": "TransferCallerNotOwnerNorApproved",
      "type": "error"
    },
    {
      "inputs": [],
      "name": "TransferFromIncorrectOwner",
      "type": "error"
    },
    {
      "inputs": [],
      "name": "TransferToNonERC721ReceiverImplementer",
      "type": "error"
    },
    {
      "inputs": [],
      "name": "TransferToZeroAddress",
      "type": "error"
    },
    {
      "inputs": [],
      "name": "URIQueryForNonexistentToken",
      "type": "error"
    },
    {
      "anonymous": false,
      "inputs": [
        {
          "indexed": true,
          "internalType": "address",
          "name": "owner",
          "type": "address"
        },
        {
          "indexed": true,
          "internalType": "address",
          "name": "approved",
          "type": "address"
        },
        {
          "indexed": true,
          "internalType": "uint256",
          "name": "tokenId",
          "type": "uint256"
        }
      ],
      "name": "Approval",
      "type": "event"
    },
    {
      "anonymous": false,
      "inputs": [
        {
          "indexed": true,
          "internalType": "address",
          "name": "owner",
          "type": "address"
        },
        {
          "indexed": true,
          "internalType": "address",
          "name": "operator",
          "type": "address"
        },
        {
          "indexed": false,
          "internalType": "bool",
          "name": "approved",
          "type": "bool"
        }
      ],
      "name": "ApprovalForAll",
      "type": "event"
    },
    {
      "anonymous": false,
      "inputs": [
        {
          "indexed": true,
          "internalType": "address",
          "name": "previousOwner",
          "type": "address"
        },
        {
          "indexed": true,
          "internalType": "address",
          "name": "newOwner",
          "type": "address"
        }
      ],
      "name": "OwnershipTransferred",
      "type": "event"
    },
    {
      "anonymous": false,
      "inputs": [
        {
          "indexed": true,
          "internalType": "address",
          "name": "from",
          "type": "address"
        },
        {
          "indexed": true,
          "internalType": "address",
          "name": "to",
          "type": "address"
        },
        {
          "indexed": true,
          "internalType": "uint256",
          "name": "tokenId",
          "type": "uint256"
        }
      ],
      "name": "Transfer",
      "type": "event"
    },
    {
      "inputs": [],
      "name": "INO_LIMIT",
      "outputs": [
        {
          "internalType": "uint256",
          "name": "",
          "type": "uint256"
        }
      ],
      "stateMutability": "view",
      "type": "function"
    },
    {
      "inputs": [],
      "name": "INO_SUPPLY",
      "outputs": [
        {
          "internalType": "uint256",
          "name": "",
          "type": "uint256"
        }
      ],
      "stateMutability": "view",
      "type": "function"
    },
    {
      "inputs": [
        {
          "internalType": "address",
          "name": "to",
          "type": "address"
        },
        {
          "internalType": "uint256",
          "name": "tokenId",
          "type": "uint256"
        }
      ],
      "name": "approve",
      "outputs": [],
      "stateMutability": "nonpayable",
      "type": "function"
    },
    {
      "inputs": [
        {
          "internalType": "address",
          "name": "owner",
          "type": "address"
        }
      ],
      "name": "balanceOf",
      "outputs": [
        {
          "internalType": "uint256",
          "name": "",
          "type": "uint256"
        }
      ],
      "stateMutability": "view",
      "type": "function"
    },
    {
      "inputs": [],
      "name": "baseExtension",
      "outputs": [
        {
          "internalType": "string",
          "name": "",
          "type": "string"
        }
      ],
      "stateMutability": "view",
      "type": "function"
    },
    {
      "inputs": [
        {
          "internalType": "uint256",
          "name": "_amount",
          "type": "uint256"
        }
      ],
      "name": "finalMint",
      "outputs": [],
      "stateMutability": "payable",
      "type": "function"
    },
    {
      "inputs": [
        {
          "internalType": "uint256",
          "name": "tokenId",
          "type": "uint256"
        }
      ],
      "name": "getApproved",
      "outputs": [
        {
          "internalType": "address",
          "name": "",
          "type": "address"
        }
      ],
      "stateMutability": "view",
      "type": "function"
    },
    {
      "inputs": [
        {
          "internalType": "uint256",
          "name": "_tokenId",
          "type": "uint256"
        }
      ],
      "name": "getOwnershipData",
      "outputs": [
        {
          "components": [
            {
              "internalType": "address",
              "name": "addr",
              "type": "address"
            },
            {
              "internalType": "uint64",
              "name": "startTimestamp",
              "type": "uint64"
            },
            {
              "internalType": "bool",
              "name": "burned",
              "type": "bool"
            }
          ],
          "internalType": "struct IERC721A.TokenOwnership",
          "name": "",
          "type": "tuple"
        }
      ],
      "stateMutability": "view",
      "type": "function"
    },
    {
      "inputs": [
        {
          "internalType": "uint256",
          "name": "_amount",
          "type": "uint256"
        },
        {
          "internalType": "bytes32[]",
          "name": "_proof",
          "type": "bytes32[]"
        }
      ],
      "name": "inoListMint",
      "outputs": [],
      "stateMutability": "payable",
      "type": "function"
    },
    {
      "inputs": [
        {
          "internalType": "address",
          "name": "",
          "type": "address"
        }
      ],
      "name": "inoListPurchased",
      "outputs": [
        {
          "internalType": "bool",
          "name": "",
          "type": "bool"
        }
      ],
      "stateMutability": "view",
      "type": "function"
    },
    {
      "inputs": [
        {
          "internalType": "address",
          "name": "owner",
          "type": "address"
        },
        {
          "internalType": "address",
          "name": "operator",
          "type": "address"
        }
      ],
      "name": "isApprovedForAll",
      "outputs": [
        {
          "internalType": "bool",
          "name": "",
          "type": "bool"
        }
      ],
      "stateMutability": "view",
      "type": "function"
    },
    {
      "inputs": [],
      "name": "merkleRoot",
      "outputs": [
        {
          "internalType": "bytes32",
          "name": "",
          "type": "bytes32"
        }
      ],
      "stateMutability": "view",
      "type": "function"
    },
    {
      "inputs": [],
      "name": "name",
      "outputs": [
        {
          "internalType": "string",
          "name": "",
          "type": "string"
        }
      ],
      "stateMutability": "view",
      "type": "function"
    },
    {
      "inputs": [
        {
          "internalType": "address",
          "name": "_owner",
          "type": "address"
        }
      ],
      "name": "numberMinted",
      "outputs": [
        {
          "internalType": "uint256",
          "name": "",
          "type": "uint256"
        }
      ],
      "stateMutability": "view",
      "type": "function"
    },
    {
      "inputs": [],
      "name": "owner",
      "outputs": [
        {
          "internalType": "address",
          "name": "",
          "type": "address"
        }
      ],
      "stateMutability": "view",
      "type": "function"
    },
    {
      "inputs": [
        {
          "internalType": "uint256",
          "name": "tokenId",
          "type": "uint256"
        }
      ],
      "name": "ownerOf",
      "outputs": [
        {
          "internalType": "address",
          "name": "",
          "type": "address"
        }
      ],
      "stateMutability": "view",
      "type": "function"
    },
    {
      "inputs": [],
      "name": "renounceOwnership",
      "outputs": [],
      "stateMutability": "nonpayable",
      "type": "function"
    },
    {
      "inputs": [],
      "name": "reveal",
      "outputs": [],
      "stateMutability": "nonpayable",
      "type": "function"
    },
    {
      "inputs": [],
      "name": "revealed",
      "outputs": [
        {
          "internalType": "bool",
          "name": "",
          "type": "bool"
        }
      ],
      "stateMutability": "view",
      "type": "function"
    },
    {
      "inputs": [
        {
          "internalType": "address",
          "name": "from",
          "type": "address"
        },
        {
          "internalType": "address",
          "name": "to",
          "type": "address"
        },
        {
          "internalType": "uint256",
          "name": "tokenId",
          "type": "uint256"
        }
      ],
      "name": "safeTransferFrom",
      "outputs": [],
      "stateMutability": "nonpayable",
      "type": "function"
    },
    {
      "inputs": [
        {
          "internalType": "address",
          "name": "from",
          "type": "address"
        },
        {
          "internalType": "address",
          "name": "to",
          "type": "address"
        },
        {
          "internalType": "uint256",
          "name": "tokenId",
          "type": "uint256"
        },
        {
          "internalType": "bytes",
          "name": "_data",
          "type": "bytes"
        }
      ],
      "name": "safeTransferFrom",
      "outputs": [],
      "stateMutability": "nonpayable",
      "type": "function"
    },
    {
      "inputs": [],
      "name": "saleConfig",
      "outputs": [
        {
          "internalType": "enum ProjectINO.SaleConfig",
          "name": "",
          "type": "uint8"
        }
      ],
      "stateMutability": "view",
      "type": "function"
    },
    {
      "inputs": [
        {
          "internalType": "address",
          "name": "operator",
          "type": "address"
        },
        {
          "internalType": "bool",
          "name": "approved",
          "type": "bool"
        }
      ],
      "name": "setApprovalForAll",
      "outputs": [],
      "stateMutability": "nonpayable",
      "type": "function"
    },
    {
      "inputs": [
        {
          "internalType": "string",
          "name": "_newBaseURI",
          "type": "string"
        }
      ],
      "name": "setBaseURI",
      "outputs": [],
      "stateMutability": "nonpayable",
      "type": "function"
    },
    {
      "inputs": [
        {
          "internalType": "bytes32",
          "name": "_merkleRoot",
          "type": "bytes32"
        }
      ],
      "name": "setMerkleRoots",
      "outputs": [],
      "stateMutability": "nonpayable",
      "type": "function"
    },
    {
      "inputs": [
        {
          "internalType": "enum ProjectINO.SaleConfig",
          "name": "_status",
          "type": "uint8"
        }
      ],
      "name": "setSaleConfig",
      "outputs": [],
      "stateMutability": "nonpayable",
      "type": "function"
    },
    {
      "inputs": [
        {
          "internalType": "string",
          "name": "_unRevealedUri",
          "type": "string"
        }
      ],
      "name": "setUnRevealedUri",
      "outputs": [],
      "stateMutability": "nonpayable",
      "type": "function"
    },
    {
      "inputs": [
        {
          "internalType": "bytes4",
          "name": "interfaceId",
          "type": "bytes4"
        }
      ],
      "name": "supportsInterface",
      "outputs": [
        {
          "internalType": "bool",
          "name": "",
          "type": "bool"
        }
      ],
      "stateMutability": "view",
      "type": "function"
    },
    {
      "inputs": [],
      "name": "symbol",
      "outputs": [
        {
          "internalType": "string",
          "name": "",
          "type": "string"
        }
      ],
      "stateMutability": "view",
      "type": "function"
    },
    {
      "inputs": [
        {
          "internalType": "uint256",
          "name": "tokenId",
          "type": "uint256"
        }
      ],
      "name": "tokenURI",
      "outputs": [
        {
          "internalType": "string",
          "name": "",
          "type": "string"
        }
      ],
      "stateMutability": "view",
      "type": "function"
    },
    {
      "inputs": [],
      "name": "totalSupply",
      "outputs": [
        {
          "internalType": "uint256",
          "name": "",
          "type": "uint256"
        }
      ],
      "stateMutability": "view",
      "type": "function"
    },
    {
      "inputs": [
        {
          "internalType": "address",
          "name": "from",
          "type": "address"
        },
        {
          "internalType": "address",
          "name": "to",
          "type": "address"
        },
        {
          "internalType": "uint256",
          "name": "tokenId",
          "type": "uint256"
        }
      ],
      "name": "transferFrom",
      "outputs": [],
      "stateMutability": "nonpayable",
      "type": "function"
    },
    {
      "inputs": [
        {
          "internalType": "address",
          "name": "newOwner",
          "type": "address"
        }
      ],
      "name": "transferOwnership",
      "outputs": [],
      "stateMutability": "nonpayable",
      "type": "function"
    },
    {
      "inputs": [],
      "name": "unRevealedURI",
      "outputs": [
        {
          "internalType": "string",
          "name": "",
          "type": "string"
        }
      ],
      "stateMutability": "view",
      "type": "function"
    },
    {
      "inputs": [],
      "name": "withdrawFunds",
      "outputs": [],
      "stateMutability": "nonpayable",
      "type": "function"
    }
  ],
  "bytecode": "0x60e0604052600560a081905264173539b7b760d91b60c09081526200002891600a919062000312565b50600c805461ffff191690553480156200004157600080fd5b506040516200266238038062002662833981016040819052620000649162000485565b604080518082018252600b81526a50726f6a65637420494e4f60a81b602080830191825283518085019094526003845262494e4f60e81b908401528151919291620000b29160029162000312565b508051620000c890600390602084019062000312565b50506000805550620000da3362000114565b620000e58262000166565b620000f081620001ce565b6001600160a01b0383166080526200010b326101186200022e565b5050506200054b565b600880546001600160a01b038381166001600160a01b0319831681179093556040519116919082907f8be0079c531659141344cd1fd0a4f28419497f9722a3daafe3b4186f6b6457e090600090a35050565b6008546001600160a01b03163314620001b55760405162461bcd60e51b815260206004820181905260248201526000805160206200264283398151915260448201526064015b60405180910390fd5b8051620001ca90600990602084019062000312565b5050565b6008546001600160a01b03163314620002195760405162461bcd60e51b81526020600482018190526024820152600080516020620026428339815191526044820152606401620001ac565b8051620001ca90600b90602084019062000312565b6000546001600160a01b0383166200025857604051622e076360e81b815260040160405180910390fd5b816000036200027a5760405163b562e8dd60e01b815260040160405180910390fd5b6001600160a01b03831660009081526005602090815260408083208054680100000000000000018702019055838352600490915290204260a01b84176001841460e11b179055808083015b6040516001830192906001600160a01b038716906000907fddf252ad1be2c89b69c2b068fc378daa952ba7f163c4a11628f55a4df523b3ef908290a4808210620002c55750600055505050565b82805462000320906200050f565b90600052602060002090601f0160209004810192826200034457600085556200038f565b82601f106200035f57805160ff19168380011785556200038f565b828001600101855582156200038f579182015b828111156200038f57825182559160200191906001019062000372565b506200039d929150620003a1565b5090565b5b808211156200039d5760008155600101620003a2565b634e487b7160e01b600052604160045260246000fd5b600082601f830112620003e057600080fd5b81516001600160401b0380821115620003fd57620003fd620003b8565b604051601f8301601f19908116603f01168101908282118183101715620004285762000428620003b8565b816040528381526020925086838588010111156200044557600080fd5b600091505b838210156200046957858201830151818301840152908201906200044a565b838211156200047b5760008385830101525b9695505050505050565b6000806000606084860312156200049b57600080fd5b83516001600160a01b0381168114620004b357600080fd5b60208501519093506001600160401b0380821115620004d157600080fd5b620004df87838801620003ce565b93506040860151915080821115620004f657600080fd5b506200050586828701620003ce565b9150509250925092565b600181811c908216806200052457607f821691505b6020821081036200054557634e487b7160e01b600052602260045260246000fd5b50919050565b6080516120db6200056760003960006108e001526120db6000f3fe6080604052600436106102045760003560e01c80636352211e11610118578063b88d4fde116100a0578063dc33e6811161006f578063dc33e681146105e4578063e985e9c514610604578063edcaaf781461064d578063ee4e15cd14610663578063f2fde38b1461067657600080fd5b8063b88d4fde1461057c578063c66828621461059c578063c87b56dd146105b1578063cc0ebf5b146105d157600080fd5b806390aa0b0f116100e757806390aa0b0f146104af5780639231ab2a146104db57806395d89b4114610532578063a22cb46514610547578063a475b5dd1461056757600080fd5b80636352211e1461043c57806370a082311461045c578063715018a61461047c5780638da5cb5b1461049157600080fd5b8063271ed62c1161019b5780633540ce5e1161016a5780633540ce5e146103ad57806340af91ec146103c257806342842e0e146103e2578063518302271461040257806355f804b31461041c57600080fd5b8063271ed62c14610342578063276306ed146103625780632931ec16146103775780632eb4a7ab1461039757600080fd5b806318160ddd116101d757806318160ddd146102ba5780631c53f594146102dd57806323b872dd1461030d57806324600fc31461032d57600080fd5b806301ffc9a71461020957806306fdde031461023e578063081812fc14610260578063095ea7b314610298575b600080fd5b34801561021557600080fd5b50610229610224366004611a45565b610696565b60405190151581526020015b60405180910390f35b34801561024a57600080fd5b506102536106e8565b6040516102359190611aba565b34801561026c57600080fd5b5061028061027b366004611acd565b61077a565b6040516001600160a01b039091168152602001610235565b3480156102a457600080fd5b506102b86102b3366004611b02565b6107be565b005b3480156102c657600080fd5b50600154600054035b604051908152602001610235565b3480156102e957600080fd5b506102296102f8366004611b2c565b600e6020526000908152604090205460ff1681565b34801561031957600080fd5b506102b8610328366004611b47565b610890565b34801561033957600080fd5b506102b86108a0565b34801561034e57600080fd5b506102b861035d366004611c22565b61092b565b34801561036e57600080fd5b5061025361096c565b34801561038357600080fd5b506102b8610392366004611acd565b6109fa565b3480156103a357600080fd5b506102cf600d5481565b3480156103b957600080fd5b506102cf600181565b3480156103ce57600080fd5b506102b86103dd366004611c6b565b610a29565b3480156103ee57600080fd5b506102b86103fd366004611b47565b610a7c565b34801561040e57600080fd5b50600c546102299060ff1681565b34801561042857600080fd5b506102b8610437366004611c22565b610a97565b34801561044857600080fd5b50610280610457366004611acd565b610ad4565b34801561046857600080fd5b506102cf610477366004611b2c565b610adf565b34801561048857600080fd5b506102b8610b2e565b34801561049d57600080fd5b506008546001600160a01b0316610280565b3480156104bb57600080fd5b50600c546104ce90610100900460ff1681565b6040516102359190611ca2565b3480156104e757600080fd5b506104fb6104f6366004611acd565b610b64565b6040805182516001600160a01b0316815260208084015167ffffffffffffffff169082015291810151151590820152606001610235565b34801561053e57600080fd5b50610253610b8a565b34801561055357600080fd5b506102b8610562366004611cca565b610b99565b34801561057357600080fd5b506102b8610c2e565b34801561058857600080fd5b506102b8610597366004611d06565b610c67565b3480156105a857600080fd5b50610253610cb1565b3480156105bd57600080fd5b506102536105cc366004611acd565b610cbe565b6102b86105df366004611d82565b610e2d565b3480156105f057600080fd5b506102cf6105ff366004611b2c565b6110f4565b34801561061057600080fd5b5061022961061f366004611e34565b6001600160a01b03918216600090815260076020908152604080832093909416825291909152205460ff1690565b34801561065957600080fd5b506102cf611f3f81565b6102b8610671366004611acd565b61111f565b34801561068257600080fd5b506102b8610691366004611b2c565b6112ac565b60006301ffc9a760e01b6001600160e01b0319831614806106c757506380ac58cd60e01b6001600160e01b03198316145b806106e25750635b5e139f60e01b6001600160e01b03198316145b92915050565b6060600280546106f790611e67565b80601f016020809104026020016040519081016040528092919081815260200182805461072390611e67565b80156107705780601f1061074557610100808354040283529160200191610770565b820191906000526020600020905b81548152906001019060200180831161075357829003601f168201915b5050505050905090565b600061078582611344565b6107a2576040516333d1c03960e21b815260040160405180910390fd5b506000908152600660205260409020546001600160a01b031690565b60006107c98261136b565b9050806001600160a01b0316836001600160a01b0316036107fd5760405163250fdee360e21b815260040160405180910390fd5b336001600160a01b0382161461083457610817813361061f565b610834576040516367d9dca160e11b815260040160405180910390fd5b60008281526006602052604080822080546001600160a01b0319166001600160a01b0387811691821790925591518593918516917f8c5be1e5ebec7d5bd14f71427d1e84f3dd0314c0f7b2291e5b200ac8c7c3b92591a4505050565b61089b8383836113d2565b505050565b6008546001600160a01b031633146108d35760405162461bcd60e51b81526004016108ca90611ea1565b60405180910390fd5b6040516001600160a01b037f000000000000000000000000000000000000000000000000000000000000000016904780156108fc02916000818181858888f19350505050158015610928573d6000803e3d6000fd5b50565b6008546001600160a01b031633146109555760405162461bcd60e51b81526004016108ca90611ea1565b805161096890600b906020840190611996565b5050565b600b805461097990611e67565b80601f01602080910402602001604051908101604052809291908181526020018280546109a590611e67565b80156109f25780601f106109c7576101008083540402835291602001916109f2565b820191906000526020600020905b8154815290600101906020018083116109d557829003601f168201915b505050505081565b6008546001600160a01b03163314610a245760405162461bcd60e51b81526004016108ca90611ea1565b600d55565b6008546001600160a01b03163314610a535760405162461bcd60e51b81526004016108ca90611ea1565b600c805482919061ff001916610100836002811115610a7457610a74611c8c565b021790555050565b61089b83838360405180602001604052806000815250610c67565b6008546001600160a01b03163314610ac15760405162461bcd60e51b81526004016108ca90611ea1565b8051610968906009906020840190611996565b60006106e28261136b565b60006001600160a01b038216610b08576040516323d3ad8160e21b815260040160405180910390fd5b506001600160a01b031660009081526005602052604090205467ffffffffffffffff1690565b6008546001600160a01b03163314610b585760405162461bcd60e51b81526004016108ca90611ea1565b610b626000611579565b565b60408051606081018252600080825260208201819052918101919091526106e2826115cb565b6060600380546106f790611e67565b336001600160a01b03831603610bc25760405163b06307db60e01b815260040160405180910390fd5b3360008181526007602090815260408083206001600160a01b03871680855290835292819020805460ff191686151590811790915590519081529192917f17307eab39ab6107e8899845ad3d59bd9653f200f220920489ca2b5937696c31910160405180910390a35050565b6008546001600160a01b03163314610c585760405162461bcd60e51b81526004016108ca90611ea1565b600c805460ff19166001179055565b610c728484846113d2565b6001600160a01b0383163b15610cab57610c8e8484848461162f565b610cab576040516368d2bf6b60e11b815260040160405180910390fd5b50505050565b600a805461097990611e67565b6060610cc982611344565b610d2d5760405162461bcd60e51b815260206004820152602f60248201527f4552433732314d657461646174613a2055524920717565727920666f72206e6f60448201526e3732bc34b9ba32b73a103a37b5b2b760891b60648201526084016108ca565b600c5460ff161515600003610dce57600b8054610d4990611e67565b80601f0160208091040260200160405190810160405280929190818152602001828054610d7590611e67565b8015610dc25780601f10610d9757610100808354040283529160200191610dc2565b820191906000526020600020905b815481529060010190602001808311610da557829003601f168201915b50505050509050919050565b6000610dd861171b565b90506000815111610df85760405180602001604052806000815250610e26565b80610e028461172a565b600a604051602001610e1693929190611ed6565b6040516020818303038152906040525b9392505050565b323314610e7c5760405162461bcd60e51b815260206004820152601e60248201527f5468652063616c6c657220697320616e6f7468657220636f6e7472616374000060448201526064016108ca565b6001600c54610100900460ff166002811115610e9a57610e9a611c8c565b14610f195760405162461bcd60e51b815260206004820152604360248201527f44454152205350454349414c204f4e452c204152524956414c204f4e20504c4160448201527f4e4554204953204e4f5420414c4c4f5745442e2054525920414741494e20534f60648201526227a71760e91b608482015260a4016108ca565b600d546040516bffffffffffffffffffffffff193360601b166020820152610f5b9183916034016040516020818303038152906040528051906020012061182b565b610fa75760405162461bcd60e51b815260206004820152601c60248201527f596f7520617265206e6f74206f6e2074686520496e6f204c6973742e0000000060448201526064016108ca565b6001821115610ff85760405162461bcd60e51b815260206004820181905260248201527f5155414e5449545920535552504153534553205045522d54584e204c494d495460448201526064016108ca565b336000908152600e602052604090205460ff161561106d5760405162461bcd60e51b815260206004820152602c60248201527f494e4f204c49535420484153204245454e20555345442c20545259204147414960448201526b271027a710282aa12624a19760a11b60648201526084016108ca565b336000908152600e60205260409020805460ff19166001179055611f3f826110986001546000540390565b6110a29190611faf565b11156110ea5760405162461bcd60e51b81526020600482015260176024820152761350560810d0540813d188125393c8115610d151511151604a1b60448201526064016108ca565b6109683383611841565b6001600160a01b0381166000908152600560205260408082205467ffffffffffffffff911c166106e2565b32331461116e5760405162461bcd60e51b815260206004820152601e60248201527f5468652063616c6c657220697320616e6f7468657220636f6e7472616374000060448201526064016108ca565b6002600c54610100900460ff16600281111561118c5761118c611c8c565b146111ee5760405162461bcd60e51b815260206004820152602c60248201527f454e545259204f4620504c414e4554204953204e4f5420414c4c4f5745442e2060448201526b282622a0a9a2902427a6221760a11b60648201526084016108ca565b600181111561123f5760405162461bcd60e51b815260206004820181905260248201527f5155414e5449545920535552504153534553205045522d54584e204c494d495460448201526064016108ca565b611f3f816112506001546000540390565b61125a9190611faf565b11156112a25760405162461bcd60e51b81526020600482015260176024820152761350560810d0540813d188125393c8115610d151511151604a1b60448201526064016108ca565b6109283382611841565b6008546001600160a01b031633146112d65760405162461bcd60e51b81526004016108ca90611ea1565b6001600160a01b03811661133b5760405162461bcd60e51b815260206004820152602660248201527f4f776e61626c653a206e6577206f776e657220697320746865207a65726f206160448201526564647265737360d01b60648201526084016108ca565b61092881611579565b60008054821080156106e2575050600090815260046020526040902054600160e01b161590565b6000816000548110156113b95760008181526004602052604081205490600160e01b821690036113b7575b80600003610e26575060001901600081815260046020526040902054611396565b505b604051636f96cda160e11b815260040160405180910390fd5b60006113dd8261136b565b9050836001600160a01b0316816001600160a01b0316146114105760405162a1148160e81b815260040160405180910390fd5b6000336001600160a01b038616148061142e575061142e853361061f565b8061144957503361143e8461077a565b6001600160a01b0316145b90508061146957604051632ce44b5f60e11b815260040160405180910390fd5b6001600160a01b03841661149057604051633a954ecd60e21b815260040160405180910390fd5b600083815260066020908152604080832080546001600160a01b03191690556001600160a01b038881168452600583528184208054600019019055871683528083208054600101905585835260049091528120600160e11b4260a01b87178117909155831690036115315760018301600081815260046020526040812054900361152f57600054811461152f5760008181526004602052604090208390555b505b82846001600160a01b0316866001600160a01b03167fddf252ad1be2c89b69c2b068fc378daa952ba7f163c4a11628f55a4df523b3ef60405160405180910390a45050505050565b600880546001600160a01b038381166001600160a01b0319831681179093556040519116919082907f8be0079c531659141344cd1fd0a4f28419497f9722a3daafe3b4186f6b6457e090600090a35050565b60408051606081018252600080825260208201819052918101919091526106e26115f48361136b565b604080516060810182526001600160a01b038316815260a083901c67ffffffffffffffff166020820152600160e01b90921615159082015290565b604051630a85bd0160e11b81526000906001600160a01b0385169063150b7a0290611664903390899088908890600401611fc7565b6020604051808303816000875af192505050801561169f575060408051601f3d908101601f1916820190925261169c91810190612004565b60015b6116fd573d8080156116cd576040519150601f19603f3d011682016040523d82523d6000602084013e6116d2565b606091505b5080516000036116f5576040516368d2bf6b60e11b815260040160405180910390fd5b805181602001fd5b6001600160e01b031916630a85bd0160e11b1490505b949350505050565b6060600980546106f790611e67565b6060816000036117515750506040805180820190915260018152600360fc1b602082015290565b8160005b811561177b578061176581612021565b91506117749050600a83612050565b9150611755565b60008167ffffffffffffffff81111561179657611796611b83565b6040519080825280601f01601f1916602001820160405280156117c0576020820181803683370190505b5090505b8415611713576117d5600183612064565b91506117e2600a8661207b565b6117ed906030611faf565b60f81b8183815181106118025761180261208f565b60200101906001600160f81b031916908160001a905350611824600a86612050565b94506117c4565b6000826118388584611922565b14949350505050565b6000546001600160a01b03831661186a57604051622e076360e81b815260040160405180910390fd5b8160000361188b5760405163b562e8dd60e01b815260040160405180910390fd5b6001600160a01b03831660009081526005602090815260408083208054680100000000000000018702019055838352600490915290204260a01b84176001841460e11b179055808083015b6040516001830192906001600160a01b038716906000907fddf252ad1be2c89b69c2b068fc378daa952ba7f163c4a11628f55a4df523b3ef908290a48082106118d65750600055505050565b600081815b845181101561198e5760008582815181106119445761194461208f565b6020026020010151905080831161196a576000838152602082905260409020925061197b565b600081815260208490526040902092505b508061198681612021565b915050611927565b509392505050565b8280546119a290611e67565b90600052602060002090601f0160209004810192826119c45760008555611a0a565b82601f106119dd57805160ff1916838001178555611a0a565b82800160010185558215611a0a579182015b82811115611a0a5782518255916020019190600101906119ef565b50611a16929150611a1a565b5090565b5b80821115611a165760008155600101611a1b565b6001600160e01b03198116811461092857600080fd5b600060208284031215611a5757600080fd5b8135610e2681611a2f565b60005b83811015611a7d578181015183820152602001611a65565b83811115610cab5750506000910152565b60008151808452611aa6816020860160208601611a62565b601f01601f19169290920160200192915050565b602081526000610e266020830184611a8e565b600060208284031215611adf57600080fd5b5035919050565b80356001600160a01b0381168114611afd57600080fd5b919050565b60008060408385031215611b1557600080fd5b611b1e83611ae6565b946020939093013593505050565b600060208284031215611b3e57600080fd5b610e2682611ae6565b600080600060608486031215611b5c57600080fd5b611b6584611ae6565b9250611b7360208501611ae6565b9150604084013590509250925092565b634e487b7160e01b600052604160045260246000fd5b604051601f8201601f1916810167ffffffffffffffff81118282101715611bc257611bc2611b83565b604052919050565b600067ffffffffffffffff831115611be457611be4611b83565b611bf7601f8401601f1916602001611b99565b9050828152838383011115611c0b57600080fd5b828260208301376000602084830101529392505050565b600060208284031215611c3457600080fd5b813567ffffffffffffffff811115611c4b57600080fd5b8201601f81018413611c5c57600080fd5b61171384823560208401611bca565b600060208284031215611c7d57600080fd5b813560038110610e2657600080fd5b634e487b7160e01b600052602160045260246000fd5b6020810160038310611cc457634e487b7160e01b600052602160045260246000fd5b91905290565b60008060408385031215611cdd57600080fd5b611ce683611ae6565b915060208301358015158114611cfb57600080fd5b809150509250929050565b60008060008060808587031215611d1c57600080fd5b611d2585611ae6565b9350611d3360208601611ae6565b925060408501359150606085013567ffffffffffffffff811115611d5657600080fd5b8501601f81018713611d6757600080fd5b611d7687823560208401611bca565b91505092959194509250565b60008060408385031215611d9557600080fd5b8235915060208084013567ffffffffffffffff80821115611db557600080fd5b818601915086601f830112611dc957600080fd5b813581811115611ddb57611ddb611b83565b8060051b9150611dec848301611b99565b8181529183018401918481019089841115611e0657600080fd5b938501935b83851015611e2457843582529385019390850190611e0b565b8096505050505050509250929050565b60008060408385031215611e4757600080fd5b611e5083611ae6565b9150611e5e60208401611ae6565b90509250929050565b600181811c90821680611e7b57607f821691505b602082108103611e9b57634e487b7160e01b600052602260045260246000fd5b50919050565b6020808252818101527f4f776e61626c653a2063616c6c6572206973206e6f7420746865206f776e6572604082015260600190565b600084516020611ee98285838a01611a62565b855191840191611efc8184848a01611a62565b8554920191600090600181811c9080831680611f1957607f831692505b8583108103611f3657634e487b7160e01b85526022600452602485fd5b808015611f4a5760018114611f5b57611f88565b60ff19851688528388019550611f88565b60008b81526020902060005b85811015611f805781548a820152908401908801611f67565b505083880195505b50939b9a5050505050505050505050565b634e487b7160e01b600052601160045260246000fd5b60008219821115611fc257611fc2611f99565b500190565b6001600160a01b0385811682528416602082015260408101839052608060608201819052600090611ffa90830184611a8e565b9695505050505050565b60006020828403121561201657600080fd5b8151610e2681611a2f565b60006001820161203357612033611f99565b5060010190565b634e487b7160e01b600052601260045260246000fd5b60008261205f5761205f61203a565b500490565b60008282101561207657612076611f99565b500390565b60008261208a5761208a61203a565b500690565b634e487b7160e01b600052603260045260246000fdfea2646970667358221220c84eb267fe49044f474c2f69477af21db12356ca74323285560eb8e9bfbb9a7764736f6c634300080e00334f776e61626c653a2063616c6c6572206973206e6f7420746865206f776e6572",
  "linkReferences": {},
  "deployedLinkReferences": {}
}