{
  "_format": "hh-sol-artifact-1",
  "contractName": "PokechainMarketplace",
  "sourceName": "contracts/PokechainMarketplace.sol",
  "abi": [
    {
      "inputs": [
        {
          "internalType": "address",
          "name": "_nftContract",
          "type": "address"
        },
        {
          "internalType": "address",
          "name": "_feeRecipient",
          "type": "address"
        }
      ],
      "stateMutability": "nonpayable",
      "type": "constructor"
    },
    {
      "anonymous": false,
      "inputs": [
        {
          "indexed": true,
          "internalType": "uint256",
          "name": "tokenId",
          "type": "uint256"
        }
      ],
      "name": "AuctionCancelled",
      "type": "event"
    },
    {
      "anonymous": false,
      "inputs": [
        {
          "indexed": true,
          "internalType": "uint256",
          "name": "tokenId",
          "type": "uint256"
        },
        {
          "indexed": true,
          "internalType": "address",
          "name": "seller",
          "type": "address"
        },
        {
          "indexed": false,
          "internalType": "uint256",
          "name": "startingPrice",
          "type": "uint256"
        },
        {
          "indexed": false,
          "internalType": "uint256",
          "name": "endTime",
          "type": "uint256"
        }
      ],
      "name": "AuctionCreated",
      "type": "event"
    },
    {
      "anonymous": false,
      "inputs": [
        {
          "indexed": true,
          "internalType": "uint256",
          "name": "tokenId",
          "type": "uint256"
        },
        {
          "indexed": false,
          "internalType": "address",
          "name": "winner",
          "type": "address"
        },
        {
          "indexed": false,
          "internalType": "uint256",
          "name": "amount",
          "type": "uint256"
        }
      ],
      "name": "AuctionEnded",
      "type": "event"
    },
    {
      "anonymous": false,
      "inputs": [
        {
          "indexed": true,
          "internalType": "uint256",
          "name": "tokenId",
          "type": "uint256"
        },
        {
          "indexed": true,
          "internalType": "address",
          "name": "bidder",
          "type": "address"
        },
        {
          "indexed": false,
          "internalType": "uint256",
          "name": "amount",
          "type": "uint256"
        }
      ],
      "name": "BidPlaced",
      "type": "event"
    },
    {
      "anonymous": false,
      "inputs": [
        {
          "indexed": true,
          "internalType": "address",
          "name": "newRecipient",
          "type": "address"
        }
      ],
      "name": "FeeRecipientUpdated",
      "type": "event"
    },
    {
      "anonymous": false,
      "inputs": [
        {
          "indexed": true,
          "internalType": "address",
          "name": "recipient",
          "type": "address"
        },
        {
          "indexed": false,
          "internalType": "uint256",
          "name": "amount",
          "type": "uint256"
        }
      ],
      "name": "FeeSent",
      "type": "event"
    },
    {
      "anonymous": false,
      "inputs": [
        {
          "indexed": true,
          "internalType": "address",
          "name": "user",
          "type": "address"
        },
        {
          "indexed": false,
          "internalType": "uint256",
          "name": "amount",
          "type": "uint256"
        }
      ],
      "name": "FundsWithdrawn",
      "type": "event"
    },
    {
      "anonymous": false,
      "inputs": [
        {
          "indexed": true,
          "internalType": "uint256",
          "name": "tokenId",
          "type": "uint256"
        },
        {
          "indexed": true,
          "internalType": "address",
          "name": "seller",
          "type": "address"
        },
        {
          "indexed": false,
          "internalType": "uint256",
          "name": "price",
          "type": "uint256"
        }
      ],
      "name": "ItemListed",
      "type": "event"
    },
    {
      "anonymous": false,
      "inputs": [
        {
          "indexed": true,
          "internalType": "uint256",
          "name": "tokenId",
          "type": "uint256"
        },
        {
          "indexed": true,
          "internalType": "address",
          "name": "seller",
          "type": "address"
        },
        {
          "indexed": true,
          "internalType": "address",
          "name": "buyer",
          "type": "address"
        },
        {
          "indexed": false,
          "internalType": "uint256",
          "name": "price",
          "type": "uint256"
        }
      ],
      "name": "ItemSold",
      "type": "event"
    },
    {
      "anonymous": false,
      "inputs": [
        {
          "indexed": true,
          "internalType": "uint256",
          "name": "tokenId",
          "type": "uint256"
        }
      ],
      "name": "ListingCancelled",
      "type": "event"
    },
    {
      "anonymous": false,
      "inputs": [
        {
          "indexed": true,
          "internalType": "uint256",
          "name": "tokenId",
          "type": "uint256"
        },
        {
          "indexed": false,
          "internalType": "uint256",
          "name": "newPrice",
          "type": "uint256"
        }
      ],
      "name": "ListingUpdated",
      "type": "event"
    },
    {
      "anonymous": false,
      "inputs": [
        {
          "indexed": false,
          "internalType": "bool",
          "name": "isPaused",
          "type": "bool"
        }
      ],
      "name": "MarketplacePaused",
      "type": "event"
    },
    {
      "anonymous": false,
      "inputs": [
        {
          "indexed": true,
          "internalType": "address",
          "name": "previousOwner",
          "type": "address"
        },
        {
          "indexed": true,
          "internalType": "address",
          "name": "newOwner",
          "type": "address"
        }
      ],
      "name": "OwnershipTransferred",
      "type": "event"
    },
    {
      "anonymous": false,
      "inputs": [
        {
          "indexed": false,
          "internalType": "uint256",
          "name": "newFeeBps",
          "type": "uint256"
        }
      ],
      "name": "PlatformFeeUpdated",
      "type": "event"
    },
    {
      "inputs": [],
      "name": "MAX_FEE_BPS",
      "outputs": [
        {
          "internalType": "uint256",
          "name": "",
          "type": "uint256"
        }
      ],
      "stateMutability": "view",
      "type": "function"
    },
    {
      "inputs": [
        {
          "internalType": "uint256",
          "name": "",
          "type": "uint256"
        }
      ],
      "name": "auctions",
      "outputs": [
        {
          "internalType": "address",
          "name": "seller",
          "type": "address"
        },
        {
          "internalType": "uint256",
          "name": "startingPrice",
          "type": "uint256"
        },
        {
          "internalType": "uint256",
          "name": "highestBid",
          "type": "uint256"
        },
        {
          "internalType": "address",
          "name": "highestBidder",
          "type": "address"
        },
        {
          "internalType": "uint256",
          "name": "endTime",
          "type": "uint256"
        },
        {
          "internalType": "bool",
          "name": "active",
          "type": "bool"
        },
        {
          "internalType": "bool",
          "name": "settled",
          "type": "bool"
        }
      ],
      "stateMutability": "view",
      "type": "function"
    },
    {
      "inputs": [
        {
          "internalType": "uint256",
          "name": "tokenId",
          "type": "uint256"
        }
      ],
      "name": "buyItem",
      "outputs": [],
      "stateMutability": "payable",
      "type": "function"
    },
    {
      "inputs": [
        {
          "internalType": "uint256",
          "name": "tokenId",
          "type": "uint256"
        }
      ],
      "name": "cancelAuction",
      "outputs": [],
      "stateMutability": "nonpayable",
      "type": "function"
    },
    {
      "inputs": [
        {
          "internalType": "uint256",
          "name": "tokenId",
          "type": "uint256"
        }
      ],
      "name": "cancelListing",
      "outputs": [],
      "stateMutability": "nonpayable",
      "type": "function"
    },
    {
      "inputs": [
        {
          "internalType": "uint256",
          "name": "tokenId",
          "type": "uint256"
        },
        {
          "internalType": "uint256",
          "name": "startingPrice",
          "type": "uint256"
        },
        {
          "internalType": "uint256",
          "name": "duration",
          "type": "uint256"
        }
      ],
      "name": "createAuction",
      "outputs": [],
      "stateMutability": "nonpayable",
      "type": "function"
    },
    {
      "inputs": [
        {
          "internalType": "uint256",
          "name": "tokenId",
          "type": "uint256"
        }
      ],
      "name": "endAuction",
      "outputs": [],
      "stateMutability": "nonpayable",
      "type": "function"
    },
    {
      "inputs": [],
      "name": "feeRecipient",
      "outputs": [
        {
          "internalType": "address",
          "name": "",
          "type": "address"
        }
      ],
      "stateMutability": "view",
      "type": "function"
    },
    {
      "inputs": [
        {
          "internalType": "uint256",
          "name": "tokenId",
          "type": "uint256"
        }
      ],
      "name": "getAuction",
      "outputs": [
        {
          "components": [
            {
              "internalType": "address",
              "name": "seller",
              "type": "address"
            },
            {
              "internalType": "uint256",
              "name": "startingPrice",
              "type": "uint256"
            },
            {
              "internalType": "uint256",
              "name": "highestBid",
              "type": "uint256"
            },
            {
              "internalType": "address",
              "name": "highestBidder",
              "type": "address"
            },
            {
              "internalType": "uint256",
              "name": "endTime",
              "type": "uint256"
            },
            {
              "internalType": "bool",
              "name": "active",
              "type": "bool"
            },
            {
              "internalType": "bool",
              "name": "settled",
              "type": "bool"
            }
          ],
          "internalType": "struct PokechainMarketplace.Auction",
          "name": "",
          "type": "tuple"
        }
      ],
      "stateMutability": "view",
      "type": "function"
    },
    {
      "inputs": [
        {
          "internalType": "uint256",
          "name": "tokenId",
          "type": "uint256"
        }
      ],
      "name": "getListing",
      "outputs": [
        {
          "components": [
            {
              "internalType": "address",
              "name": "seller",
              "type": "address"
            },
            {
              "internalType": "uint256",
              "name": "price",
              "type": "uint256"
            },
            {
              "internalType": "bool",
              "name": "active",
              "type": "bool"
            }
          ],
          "internalType": "struct PokechainMarketplace.Listing",
          "name": "",
          "type": "tuple"
        }
      ],
      "stateMutability": "view",
      "type": "function"
    },
    {
      "inputs": [
        {
          "internalType": "address",
          "name": "user",
          "type": "address"
        }
      ],
      "name": "getPendingReturns",
      "outputs": [
        {
          "internalType": "uint256",
          "name": "",
          "type": "uint256"
        }
      ],
      "stateMutability": "view",
      "type": "function"
    },
    {
      "inputs": [
        {
          "internalType": "uint256",
          "name": "tokenId",
          "type": "uint256"
        }
      ],
      "name": "getTokenStatus",
      "outputs": [
        {
          "internalType": "enum PokechainMarketplace.TokenStatus",
          "name": "status",
          "type": "uint8"
        },
        {
          "internalType": "uint256",
          "name": "price",
          "type": "uint256"
        },
        {
          "internalType": "address",
          "name": "seller",
          "type": "address"
        },
        {
          "internalType": "uint256",
          "name": "endTime",
          "type": "uint256"
        }
      ],
      "stateMutability": "view",
      "type": "function"
    },
    {
      "inputs": [
        {
          "internalType": "uint256",
          "name": "tokenId",
          "type": "uint256"
        }
      ],
      "name": "isInAuction",
      "outputs": [
        {
          "internalType": "bool",
          "name": "",
          "type": "bool"
        }
      ],
      "stateMutability": "view",
      "type": "function"
    },
    {
      "inputs": [
        {
          "internalType": "uint256",
          "name": "tokenId",
          "type": "uint256"
        }
      ],
      "name": "isListed",
      "outputs": [
        {
          "internalType": "bool",
          "name": "",
          "type": "bool"
        }
      ],
      "stateMutability": "view",
      "type": "function"
    },
    {
      "inputs": [
        {
          "internalType": "uint256",
          "name": "tokenId",
          "type": "uint256"
        },
        {
          "internalType": "uint256",
          "name": "price",
          "type": "uint256"
        }
      ],
      "name": "listItem",
      "outputs": [],
      "stateMutability": "nonpayable",
      "type": "function"
    },
    {
      "inputs": [
        {
          "internalType": "uint256",
          "name": "",
          "type": "uint256"
        }
      ],
      "name": "listings",
      "outputs": [
        {
          "internalType": "address",
          "name": "seller",
          "type": "address"
        },
        {
          "internalType": "uint256",
          "name": "price",
          "type": "uint256"
        },
        {
          "internalType": "bool",
          "name": "active",
          "type": "bool"
        }
      ],
      "stateMutability": "view",
      "type": "function"
    },
    {
      "inputs": [],
      "name": "nftContract",
      "outputs": [
        {
          "internalType": "contract IERC721",
          "name": "",
          "type": "address"
        }
      ],
      "stateMutability": "view",
      "type": "function"
    },
    {
      "inputs": [],
      "name": "owner",
      "outputs": [
        {
          "internalType": "address",
          "name": "",
          "type": "address"
        }
      ],
      "stateMutability": "view",
      "type": "function"
    },
    {
      "inputs": [],
      "name": "paused",
      "outputs": [
        {
          "internalType": "bool",
          "name": "",
          "type": "bool"
        }
      ],
      "stateMutability": "view",
      "type": "function"
    },
    {
      "inputs": [
        {
          "internalType": "address",
          "name": "",
          "type": "address"
        }
      ],
      "name": "pendingReturns",
      "outputs": [
        {
          "internalType": "uint256",
          "name": "",
          "type": "uint256"
        }
      ],
      "stateMutability": "view",
      "type": "function"
    },
    {
      "inputs": [
        {
          "internalType": "uint256",
          "name": "tokenId",
          "type": "uint256"
        }
      ],
      "name": "placeBid",
      "outputs": [],
      "stateMutability": "payable",
      "type": "function"
    },
    {
      "inputs": [],
      "name": "platformFeeBps",
      "outputs": [
        {
          "internalType": "uint256",
          "name": "",
          "type": "uint256"
        }
      ],
      "stateMutability": "view",
      "type": "function"
    },
    {
      "inputs": [],
      "name": "renounceOwnership",
      "outputs": [],
      "stateMutability": "nonpayable",
      "type": "function"
    },
    {
      "inputs": [
        {
          "internalType": "address",
          "name": "newRecipient",
          "type": "address"
        }
      ],
      "name": "setFeeRecipient",
      "outputs": [],
      "stateMutability": "nonpayable",
      "type": "function"
    },
    {
      "inputs": [
        {
          "internalType": "uint256",
          "name": "newFeeBps",
          "type": "uint256"
        }
      ],
      "name": "setPlatformFee",
      "outputs": [],
      "stateMutability": "nonpayable",
      "type": "function"
    },
    {
      "inputs": [],
      "name": "togglePause",
      "outputs": [],
      "stateMutability": "nonpayable",
      "type": "function"
    },
    {
      "inputs": [
        {
          "internalType": "address",
          "name": "newOwner",
          "type": "address"
        }
      ],
      "name": "transferOwnership",
      "outputs": [],
      "stateMutability": "nonpayable",
      "type": "function"
    },
    {
      "inputs": [
        {
          "internalType": "uint256",
          "name": "tokenId",
          "type": "uint256"
        },
        {
          "internalType": "uint256",
          "name": "newPrice",
          "type": "uint256"
        }
      ],
      "name": "updateListing",
      "outputs": [],
      "stateMutability": "nonpayable",
      "type": "function"
    },
    {
      "inputs": [],
      "name": "withdraw",
      "outputs": [],
      "stateMutability": "nonpayable",
      "type": "function"
    }
  ],
  "bytecode": "0x60a060405260fa6002556003805460ff60a01b19169055348015610021575f5ffd5b506040516129b43803806129b483398101604081905261004091610192565b60015f5561004d33610126565b6001600160a01b0382166100a85760405162461bcd60e51b815260206004820152601c60248201527f496e76616c6964204e465420636f6e747261637420616464726573730000000060448201526064015b60405180910390fd5b6001600160a01b0381166100fe5760405162461bcd60e51b815260206004820152601d60248201527f496e76616c69642066656520726563697069656e742061646472657373000000604482015260640161009f565b6001600160a01b03918216608052600380546001600160a01b031916919092161790556101c3565b600180546001600160a01b038381166001600160a01b0319831681179093556040519116919082907f8be0079c531659141344cd1fd0a4f28419497f9722a3daafe3b4186f6b6457e0905f90a35050565b80516001600160a01b038116811461018d575f5ffd5b919050565b5f5f604083850312156101a3575f5ffd5b6101ac83610177565b91506101ba60208401610177565b90509250929050565b6080516127a16102135f395f81816106f201528181610d0401528181610dd301528181610e670152818161171c01528181611b4001528181611c0f01528181611ca301526121da01526127a15ff3fe6080604052600436106101ba575f3560e01c80638da5cb5b116100f2578063cda4beef11610092578063e74b981b11610062578063e74b981b14610782578063e7fb74c7146107a1578063f2fde38b146107b4578063fcce4883146107d3575f5ffd5b8063cda4beef146106ad578063d55be8c6146106cc578063d56d229d146106e1578063de74e57b14610714575f5ffd5b80639979ef45116100cd5780639979ef4514610635578063b9a2de3a14610648578063c3c5efaf14610667578063c4ae316814610699575f5ffd5b80638da5cb5b146105ca5780638f07c2b4146105e757806396b5a75514610616575f5ffd5b8063469048401161015d578063715018a611610138578063715018a61461043757806378bd79351461044b57806383ffda3b14610577578063883efa67146105ab575f5ffd5b80634690484014610323578063571a26a01461035a5780635c975abb14610407575f5ffd5b806322dcd13e1161019857806322dcd13e146102a257806326b387bb146102c5578063305a67a8146102f05780633ccfd60b1461030f575f5ffd5b80630179ea88146101be578063107a274a146101df57806312e8e2c314610283575b5f5ffd5b3480156101c9575f5ffd5b506101dd6101d8366004612504565b610804565b005b3480156101ea575f5ffd5b506102516101f9366004612524565b60408051606080820183525f808352602080840182905292840181905293845260048252928290208251938401835280546001600160a01b031684526001810154918401919091526002015460ff1615159082015290565b6040805182516001600160a01b0316815260208084015190820152918101511515908201526060015b60405180910390f35b34801561028e575f5ffd5b506101dd61029d366004612524565b6108f7565b3480156102ad575f5ffd5b506102b760025481565b60405190815260200161027a565b3480156102d0575f5ffd5b506102b76102df36600461254f565b60066020525f908152604090205481565b3480156102fb575f5ffd5b506101dd61030a366004612524565b61099d565b34801561031a575f5ffd5b506101dd610a4f565b34801561032e575f5ffd5b50600354610342906001600160a01b031681565b6040516001600160a01b03909116815260200161027a565b348015610365575f5ffd5b506103c2610374366004612524565b600560208190525f91825260409091208054600182015460028301546003840154600485015494909501546001600160a01b0393841695929491939092169160ff8082169161010090041687565b604080516001600160a01b0398891681526020810197909752860194909452949091166060840152608083015291151560a082015290151560c082015260e00161027a565b348015610412575f5ffd5b5060035461042790600160a01b900460ff1681565b604051901515815260200161027a565b348015610442575f5ffd5b506101dd610b82565b348015610456575f5ffd5b50610514610465366004612524565b6040805160e0810182525f80825260208201819052918101829052606081018290526080810182905260a0810182905260c0810191909152505f90815260056020818152604092839020835160e08101855281546001600160a01b0390811682526001830154938201939093526002820154948101949094526003810154909116606084015260048101546080840152015460ff808216151560a084015261010090910416151560c082015290565b60405161027a919081516001600160a01b0390811682526020808401519083015260408084015190830152606080840151909116908201526080808301519082015260a08281015115159082015260c09182015115159181019190915260e00190565b348015610582575f5ffd5b506102b761059136600461254f565b6001600160a01b03165f9081526006602052604090205490565b3480156105b6575f5ffd5b506101dd6105c5366004612504565b610bb5565b3480156105d5575f5ffd5b506001546001600160a01b0316610342565b3480156105f2575f5ffd5b50610606610601366004612524565b610fb8565b60405161027a9493929190612571565b348015610621575f5ffd5b506101dd610630366004612524565b6110f7565b6101dd610643366004612524565b611224565b348015610653575f5ffd5b506101dd610662366004612524565b6114d3565b348015610672575f5ffd5b50610427610681366004612524565b5f908152600560208190526040909120015460ff1690565b3480156106a4575f5ffd5b506101dd6118ae565b3480156106b8575f5ffd5b506101dd6106c73660046125b6565b61193e565b3480156106d7575f5ffd5b506102b76103e881565b3480156106ec575f5ffd5b506103427f000000000000000000000000000000000000000000000000000000000000000081565b34801561071f575f5ffd5b5061075b61072e366004612524565b60046020525f90815260409020805460018201546002909201546001600160a01b03909116919060ff1683565b604080516001600160a01b039094168452602084019290925215159082015260600161027a565b34801561078d575f5ffd5b506101dd61079c36600461254f565b611ece565b6101dd6107af366004612524565b611f8f565b3480156107bf575f5ffd5b506101dd6107ce36600461254f565b6123c4565b3480156107de575f5ffd5b506104276107ed366004612524565b5f9081526004602052604090206002015460ff1690565b5f828152600460205260409020600281015460ff1661083e5760405162461bcd60e51b8152600401610835906125df565b60405180910390fd5b80546001600160a01b031633146108675760405162461bcd60e51b815260040161083590612603565b5f82116108b65760405162461bcd60e51b815260206004820152601c60248201527f5072696365206d7573742062652067726561746572207468616e2030000000006044820152606401610835565b6001810182905560405182815283907f66bcde9f7aec9b81719a4fdec54cbafbf6c834d1f2f989d9cd2134dab8d0c0de9060200160405180910390a2505050565b6001546001600160a01b031633146109215760405162461bcd60e51b81526004016108359061262b565b6103e88111156109625760405162461bcd60e51b815260206004820152600c60248201526b08ccaca40e8dede40d0d2ced60a31b6044820152606401610835565b60028190556040518181527f45610d581145924dd7090a5017e5f2b1d6f42213bb2e95707ff86846bbfcb1ca9060200160405180910390a150565b5f818152600460205260409020600281015460ff166109ce5760405162461bcd60e51b8152600401610835906125df565b80546001600160a01b031633146109f75760405162461bcd60e51b815260040161083590612603565b5f8281526004602052604080822080546001600160a01b031916815560018101839055600201805460ff191690555183917f411aee90354c51b1b04cd563fcab2617142a9d50da19232d888547c8a1b7fd8a91a25050565b610a5761245c565b335f9081526006602052604090205480610aaa5760405162461bcd60e51b81526020600482015260146024820152734e6f2066756e647320746f20776974686472617760601b6044820152606401610835565b335f818152600660205260408082208290555190919083908381818185875af1925050503d805f8114610af8576040519150601f19603f3d011682016040523d82523d5f602084013e610afd565b606091505b5050905080610b405760405162461bcd60e51b815260206004820152600f60248201526e15da5d1a191c985dc819985a5b1959608a1b6044820152606401610835565b60405182815233907feaff4b37086828766ad3268786972c0cd24259d4c87a80f9d3963a3c3d999b0d9060200160405180910390a25050610b8060015f55565b565b6001546001600160a01b03163314610bac5760405162461bcd60e51b81526004016108359061262b565b610b805f6124b3565b600354600160a01b900460ff1615610bdf5760405162461bcd60e51b815260040161083590612660565b5f82815260046020526040902060020154829060ff1615610c3c5760405162461bcd60e51b8152602060048201526017602482015276416c7265616479206c697374656420666f722073616c6560481b6044820152606401610835565b5f8381526005602081905260409091200154839060ff1615610c955760405162461bcd60e51b815260206004820152601260248201527120b63932b0b23c9034b71030bab1ba34b7b760711b6044820152606401610835565b5f8311610ce45760405162461bcd60e51b815260206004820152601c60248201527f5072696365206d7573742062652067726561746572207468616e2030000000006044820152606401610835565b6040516331a9108f60e11b81526004810185905233906001600160a01b037f00000000000000000000000000000000000000000000000000000000000000001690636352211e90602401602060405180830381865afa158015610d49573d5f5f3e3d5ffd5b505050506040513d601f19601f82011682018060405250810190610d6d919061268f565b6001600160a01b031614610db35760405162461bcd60e51b815260206004820152600d60248201526c2737ba103a34329037bbb732b960991b6044820152606401610835565b60405163020604bf60e21b81526004810185905230906001600160a01b037f0000000000000000000000000000000000000000000000000000000000000000169063081812fc90602401602060405180830381865afa158015610e18573d5f5f3e3d5ffd5b505050506040513d601f19601f82011682018060405250810190610e3c919061268f565b6001600160a01b03161480610ed8575060405163e985e9c560e01b81523360048201523060248201527f00000000000000000000000000000000000000000000000000000000000000006001600160a01b03169063e985e9c590604401602060405180830381865afa158015610eb4573d5f5f3e3d5ffd5b505050506040513d601f19601f82011682018060405250810190610ed891906126aa565b610f1f5760405162461bcd60e51b815260206004820152601860248201527713585c9ad95d1c1b1858d9481b9bdd08185c1c1c9bdd995960421b6044820152606401610835565b6040805160608101825233808252602080830187815260018486018181525f8b815260048552879020955186546001600160a01b0319166001600160a01b03909116178655915190850155516002909301805460ff191693151593909317909255915185815286917fc93edc6ee14cd6c0c2842099adfa8953b237dbdad304ba28e96dce8a7f2a828c910160405180910390a350505050565b5f8181526004602052604081206002015481908190819060ff1615611025575050505f828152600460209081526040808320815160608101835281546001600160a01b031680825260018084015495830186905260029093015460ff1615159190930152935090916110f0565b5f858152600560208190526040909120015460ff16156110e4575f858152600560208181526040808420815160e08101835281546001600160a01b039081168252600183015494820194909452600282015492810183905260038201549093166060840152600481015460808401529092015460ff808216151560a084015261010090910416151560c082015291906110c25781602001516110c8565b81604001515b8251608090930151600297509095509193509091506110f09050565b505f9250829150819050805b9193509193565b5f8181526005602081905260409091209081015460ff1661112a5760405162461bcd60e51b8152600401610835906126c9565b80546001600160a01b031633146111535760405162461bcd60e51b815260040161083590612603565b60038101546001600160a01b0316156111ae5760405162461bcd60e51b815260206004820152601760248201527f43616e6e6f742063616e63656c207769746820626964730000000000000000006044820152606401610835565b5f82815260056020819052604080832080546001600160a01b031990811682556001820185905560028201859055600382018054909116905560048101849055909101805461ffff191690555183917f2809c7e17bf978fbc7194c0a694b638c4215e9140cacc6c38ca36010b45697df91a25050565b600354600160a01b900460ff161561124e5760405162461bcd60e51b815260040161083590612660565b61125661245c565b5f8181526005602081905260409091209081015460ff166112895760405162461bcd60e51b8152600401610835906126c9565b6005810154610100900460ff16156112dd5760405162461bcd60e51b8152602060048201526017602482015276105d58dd1a5bdb88185b1c9958591e481cd95d1d1b1959604a1b6044820152606401610835565b806004015442106113245760405162461bcd60e51b8152602060048201526011602482015270105d58dd1a5bdb881a185cc8195b991959607a1b6044820152606401610835565b80546001600160a01b031633036113715760405162461bcd60e51b815260206004820152601160248201527014d95b1b195c8818d85b9b9bdd08189a59607a1b6044820152606401610835565b80600201545f036113d55780600101543410156113d05760405162461bcd60e51b815260206004820152601860248201527f4269642062656c6f77207374617274696e6720707269636500000000000000006044820152606401610835565b611428565b806002015434116114285760405162461bcd60e51b815260206004820152601f60248201527f426964206d757374206578636565642063757272656e742068696768657374006044820152606401610835565b60038101546001600160a01b03161561147157600281015460038201546001600160a01b03165f908152600660205260408120805490919061146b908490612709565b90915550505b34600282018190556003820180546001600160a01b031916339081179091556040519182529083907f0e54eff26401bf69b81b26f60bd85ef47f5d85275c1d268d84f68d6897431c479060200160405180910390a3506114d060015f55565b50565b6114db61245c565b5f8181526005602081905260409091209081015460ff1661150e5760405162461bcd60e51b8152600401610835906126c9565b6005810154610100900460ff16156115625760405162461bcd60e51b8152602060048201526017602482015276105d58dd1a5bdb88185b1c9958591e481cd95d1d1b1959604a1b6044820152606401610835565b80600401544210156115ae5760405162461bcd60e51b8152602060048201526015602482015274105d58dd1a5bdb881b9bdd081e595d08195b991959605a1b6044820152606401610835565b60058101805461ffff191661010017905560038101546001600160a01b031615611869575f61271060025483600201546115e89190612722565b6115f29190612739565b90505f8183600201546116059190612758565b905081156116e7576003546040515f916001600160a01b03169084908381818185875af1925050503d805f8114611657576040519150601f19603f3d011682016040523d82523d5f602084013e61165c565b606091505b50509050806116a35760405162461bcd60e51b8152602060048201526013602482015272119959481d1c985b9cd9995c8819985a5b1959606a1b6044820152606401610835565b6003546040518481526001600160a01b03909116907f58793df5f4d270351f09efd433db93c69432142b69dc7ee38195fc630478c79f9060200160405180910390a2505b825460038401546040516323b872dd60e01b81526001600160a01b0392831660048201529082166024820152604481018690527f0000000000000000000000000000000000000000000000000000000000000000909116906323b872dd906064015f604051808303815f87803b15801561175f575f5ffd5b505af1158015611771573d5f5f3e3d5ffd5b505084546040515f93506001600160a01b03909116915083908381818185875af1925050503d805f81146117c0576040519150601f19603f3d011682016040523d82523d5f602084013e6117c5565b606091505b50509050806118115760405162461bcd60e51b815260206004820152601860248201527714185e5b595b9d081d1bc81cd95b1b195c8819985a5b195960421b6044820152606401610835565b60038401546002850154604080516001600160a01b039093168352602083019190915286917fd2aa34a4fdbbc6dff6a3e56f46e0f3ae2a31d7785ff3487aa5c95c642acea501910160405180910390a25050506118a4565b604080515f808252602082015283917fd2aa34a4fdbbc6dff6a3e56f46e0f3ae2a31d7785ff3487aa5c95c642acea501910160405180910390a25b506114d060015f55565b6001546001600160a01b031633146118d85760405162461bcd60e51b81526004016108359061262b565b6003805460ff600160a01b808304821615810260ff60a01b1990931692909217928390556040517f2d8cb32b79ced32c38fb4a61d8482c40627602feb2cc34b50d9b55eea376d88c936119349390049091161515815260200190565b60405180910390a1565b600354600160a01b900460ff16156119685760405162461bcd60e51b815260040161083590612660565b5f83815260046020526040902060020154839060ff16156119c55760405162461bcd60e51b8152602060048201526017602482015276416c7265616479206c697374656420666f722073616c6560481b6044820152606401610835565b5f8481526005602081905260409091200154849060ff1615611a1e5760405162461bcd60e51b815260206004820152601260248201527120b63932b0b23c9034b71030bab1ba34b7b760711b6044820152606401610835565b5f8411611a7b5760405162461bcd60e51b815260206004820152602560248201527f5374617274696e67207072696365206d75737420626520677265617465722074604482015264068616e20360dc1b6064820152608401610835565b610e10831015611acd5760405162461bcd60e51b815260206004820181905260248201527f4475726174696f6e206d757374206265206174206c65617374203120686f75726044820152606401610835565b62093a80831115611b205760405162461bcd60e51b815260206004820152601f60248201527f4475726174696f6e206d757374206265206174206d6f737420372064617973006044820152606401610835565b6040516331a9108f60e11b81526004810186905233906001600160a01b037f00000000000000000000000000000000000000000000000000000000000000001690636352211e90602401602060405180830381865afa158015611b85573d5f5f3e3d5ffd5b505050506040513d601f19601f82011682018060405250810190611ba9919061268f565b6001600160a01b031614611bef5760405162461bcd60e51b815260206004820152600d60248201526c2737ba103a34329037bbb732b960991b6044820152606401610835565b60405163020604bf60e21b81526004810186905230906001600160a01b037f0000000000000000000000000000000000000000000000000000000000000000169063081812fc90602401602060405180830381865afa158015611c54573d5f5f3e3d5ffd5b505050506040513d601f19601f82011682018060405250810190611c78919061268f565b6001600160a01b03161480611d14575060405163e985e9c560e01b81523360048201523060248201527f00000000000000000000000000000000000000000000000000000000000000006001600160a01b03169063e985e9c590604401602060405180830381865afa158015611cf0573d5f5f3e3d5ffd5b505050506040513d601f19601f82011682018060405250810190611d1491906126aa565b611d5b5760405162461bcd60e51b815260206004820152601860248201527713585c9ad95d1c1b1858d9481b9bdd08185c1c1c9bdd995960421b6044820152606401610835565b5f611d668442612709565b90506040518060e00160405280336001600160a01b031681526020018681526020015f81526020015f6001600160a01b031681526020018281526020016001151581526020015f151581525060055f8881526020019081526020015f205f820151815f015f6101000a8154816001600160a01b0302191690836001600160a01b0316021790555060208201518160010155604082015181600201556060820151816003015f6101000a8154816001600160a01b0302191690836001600160a01b031602179055506080820151816004015560a0820151816005015f6101000a81548160ff02191690831515021790555060c08201518160050160016101000a81548160ff021916908315150217905550905050336001600160a01b0316867fc9050d42180a61cb0d9ebb8ad118b62fe6eab12cf12ff752c4a0cc7da9ddf6278784604051611ebe929190918252602082015260400190565b60405180910390a3505050505050565b6001546001600160a01b03163314611ef85760405162461bcd60e51b81526004016108359061262b565b6001600160a01b038116611f465760405162461bcd60e51b8152602060048201526015602482015274125b9d985b1a5908199959481c9958da5c1a595b9d605a1b6044820152606401610835565b600380546001600160a01b0319166001600160a01b0383169081179091556040517f7a7b5a0a132f9e0581eb8527f66eae9ee89c2a3e79d4ac7e41a1f1f4d48a7fc2905f90a250565b600354600160a01b900460ff1615611fb95760405162461bcd60e51b815260040161083590612660565b611fc161245c565b5f81815260046020908152604091829020825160608101845281546001600160a01b031681526001820154928101929092526002015460ff1615159181018290529061201f5760405162461bcd60e51b8152600401610835906125df565b806020015134101561206a5760405162461bcd60e51b8152602060048201526014602482015273125b9cdd59999a58da595b9d081c185e5b595b9d60621b6044820152606401610835565b5f828152600460209081526040822080546001600160a01b0319168155600181018390556002908101805460ff191690555490830151612710916120ad91612722565b6120b79190612739565b90505f8183602001516120ca9190612758565b905081156121ac576003546040515f916001600160a01b03169084908381818185875af1925050503d805f811461211c576040519150601f19603f3d011682016040523d82523d5f602084013e612121565b606091505b50509050806121685760405162461bcd60e51b8152602060048201526013602482015272119959481d1c985b9cd9995c8819985a5b1959606a1b6044820152606401610835565b6003546040518481526001600160a01b03909116907f58793df5f4d270351f09efd433db93c69432142b69dc7ee38195fc630478c79f9060200160405180910390a2505b82516040516323b872dd60e01b81526001600160a01b039182166004820152336024820152604481018690527f0000000000000000000000000000000000000000000000000000000000000000909116906323b872dd906064015f604051808303815f87803b15801561221d575f5ffd5b505af115801561222f573d5f5f3e3d5ffd5b505050505f835f01516001600160a01b0316826040515f6040518083038185875af1925050503d805f811461227f576040519150601f19603f3d011682016040523d82523d5f602084013e612284565b606091505b50509050806122d05760405162461bcd60e51b815260206004820152601860248201527714185e5b595b9d081d1bc81cd95b1b195c8819985a5b195960421b6044820152606401610835565b83602001513411156123705760208401515f9033906122ef9034612758565b6040515f81818185875af1925050503d805f8114612328576040519150601f19603f3d011682016040523d82523d5f602084013e61232d565b606091505b505090508061236e5760405162461bcd60e51b815260206004820152600d60248201526c1499599d5b990819985a5b1959609a1b6044820152606401610835565b505b835160208086015160405190815233926001600160a01b03169188917f04ddd54c6b746e69ba87f862311f7670bd1d7276846778ac81cd38747b27a746910160405180910390a4505050506114d060015f55565b6001546001600160a01b031633146123ee5760405162461bcd60e51b81526004016108359061262b565b6001600160a01b0381166124535760405162461bcd60e51b815260206004820152602660248201527f4f776e61626c653a206e6577206f776e657220697320746865207a65726f206160448201526564647265737360d01b6064820152608401610835565b6114d0816124b3565b60025f54036124ad5760405162461bcd60e51b815260206004820152601f60248201527f5265656e7472616e637947756172643a207265656e7472616e742063616c6c006044820152606401610835565b60025f55565b600180546001600160a01b038381166001600160a01b0319831681179093556040519116919082907f8be0079c531659141344cd1fd0a4f28419497f9722a3daafe3b4186f6b6457e0905f90a35050565b5f5f60408385031215612515575f5ffd5b50508035926020909101359150565b5f60208284031215612534575f5ffd5b5035919050565b6001600160a01b03811681146114d0575f5ffd5b5f6020828403121561255f575f5ffd5b813561256a8161253b565b9392505050565b608081016003861061259157634e487b7160e01b5f52602160045260245ffd5b94815260208101939093526001600160a01b0391909116604083015260609091015290565b5f5f5f606084860312156125c8575f5ffd5b505081359360208301359350604090920135919050565b6020808252600a9082015269139bdd081b1a5cdd195960b21b604082015260600190565b6020808252600e908201526d2737ba103a34329039b2b63632b960911b604082015260600190565b6020808252818101527f4f776e61626c653a2063616c6c6572206973206e6f7420746865206f776e6572604082015260600190565b60208082526015908201527413585c9ad95d1c1b1858d9481a5cc81c185d5cd959605a1b604082015260600190565b5f6020828403121561269f575f5ffd5b815161256a8161253b565b5f602082840312156126ba575f5ffd5b8151801515811461256a575f5ffd5b60208082526012908201527141756374696f6e206e6f742061637469766560701b604082015260600190565b634e487b7160e01b5f52601160045260245ffd5b8082018082111561271c5761271c6126f5565b92915050565b808202811582820484141761271c5761271c6126f5565b5f8261275357634e487b7160e01b5f52601260045260245ffd5b500490565b8181038181111561271c5761271c6126f556fea26469706673582212204c8e6446ae2c321ed1e871bcd23d54ed9c759a60f467ecf19bc03f66f213b9a364736f6c634300081c0033",
  "linkReferences": {},
  "deployedLinkReferences": {}
}