{
  "_format": "hh-sol-artifact-1",
  "contractName": "PokechainMarketplace",
  "sourceName": "contracts/PokechainMarketplace.sol",
  "abi": [
    {
      "inputs": [
        {
          "internalType": "address",
          "name": "_nftContract",
          "type": "address"
        }
      ],
      "stateMutability": "nonpayable",
      "type": "constructor"
    },
    {
      "anonymous": false,
      "inputs": [
        {
          "indexed": true,
          "internalType": "uint256",
          "name": "tokenId",
          "type": "uint256"
        }
      ],
      "name": "AuctionCancelled",
      "type": "event"
    },
    {
      "anonymous": false,
      "inputs": [
        {
          "indexed": true,
          "internalType": "uint256",
          "name": "tokenId",
          "type": "uint256"
        },
        {
          "indexed": true,
          "internalType": "address",
          "name": "seller",
          "type": "address"
        },
        {
          "indexed": false,
          "internalType": "uint256",
          "name": "startingPrice",
          "type": "uint256"
        },
        {
          "indexed": false,
          "internalType": "uint256",
          "name": "endTime",
          "type": "uint256"
        }
      ],
      "name": "AuctionCreated",
      "type": "event"
    },
    {
      "anonymous": false,
      "inputs": [
        {
          "indexed": true,
          "internalType": "uint256",
          "name": "tokenId",
          "type": "uint256"
        },
        {
          "indexed": false,
          "internalType": "address",
          "name": "winner",
          "type": "address"
        },
        {
          "indexed": false,
          "internalType": "uint256",
          "name": "amount",
          "type": "uint256"
        }
      ],
      "name": "AuctionEnded",
      "type": "event"
    },
    {
      "anonymous": false,
      "inputs": [
        {
          "indexed": true,
          "internalType": "uint256",
          "name": "tokenId",
          "type": "uint256"
        },
        {
          "indexed": true,
          "internalType": "address",
          "name": "bidder",
          "type": "address"
        },
        {
          "indexed": false,
          "internalType": "uint256",
          "name": "amount",
          "type": "uint256"
        }
      ],
      "name": "BidPlaced",
      "type": "event"
    },
    {
      "anonymous": false,
      "inputs": [
        {
          "indexed": true,
          "internalType": "address",
          "name": "user",
          "type": "address"
        },
        {
          "indexed": false,
          "internalType": "uint256",
          "name": "amount",
          "type": "uint256"
        }
      ],
      "name": "FundsWithdrawn",
      "type": "event"
    },
    {
      "anonymous": false,
      "inputs": [
        {
          "indexed": true,
          "internalType": "uint256",
          "name": "tokenId",
          "type": "uint256"
        },
        {
          "indexed": true,
          "internalType": "address",
          "name": "seller",
          "type": "address"
        },
        {
          "indexed": false,
          "internalType": "uint256",
          "name": "price",
          "type": "uint256"
        }
      ],
      "name": "ItemListed",
      "type": "event"
    },
    {
      "anonymous": false,
      "inputs": [
        {
          "indexed": true,
          "internalType": "uint256",
          "name": "tokenId",
          "type": "uint256"
        },
        {
          "indexed": true,
          "internalType": "address",
          "name": "seller",
          "type": "address"
        },
        {
          "indexed": true,
          "internalType": "address",
          "name": "buyer",
          "type": "address"
        },
        {
          "indexed": false,
          "internalType": "uint256",
          "name": "price",
          "type": "uint256"
        }
      ],
      "name": "ItemSold",
      "type": "event"
    },
    {
      "anonymous": false,
      "inputs": [
        {
          "indexed": true,
          "internalType": "uint256",
          "name": "tokenId",
          "type": "uint256"
        }
      ],
      "name": "ListingCancelled",
      "type": "event"
    },
    {
      "anonymous": false,
      "inputs": [
        {
          "indexed": true,
          "internalType": "uint256",
          "name": "tokenId",
          "type": "uint256"
        },
        {
          "indexed": false,
          "internalType": "uint256",
          "name": "newPrice",
          "type": "uint256"
        }
      ],
      "name": "ListingUpdated",
      "type": "event"
    },
    {
      "anonymous": false,
      "inputs": [
        {
          "indexed": false,
          "internalType": "bool",
          "name": "isPaused",
          "type": "bool"
        }
      ],
      "name": "MarketplacePaused",
      "type": "event"
    },
    {
      "anonymous": false,
      "inputs": [
        {
          "indexed": true,
          "internalType": "address",
          "name": "previousOwner",
          "type": "address"
        },
        {
          "indexed": true,
          "internalType": "address",
          "name": "newOwner",
          "type": "address"
        }
      ],
      "name": "OwnershipTransferred",
      "type": "event"
    },
    {
      "anonymous": false,
      "inputs": [
        {
          "indexed": false,
          "internalType": "uint256",
          "name": "newFeeBps",
          "type": "uint256"
        }
      ],
      "name": "PlatformFeeUpdated",
      "type": "event"
    },
    {
      "inputs": [],
      "name": "MAX_FEE_BPS",
      "outputs": [
        {
          "internalType": "uint256",
          "name": "",
          "type": "uint256"
        }
      ],
      "stateMutability": "view",
      "type": "function"
    },
    {
      "inputs": [
        {
          "internalType": "uint256",
          "name": "",
          "type": "uint256"
        }
      ],
      "name": "auctions",
      "outputs": [
        {
          "internalType": "address",
          "name": "seller",
          "type": "address"
        },
        {
          "internalType": "uint256",
          "name": "startingPrice",
          "type": "uint256"
        },
        {
          "internalType": "uint256",
          "name": "highestBid",
          "type": "uint256"
        },
        {
          "internalType": "address",
          "name": "highestBidder",
          "type": "address"
        },
        {
          "internalType": "uint256",
          "name": "endTime",
          "type": "uint256"
        },
        {
          "internalType": "bool",
          "name": "active",
          "type": "bool"
        },
        {
          "internalType": "bool",
          "name": "settled",
          "type": "bool"
        }
      ],
      "stateMutability": "view",
      "type": "function"
    },
    {
      "inputs": [
        {
          "internalType": "uint256",
          "name": "tokenId",
          "type": "uint256"
        }
      ],
      "name": "buyItem",
      "outputs": [],
      "stateMutability": "payable",
      "type": "function"
    },
    {
      "inputs": [
        {
          "internalType": "uint256",
          "name": "tokenId",
          "type": "uint256"
        }
      ],
      "name": "cancelAuction",
      "outputs": [],
      "stateMutability": "nonpayable",
      "type": "function"
    },
    {
      "inputs": [
        {
          "internalType": "uint256",
          "name": "tokenId",
          "type": "uint256"
        }
      ],
      "name": "cancelListing",
      "outputs": [],
      "stateMutability": "nonpayable",
      "type": "function"
    },
    {
      "inputs": [
        {
          "internalType": "uint256",
          "name": "tokenId",
          "type": "uint256"
        },
        {
          "internalType": "uint256",
          "name": "startingPrice",
          "type": "uint256"
        },
        {
          "internalType": "uint256",
          "name": "duration",
          "type": "uint256"
        }
      ],
      "name": "createAuction",
      "outputs": [],
      "stateMutability": "nonpayable",
      "type": "function"
    },
    {
      "inputs": [
        {
          "internalType": "uint256",
          "name": "tokenId",
          "type": "uint256"
        }
      ],
      "name": "endAuction",
      "outputs": [],
      "stateMutability": "nonpayable",
      "type": "function"
    },
    {
      "inputs": [
        {
          "internalType": "uint256",
          "name": "tokenId",
          "type": "uint256"
        }
      ],
      "name": "getAuction",
      "outputs": [
        {
          "components": [
            {
              "internalType": "address",
              "name": "seller",
              "type": "address"
            },
            {
              "internalType": "uint256",
              "name": "startingPrice",
              "type": "uint256"
            },
            {
              "internalType": "uint256",
              "name": "highestBid",
              "type": "uint256"
            },
            {
              "internalType": "address",
              "name": "highestBidder",
              "type": "address"
            },
            {
              "internalType": "uint256",
              "name": "endTime",
              "type": "uint256"
            },
            {
              "internalType": "bool",
              "name": "active",
              "type": "bool"
            },
            {
              "internalType": "bool",
              "name": "settled",
              "type": "bool"
            }
          ],
          "internalType": "struct PokechainMarketplace.Auction",
          "name": "",
          "type": "tuple"
        }
      ],
      "stateMutability": "view",
      "type": "function"
    },
    {
      "inputs": [
        {
          "internalType": "uint256",
          "name": "tokenId",
          "type": "uint256"
        }
      ],
      "name": "getListing",
      "outputs": [
        {
          "components": [
            {
              "internalType": "address",
              "name": "seller",
              "type": "address"
            },
            {
              "internalType": "uint256",
              "name": "price",
              "type": "uint256"
            },
            {
              "internalType": "bool",
              "name": "active",
              "type": "bool"
            }
          ],
          "internalType": "struct PokechainMarketplace.Listing",
          "name": "",
          "type": "tuple"
        }
      ],
      "stateMutability": "view",
      "type": "function"
    },
    {
      "inputs": [
        {
          "internalType": "address",
          "name": "user",
          "type": "address"
        }
      ],
      "name": "getPendingReturns",
      "outputs": [
        {
          "internalType": "uint256",
          "name": "",
          "type": "uint256"
        }
      ],
      "stateMutability": "view",
      "type": "function"
    },
    {
      "inputs": [
        {
          "internalType": "uint256",
          "name": "tokenId",
          "type": "uint256"
        }
      ],
      "name": "getTokenStatus",
      "outputs": [
        {
          "internalType": "enum PokechainMarketplace.TokenStatus",
          "name": "status",
          "type": "uint8"
        },
        {
          "internalType": "uint256",
          "name": "price",
          "type": "uint256"
        },
        {
          "internalType": "address",
          "name": "seller",
          "type": "address"
        },
        {
          "internalType": "uint256",
          "name": "endTime",
          "type": "uint256"
        }
      ],
      "stateMutability": "view",
      "type": "function"
    },
    {
      "inputs": [
        {
          "internalType": "uint256",
          "name": "tokenId",
          "type": "uint256"
        }
      ],
      "name": "isInAuction",
      "outputs": [
        {
          "internalType": "bool",
          "name": "",
          "type": "bool"
        }
      ],
      "stateMutability": "view",
      "type": "function"
    },
    {
      "inputs": [
        {
          "internalType": "uint256",
          "name": "tokenId",
          "type": "uint256"
        }
      ],
      "name": "isListed",
      "outputs": [
        {
          "internalType": "bool",
          "name": "",
          "type": "bool"
        }
      ],
      "stateMutability": "view",
      "type": "function"
    },
    {
      "inputs": [
        {
          "internalType": "uint256",
          "name": "tokenId",
          "type": "uint256"
        },
        {
          "internalType": "uint256",
          "name": "price",
          "type": "uint256"
        }
      ],
      "name": "listItem",
      "outputs": [],
      "stateMutability": "nonpayable",
      "type": "function"
    },
    {
      "inputs": [
        {
          "internalType": "uint256",
          "name": "",
          "type": "uint256"
        }
      ],
      "name": "listings",
      "outputs": [
        {
          "internalType": "address",
          "name": "seller",
          "type": "address"
        },
        {
          "internalType": "uint256",
          "name": "price",
          "type": "uint256"
        },
        {
          "internalType": "bool",
          "name": "active",
          "type": "bool"
        }
      ],
      "stateMutability": "view",
      "type": "function"
    },
    {
      "inputs": [],
      "name": "nftContract",
      "outputs": [
        {
          "internalType": "contract IERC721",
          "name": "",
          "type": "address"
        }
      ],
      "stateMutability": "view",
      "type": "function"
    },
    {
      "inputs": [],
      "name": "owner",
      "outputs": [
        {
          "internalType": "address",
          "name": "",
          "type": "address"
        }
      ],
      "stateMutability": "view",
      "type": "function"
    },
    {
      "inputs": [],
      "name": "paused",
      "outputs": [
        {
          "internalType": "bool",
          "name": "",
          "type": "bool"
        }
      ],
      "stateMutability": "view",
      "type": "function"
    },
    {
      "inputs": [
        {
          "internalType": "address",
          "name": "",
          "type": "address"
        }
      ],
      "name": "pendingReturns",
      "outputs": [
        {
          "internalType": "uint256",
          "name": "",
          "type": "uint256"
        }
      ],
      "stateMutability": "view",
      "type": "function"
    },
    {
      "inputs": [
        {
          "internalType": "uint256",
          "name": "tokenId",
          "type": "uint256"
        }
      ],
      "name": "placeBid",
      "outputs": [],
      "stateMutability": "payable",
      "type": "function"
    },
    {
      "inputs": [],
      "name": "platformFeeBps",
      "outputs": [
        {
          "internalType": "uint256",
          "name": "",
          "type": "uint256"
        }
      ],
      "stateMutability": "view",
      "type": "function"
    },
    {
      "inputs": [],
      "name": "renounceOwnership",
      "outputs": [],
      "stateMutability": "nonpayable",
      "type": "function"
    },
    {
      "inputs": [
        {
          "internalType": "uint256",
          "name": "newFeeBps",
          "type": "uint256"
        }
      ],
      "name": "setPlatformFee",
      "outputs": [],
      "stateMutability": "nonpayable",
      "type": "function"
    },
    {
      "inputs": [],
      "name": "togglePause",
      "outputs": [],
      "stateMutability": "nonpayable",
      "type": "function"
    },
    {
      "inputs": [
        {
          "internalType": "address",
          "name": "newOwner",
          "type": "address"
        }
      ],
      "name": "transferOwnership",
      "outputs": [],
      "stateMutability": "nonpayable",
      "type": "function"
    },
    {
      "inputs": [
        {
          "internalType": "uint256",
          "name": "tokenId",
          "type": "uint256"
        },
        {
          "internalType": "uint256",
          "name": "newPrice",
          "type": "uint256"
        }
      ],
      "name": "updateListing",
      "outputs": [],
      "stateMutability": "nonpayable",
      "type": "function"
    },
    {
      "inputs": [],
      "name": "withdraw",
      "outputs": [],
      "stateMutability": "nonpayable",
      "type": "function"
    },
    {
      "inputs": [],
      "name": "withdrawFees",
      "outputs": [],
      "stateMutability": "nonpayable",
      "type": "function"
    }
  ],
  "bytecode": "0x60a060405260fa6002556003805460ff191690553480156200002057600080fd5b506040516200284638038062002846833981016040819052620000439162000112565b60016000556200005333620000c0565b6001600160a01b038116620000ae5760405162461bcd60e51b815260206004820152601c60248201527f496e76616c6964204e465420636f6e7472616374206164647265737300000000604482015260640160405180910390fd5b6001600160a01b031660805262000144565b600180546001600160a01b038381166001600160a01b0319831681179093556040519116919082907f8be0079c531659141344cd1fd0a4f28419497f9722a3daafe3b4186f6b6457e090600090a35050565b6000602082840312156200012557600080fd5b81516001600160a01b03811681146200013d57600080fd5b9392505050565b6080516126ae62000198600039600081816106f801528181610e5901528181610f2a01528181610fc0015281816117a001528181611baf01528181611c8001528181611d1601526120b601526126ae6000f3fe6080604052600436106101b75760003560e01c80638da5cb5b116100ec578063cda4beef1161008a578063de74e57b11610064578063de74e57b1461071a578063e7fb74c71461078a578063f2fde38b1461079d578063fcce4883146107bd57600080fd5b8063cda4beef146106b0578063d55be8c6146106d0578063d56d229d146106e657600080fd5b80639979ef45116100c65780639979ef4514610634578063b9a2de3a14610647578063c3c5efaf14610667578063c4ae31681461069b57600080fd5b80638da5cb5b146105b25780638f07c2b4146105e457806396b5a7551461061457600080fd5b8063476343ee11610159578063715018a611610133578063715018a61461041857806378bd79351461042d57806383ffda3b1461055c578063883efa671461059257600080fd5b8063476343ee1461032a578063571a26a01461033f5780635c975abb146103ee57600080fd5b806322dcd13e1161019557806322dcd13e146102a457806326b387bb146102c8578063305a67a8146102f55780633ccfd60b1461031557600080fd5b80630179ea88146101bc578063107a274a146101de57806312e8e2c314610284575b600080fd5b3480156101c857600080fd5b506101dc6101d73660046123f0565b6107f0565b005b3480156101ea57600080fd5b506102526101f9366004612412565b60408051606080820183526000808352602080840182905292840181905293845260048252928290208251938401835280546001600160a01b031684526001810154918401919091526002015460ff1615159082015290565b6040805182516001600160a01b0316815260208084015190820152918101511515908201526060015b60405180910390f35b34801561029057600080fd5b506101dc61029f366004612412565b6108e5565b3480156102b057600080fd5b506102ba60025481565b60405190815260200161027b565b3480156102d457600080fd5b506102ba6102e3366004612440565b60066020526000908152604090205481565b34801561030157600080fd5b506101dc610310366004612412565b61098b565b34801561032157600080fd5b506101dc610a3f565b34801561033657600080fd5b506101dc610b78565b34801561034b57600080fd5b506103a961035a366004612412565b60056020819052600091825260409091208054600182015460028301546003840154600485015494909501546001600160a01b0393841695929491939092169160ff8082169161010090041687565b604080516001600160a01b0398891681526020810197909752860194909452949091166060840152608083015291151560a082015290151560c082015260e00161027b565b3480156103fa57600080fd5b506003546104089060ff1681565b604051901515815260200161027b565b34801561042457600080fd5b506101dc610cda565b34801561043957600080fd5b506104f9610448366004612412565b6040805160e081018252600080825260208201819052918101829052606081018290526080810182905260a0810182905260c081019190915250600090815260056020818152604092839020835160e08101855281546001600160a01b0390811682526001830154938201939093526002820154948101949094526003810154909116606084015260048101546080840152015460ff808216151560a084015261010090910416151560c082015290565b60405161027b919081516001600160a01b0390811682526020808401519083015260408084015190830152606080840151909116908201526080808301519082015260a08281015115159082015260c09182015115159181019190915260e00190565b34801561056857600080fd5b506102ba610577366004612440565b6001600160a01b031660009081526006602052604090205490565b34801561059e57600080fd5b506101dc6105ad3660046123f0565b610d0e565b3480156105be57600080fd5b506001546001600160a01b03165b6040516001600160a01b03909116815260200161027b565b3480156105f057600080fd5b506106046105ff366004612412565b611114565b60405161027b9493929190612464565b34801561062057600080fd5b506101dc61062f366004612412565b611258565b6101dc610642366004612412565b611387565b34801561065357600080fd5b506101dc610662366004612412565b611633565b34801561067357600080fd5b50610408610682366004612412565b6000908152600560208190526040909120015460ff1690565b3480156106a757600080fd5b506101dc61193a565b3480156106bc57600080fd5b506101dc6106cb3660046124ab565b6119b1565b3480156106dc57600080fd5b506102ba6103e881565b3480156106f257600080fd5b506105cc7f000000000000000000000000000000000000000000000000000000000000000081565b34801561072657600080fd5b50610763610735366004612412565b6004602052600090815260409020805460018201546002909201546001600160a01b03909116919060ff1683565b604080516001600160a01b039094168452602084019290925215159082015260600161027b565b6101dc610798366004612412565b611f4e565b3480156107a957600080fd5b506101dc6107b8366004612440565b6122ad565b3480156107c957600080fd5b506104086107d8366004612412565b60009081526004602052604090206002015460ff1690565b6000828152600460205260409020600281015460ff1661082b5760405162461bcd60e51b8152600401610822906124d7565b60405180910390fd5b80546001600160a01b031633146108545760405162461bcd60e51b8152600401610822906124fb565b600082116108a45760405162461bcd60e51b815260206004820152601c60248201527f5072696365206d7573742062652067726561746572207468616e2030000000006044820152606401610822565b6001810182905560405182815283907f66bcde9f7aec9b81719a4fdec54cbafbf6c834d1f2f989d9cd2134dab8d0c0de9060200160405180910390a2505050565b6001546001600160a01b0316331461090f5760405162461bcd60e51b815260040161082290612523565b6103e88111156109505760405162461bcd60e51b815260206004820152600c60248201526b08ccaca40e8dede40d0d2ced60a31b6044820152606401610822565b60028190556040518181527f45610d581145924dd7090a5017e5f2b1d6f42213bb2e95707ff86846bbfcb1ca9060200160405180910390a150565b6000818152600460205260409020600281015460ff166109bd5760405162461bcd60e51b8152600401610822906124d7565b80546001600160a01b031633146109e65760405162461bcd60e51b8152600401610822906124fb565b60008281526004602052604080822080546001600160a01b031916815560018101839055600201805460ff191690555183917f411aee90354c51b1b04cd563fcab2617142a9d50da19232d888547c8a1b7fd8a91a25050565b610a47612345565b3360009081526006602052604090205480610a9b5760405162461bcd60e51b81526020600482015260146024820152734e6f2066756e647320746f20776974686472617760601b6044820152606401610822565b336000818152600660205260408082208290555190919083908381818185875af1925050503d8060008114610aec576040519150601f19603f3d011682016040523d82523d6000602084013e610af1565b606091505b5050905080610b345760405162461bcd60e51b815260206004820152600f60248201526e15da5d1a191c985dc819985a5b1959608a1b6044820152606401610822565b60405182815233907feaff4b37086828766ad3268786972c0cd24259d4c87a80f9d3963a3c3d999b0d906020015b60405180910390a25050610b766001600055565b565b6001546001600160a01b03163314610ba25760405162461bcd60e51b815260040161082290612523565b610baa612345565b4780610bee5760405162461bcd60e51b81526020600482015260136024820152724e6f206665657320746f20776974686472617760681b6044820152606401610822565b6000610c026001546001600160a01b031690565b6001600160a01b03168260405160006040518083038185875af1925050503d8060008114610c4c576040519150601f19603f3d011682016040523d82523d6000602084013e610c51565b606091505b5050905080610c945760405162461bcd60e51b815260206004820152600f60248201526e15da5d1a191c985dc819985a5b1959608a1b6044820152606401610822565b6001546001600160a01b03166001600160a01b03167feaff4b37086828766ad3268786972c0cd24259d4c87a80f9d3963a3c3d999b0d83604051610b6291815260200190565b6001546001600160a01b03163314610d045760405162461bcd60e51b815260040161082290612523565b610b76600061239e565b60035460ff1615610d315760405162461bcd60e51b815260040161082290612558565b600082815260046020526040902060020154829060ff1615610d8f5760405162461bcd60e51b8152602060048201526017602482015276416c7265616479206c697374656420666f722073616c6560481b6044820152606401610822565b60008381526005602081905260409091200154839060ff1615610de95760405162461bcd60e51b815260206004820152601260248201527120b63932b0b23c9034b71030bab1ba34b7b760711b6044820152606401610822565b60008311610e395760405162461bcd60e51b815260206004820152601c60248201527f5072696365206d7573742062652067726561746572207468616e2030000000006044820152606401610822565b6040516331a9108f60e11b81526004810185905233906001600160a01b037f00000000000000000000000000000000000000000000000000000000000000001690636352211e90602401602060405180830381865afa158015610ea0573d6000803e3d6000fd5b505050506040513d601f19601f82011682018060405250810190610ec49190612587565b6001600160a01b031614610f0a5760405162461bcd60e51b815260206004820152600d60248201526c2737ba103a34329037bbb732b960991b6044820152606401610822565b60405163020604bf60e21b81526004810185905230906001600160a01b037f0000000000000000000000000000000000000000000000000000000000000000169063081812fc90602401602060405180830381865afa158015610f71573d6000803e3d6000fd5b505050506040513d601f19601f82011682018060405250810190610f959190612587565b6001600160a01b03161480611033575060405163e985e9c560e01b81523360048201523060248201527f00000000000000000000000000000000000000000000000000000000000000006001600160a01b03169063e985e9c590604401602060405180830381865afa15801561100f573d6000803e3d6000fd5b505050506040513d601f19601f8201168201806040525081019061103391906125a4565b61107a5760405162461bcd60e51b815260206004820152601860248201527713585c9ad95d1c1b1858d9481b9bdd08185c1c1c9bdd995960421b6044820152606401610822565b60408051606081018252338082526020808301878152600184860181815260008b815260048552879020955186546001600160a01b0319166001600160a01b03909116178655915190850155516002909301805460ff191693151593909317909255915185815286917fc93edc6ee14cd6c0c2842099adfa8953b237dbdad304ba28e96dce8a7f2a828c910160405180910390a350505050565b60008181526004602052604081206002015481908190819060ff1615611183575050506000828152600460209081526040808320815160608101835281546001600160a01b031680825260018084015495830186905260029093015460ff161515919093015293509091611251565b6000858152600560208190526040909120015460ff1615611244576000858152600560208181526040808420815160e08101835281546001600160a01b039081168252600183015494820194909452600282015492810183905260038201549093166060840152600481015460808401529092015460ff808216151560a084015261010090910416151560c08201529190611222578160200151611228565b81604001515b8251608090930151600297509095509193509091506112519050565b5060009250829150819050805b9193509193565b60008181526005602081905260409091209081015460ff1661128c5760405162461bcd60e51b8152600401610822906125c6565b80546001600160a01b031633146112b55760405162461bcd60e51b8152600401610822906124fb565b60038101546001600160a01b0316156113105760405162461bcd60e51b815260206004820152601760248201527f43616e6e6f742063616e63656c207769746820626964730000000000000000006044820152606401610822565b600082815260056020819052604080832080546001600160a01b031990811682556001820185905560028201859055600382018054909116905560048101849055909101805461ffff191690555183917f2809c7e17bf978fbc7194c0a694b638c4215e9140cacc6c38ca36010b45697df91a25050565b60035460ff16156113aa5760405162461bcd60e51b815260040161082290612558565b6113b2612345565b60008181526005602081905260409091209081015460ff166113e65760405162461bcd60e51b8152600401610822906125c6565b6005810154610100900460ff161561143a5760405162461bcd60e51b8152602060048201526017602482015276105d58dd1a5bdb88185b1c9958591e481cd95d1d1b1959604a1b6044820152606401610822565b806004015442106114815760405162461bcd60e51b8152602060048201526011602482015270105d58dd1a5bdb881a185cc8195b991959607a1b6044820152606401610822565b80546001600160a01b031633036114ce5760405162461bcd60e51b815260206004820152601160248201527014d95b1b195c8818d85b9b9bdd08189a59607a1b6044820152606401610822565b806002015460000361153357806001015434101561152e5760405162461bcd60e51b815260206004820152601860248201527f4269642062656c6f77207374617274696e6720707269636500000000000000006044820152606401610822565b611586565b806002015434116115865760405162461bcd60e51b815260206004820152601f60248201527f426964206d757374206578636565642063757272656e742068696768657374006044820152606401610822565b60038101546001600160a01b0316156115d057600281015460038201546001600160a01b0316600090815260066020526040812080549091906115ca908490612608565b90915550505b34600282018190556003820180546001600160a01b031916339081179091556040519182529083907f0e54eff26401bf69b81b26f60bd85ef47f5d85275c1d268d84f68d6897431c479060200160405180910390a3506116306001600055565b50565b61163b612345565b60008181526005602081905260409091209081015460ff1661166f5760405162461bcd60e51b8152600401610822906125c6565b6005810154610100900460ff16156116c35760405162461bcd60e51b8152602060048201526017602482015276105d58dd1a5bdb88185b1c9958591e481cd95d1d1b1959604a1b6044820152606401610822565b806004015442101561170f5760405162461bcd60e51b8152602060048201526015602482015274105d58dd1a5bdb881b9bdd081e595d08195b991959605a1b6044820152606401610822565b60058101805461ffff191661010017905560038101546001600160a01b0316156118f3576000612710600254836002015461174a9190612620565b611754919061263f565b905060008183600201546117689190612661565b835460038501546040516323b872dd60e01b81526001600160a01b0392831660048201529082166024820152604481018790529192507f000000000000000000000000000000000000000000000000000000000000000016906323b872dd90606401600060405180830381600087803b1580156117e457600080fd5b505af11580156117f8573d6000803e3d6000fd5b50508454604051600093506001600160a01b03909116915083908381818185875af1925050503d806000811461184a576040519150601f19603f3d011682016040523d82523d6000602084013e61184f565b606091505b505090508061189b5760405162461bcd60e51b815260206004820152601860248201527714185e5b595b9d081d1bc81cd95b1b195c8819985a5b195960421b6044820152606401610822565b60038401546002850154604080516001600160a01b039093168352602083019190915286917fd2aa34a4fdbbc6dff6a3e56f46e0f3ae2a31d7785ff3487aa5c95c642acea501910160405180910390a250505061192f565b604080516000808252602082015283917fd2aa34a4fdbbc6dff6a3e56f46e0f3ae2a31d7785ff3487aa5c95c642acea501910160405180910390a25b506116306001600055565b6001546001600160a01b031633146119645760405162461bcd60e51b815260040161082290612523565b6003805460ff8082161560ff1990921682179092556040519116151581527f2d8cb32b79ced32c38fb4a61d8482c40627602feb2cc34b50d9b55eea376d88c9060200160405180910390a1565b60035460ff16156119d45760405162461bcd60e51b815260040161082290612558565b600083815260046020526040902060020154839060ff1615611a325760405162461bcd60e51b8152602060048201526017602482015276416c7265616479206c697374656420666f722073616c6560481b6044820152606401610822565b60008481526005602081905260409091200154849060ff1615611a8c5760405162461bcd60e51b815260206004820152601260248201527120b63932b0b23c9034b71030bab1ba34b7b760711b6044820152606401610822565b60008411611aea5760405162461bcd60e51b815260206004820152602560248201527f5374617274696e67207072696365206d75737420626520677265617465722074604482015264068616e20360dc1b6064820152608401610822565b610e10831015611b3c5760405162461bcd60e51b815260206004820181905260248201527f4475726174696f6e206d757374206265206174206c65617374203120686f75726044820152606401610822565b62093a80831115611b8f5760405162461bcd60e51b815260206004820152601f60248201527f4475726174696f6e206d757374206265206174206d6f737420372064617973006044820152606401610822565b6040516331a9108f60e11b81526004810186905233906001600160a01b037f00000000000000000000000000000000000000000000000000000000000000001690636352211e90602401602060405180830381865afa158015611bf6573d6000803e3d6000fd5b505050506040513d601f19601f82011682018060405250810190611c1a9190612587565b6001600160a01b031614611c605760405162461bcd60e51b815260206004820152600d60248201526c2737ba103a34329037bbb732b960991b6044820152606401610822565b60405163020604bf60e21b81526004810186905230906001600160a01b037f0000000000000000000000000000000000000000000000000000000000000000169063081812fc90602401602060405180830381865afa158015611cc7573d6000803e3d6000fd5b505050506040513d601f19601f82011682018060405250810190611ceb9190612587565b6001600160a01b03161480611d89575060405163e985e9c560e01b81523360048201523060248201527f00000000000000000000000000000000000000000000000000000000000000006001600160a01b03169063e985e9c590604401602060405180830381865afa158015611d65573d6000803e3d6000fd5b505050506040513d601f19601f82011682018060405250810190611d8991906125a4565b611dd05760405162461bcd60e51b815260206004820152601860248201527713585c9ad95d1c1b1858d9481b9bdd08185c1c1c9bdd995960421b6044820152606401610822565b6000611ddc8442612608565b90506040518060e00160405280336001600160a01b031681526020018681526020016000815260200160006001600160a01b03168152602001828152602001600115158152602001600015158152506005600088815260200190815260200160002060008201518160000160006101000a8154816001600160a01b0302191690836001600160a01b03160217905550602082015181600101556040820151816002015560608201518160030160006101000a8154816001600160a01b0302191690836001600160a01b031602179055506080820151816004015560a08201518160050160006101000a81548160ff02191690831515021790555060c08201518160050160016101000a81548160ff021916908315150217905550905050336001600160a01b0316867fc9050d42180a61cb0d9ebb8ad118b62fe6eab12cf12ff752c4a0cc7da9ddf6278784604051611f3e929190918252602082015260400190565b60405180910390a3505050505050565b60035460ff1615611f715760405162461bcd60e51b815260040161082290612558565b611f79612345565b600081815260046020908152604091829020825160608101845281546001600160a01b031681526001820154928101929092526002015460ff16151591810182905290611fd85760405162461bcd60e51b8152600401610822906124d7565b80602001513410156120235760405162461bcd60e51b8152602060048201526014602482015273125b9cdd59999a58da595b9d081c185e5b595b9d60621b6044820152606401610822565b6000828152600460209081526040822080546001600160a01b0319168155600181018390556002908101805460ff1916905554908301516127109161206791612620565b612071919061263f565b905060008183602001516120859190612661565b83516040516323b872dd60e01b81526001600160a01b039182166004820152336024820152604481018790529192507f000000000000000000000000000000000000000000000000000000000000000016906323b872dd90606401600060405180830381600087803b1580156120fa57600080fd5b505af115801561210e573d6000803e3d6000fd5b50505050600083600001516001600160a01b03168260405160006040518083038185875af1925050503d8060008114612163576040519150601f19603f3d011682016040523d82523d6000602084013e612168565b606091505b50509050806121b45760405162461bcd60e51b815260206004820152601860248201527714185e5b595b9d081d1bc81cd95b1b195c8819985a5b195960421b6044820152606401610822565b836020015134111561225857602084015160009033906121d49034612661565b604051600081818185875af1925050503d8060008114612210576040519150601f19603f3d011682016040523d82523d6000602084013e612215565b606091505b50509050806122565760405162461bcd60e51b815260206004820152600d60248201526c1499599d5b990819985a5b1959609a1b6044820152606401610822565b505b835160208086015160405190815233926001600160a01b03169188917f04ddd54c6b746e69ba87f862311f7670bd1d7276846778ac81cd38747b27a746910160405180910390a4505050506116306001600055565b6001546001600160a01b031633146122d75760405162461bcd60e51b815260040161082290612523565b6001600160a01b03811661233c5760405162461bcd60e51b815260206004820152602660248201527f4f776e61626c653a206e6577206f776e657220697320746865207a65726f206160448201526564647265737360d01b6064820152608401610822565b6116308161239e565b6002600054036123975760405162461bcd60e51b815260206004820152601f60248201527f5265656e7472616e637947756172643a207265656e7472616e742063616c6c006044820152606401610822565b6002600055565b600180546001600160a01b038381166001600160a01b0319831681179093556040519116919082907f8be0079c531659141344cd1fd0a4f28419497f9722a3daafe3b4186f6b6457e090600090a35050565b6000806040838503121561240357600080fd5b50508035926020909101359150565b60006020828403121561242457600080fd5b5035919050565b6001600160a01b038116811461163057600080fd5b60006020828403121561245257600080fd5b813561245d8161242b565b9392505050565b608081016003861061248657634e487b7160e01b600052602160045260246000fd5b94815260208101939093526001600160a01b0391909116604083015260609091015290565b6000806000606084860312156124c057600080fd5b505081359360208301359350604090920135919050565b6020808252600a9082015269139bdd081b1a5cdd195960b21b604082015260600190565b6020808252600e908201526d2737ba103a34329039b2b63632b960911b604082015260600190565b6020808252818101527f4f776e61626c653a2063616c6c6572206973206e6f7420746865206f776e6572604082015260600190565b60208082526015908201527413585c9ad95d1c1b1858d9481a5cc81c185d5cd959605a1b604082015260600190565b60006020828403121561259957600080fd5b815161245d8161242b565b6000602082840312156125b657600080fd5b8151801515811461245d57600080fd5b60208082526012908201527141756374696f6e206e6f742061637469766560701b604082015260600190565b634e487b7160e01b600052601160045260246000fd5b6000821982111561261b5761261b6125f2565b500190565b600081600019048311821515161561263a5761263a6125f2565b500290565b60008261265c57634e487b7160e01b600052601260045260246000fd5b500490565b600082821015612673576126736125f2565b50039056fea2646970667358221220e4db0d5779b26c50d4946ab49ebf14806a54174f8ebeb320734c9a6a1e265bed64736f6c634300080e0033",
  "linkReferences": {},
  "deployedLinkReferences": {}
}